:020000040C00EE
:10E000004200DEC04200DEC0000000000000000050
:10E010000000000000000000000000000000000000
:020000040C01ED
:10000000D8600430DD0E010CC557010CAD4F010C5A
:10001000C14F010CD54F010CE94F010CFD4F010CF4
:10002000000000000000000000000000D10D010CE5
:10003000D30D010C00000000D50D010CD70D010CF3
:10004000D90D010CDB0D010CDD0D010CDF0D010CD8
:10005000E10D010C79BF010CE30D010CE50D010C64
:10006000E70D010CE90D010CEB0D010CED0D010C80
:10007000EF0D010CF10D010CF30D010CF50D010C50
:10008000F70D010CF90D010CFB0D010CFD0D010C20
:10009000FF0D010C010E010C030E010C050E010CED
:1000A000070E010C090E010C0B0E010C0D0E010CBC
:1000B0000F0E010C110E010C130E010C150E010C8C
:1000C000170E010C190E010C1B0E010C1D0E010C5C
:1000D0001F0E010C210E010C230E010C250E010C2C
:1000E000270E010C290E010C2B0E010C2D0E010CFC
:1000F0002F0E010C310E010C330E010C350E010CCC
:10010000370E010C390E010C3B0E010C3D0E010C9B
:100110003F0E010C410E010C430E010C450E010C6B
:10012000470E010C490E010C4B0E010C4D0E010C3B
:100130004F0E010C510E010C530E010C550E010C0B
:10014000570E010C590E010C5B0E010C5D0E010CDB
:100150005F0E010C610E010C630E010C650E010CAB
:10016000670E010C690E010C6B0E010C6D0E010C7B
:100170006F0E010C710E010C730E010C750E010C4B
:10018000770E010C790E010C7B0E010C7D0E010C1B
:100190007F0E010C810E010C830E010C850E010CEB
:1001A000870E010C890E010C8B0E010C8D0E010CBB
:1001B0008F0E010C910E010C930E010C950E010C8B
:1001C000970E010C990E010C9B0E010C9D0E010C5B
:1001D0009F0E010CA10E010CA30E010CA50E010C2B
:1001E000A70E010CA90E010CAB0E010CAD0E010CFB
:1001F000AF0E010CB10E010CB30E010CB50E010CCB
:10020000B70E010CB90E010CBB0E010CBD0E010C9A
:10021000BF0E010CC10E010CC30E010CC50E010C6A
:10022000C70E010CC90E010CCB0E010CCD0E010C3A
:10023000CF0E010CD10E010CD30E010CD50E010C0A
:10024000D70E010CD90E010CDB0E010C40B1521877
:1002500005D2C068904234BF0020012070470020C2
:10026000704700000B4B30B51A6800230A4C9342CC
:1002700003DB06D14FF0FF3008E01D01655D8542CC
:1002800005D10020044A02EB03130B6030BD01339B
:10029000EDE700BF50B8010C54B8010C70470000E6
:1002A0002DE9F0431E4603780546032B0C461746FE
:1002B00085B00AD183684B480B4403F10062009279
:1002C00003F14063324606F075FFAA68B2F5001FDD
:1002D0000AD3454B197839B9012119700096234684
:1002E0002978424806F066FF324621462846FFF745
:1002F000ADFF002873D06B6802965B6898473C4B53
:10030000C0F3410013F82090C9F1000303EA040888
:1003100034EA03032BD0D5E9013001225B6903A93C
:1003200040449847002816DB0022A319A3EB0803DA
:100330004B4524BFA8EB04064E44A4EB08035FFA28
:1003400082F8464502F1010208D8029B9B1B0293EA
:10035000029B7BB9002005B0BDE8F08308F11001D5
:100360006944194411F8041C07F80810E7E74FF036
:100370000008EDE7029B4B45B3FBF9F61CD209FBE5
:1003800006F6AB68301918446B6801225B6903A953
:10039000404498470028DEDB002237440299D3B25C
:1003A000994202F10102D5D9F91810336B4413F8C0
:1003B000043C01F80830F1E7A8686B682044324635
:1003C0005B6907EB0801404498470028C3DB029BA8
:1003D00009FB16330293029B002BD0D1BAE74FF0F2
:1003E000FF30B8E750A8010CDC00043095A8010CE0
:1003F00044B8010C2DE9F04F8DB002921A46054623
:100400000F461E4621F00F0A01F00F08FFF71EFFEE
:1004100028B94FF0FF3318460DB0BDE8F08F6B6878
:100420000DF1200B5B689847584BC0F3410053F81F
:1004300020305A460093514643462846FFF730FF86
:100440000028E6D106F10F03434423F00F03AAEB83
:100450000709A9EB06091A46514628460193994413
:10046000FFF7F4FE0028D4D04B46284604AAB91959
:10047000FFF716FF03460028CBD1B8F1000F63D178
:100480004446B442C7D2A6EB040A3AF00F0A10D091
:10049000A86869689DF800203844D1F818B0BAFB04
:1004A000F2F2029920440393D8470028B1DB039B62
:1004B0005444B9F1000FAED008A8224600230146EB
:1004C00096420AD9DDF808C001331CF802C0102B8F
:1004D00000F801CB02F10102F2D1964299D100223B
:1004E00004A8102B01D04A4549D108F11008102B5F
:1004F000A0448ED14A458CD1019A424589D1A86841
:100500009DF800206D683844B3FBF2F2AD692044D9
:10051000A847C3177FE7029A125D01340BF8012048
:1005200001310F2913D8B442F5D1002204A80DF1EE
:10053000200C0F2920D84A450BD010F801EB0132CE
:1005400001F80CE00131F4E741460446E9E7B44222
:10055000EBD0102903937FF45CAFD5E901309DF80F
:100560000020D3F818B0B1FBF2F2504408A9D847E4
:100570000028039B85DA4CE74A45EAD049E710F8A2
:10058000016B0132CE540133ABE700BF44B8010C1C
:100590002DE9F04105460E469046FFF757FEA8B1FB
:1005A0006B689B6A98470468074664B10020BDE801
:1005B000F081D5E90130DB69304498470028F6D155
:1005C000BB681C441E444445F3D3EFE74FF0FF30B3
:1005D000EDE708B543689B6A9847006908BD0021AC
:1005E00008B5084600F054F9FEE70346002030B590
:1005F000013A00D230BD1D780C78A54202D008B96E
:10060000281BF5E701330131F2E7F0B505460C048C
:1006100044EA01640C4344EA012462B913465619C2
:10062000032A0ED823F003022A4403F003031344E1
:100630009A420AD1F0BDAB07F0D005F8011B013A90
:10064000EBE7B71A3C60043AEAE702F8011BEFE770
:10065000034670B56AB900241519032D13D822F08A
:10066000030421441C44002302F003029A4210D1E7
:1006700070BD41EA0304A407EDD011F8014B013A23
:1006800003F8014BE6E70D1B2E681D1B2E60043C92
:10069000E2E7CD5CE5540133E8E7000010B506F071
:1006A000BBF928B1034B1C6800F04CFD204610BD7F
:1006B000014BF8E70C0004301000043037B50C464D
:1006C00031B900F03FFD0E4B1D68284603B030BD28
:1006D000031DF6D8C31C052B184628BF0520042B84
:1006E000EFD8042101AA06F099F930B1044B1D6836
:1006F000019B236000F026FDE7E7024BF7E700BF10
:100700000C00043010000430031D08D8C31C052B56
:10071000184628BF0520042B01D806F087B94AF2F5
:10072000C53070477FB50E46054618B94FF0FF300B
:1007300004B070BD0029F9D0012001A9FFF792FD96
:10074000044610B9019B9E4209D0022001A9FFF77F
:1007500089FD0028EAD1019B9E42E7D10124686906
:10076000A96902AB03C3082202ABA101022000F079
:100770001FFCDDE71FB5082102AA022006F0EEFBF0
:10078000DDE902020B490C4B9A4208BF884207D1AF
:100790000A4B0B4A00930B490B4B0C4806F00AFD21
:1007A000082200210DEB0200FFF72FFF05B05DF8D6
:1007B00004FB00BFA9B454B26D6F90A430A9010C22
:1007C000EFA8010C1DA9010CCFA8010C25A9010C53
:1007D00013B5044668B10421072001AA06F0BEFB48
:1007E00028B9019B012B8CBF00230123237002B089
:1007F00010BD4AF2C530FAE708B520210C20084A9E
:1008000006F050FC18B14CF25A32904206D1BDE8C5
:10081000084020210D20034A06F044BC08BD00BF5B
:10082000A8B8010CC8B8010C1FB50421072003AA01
:1008300006F094FB0446B8B90D4806F0BBFC0D4B1E
:100840000D4A00930D490E4B0E4806F0B3FC039B76
:1008500053B906F09EFC044630B9FFF7CDFF0446BD
:1008600010B906F098FC0446204604B010BD00BF45
:1008700035A9010C30A9010C52A9010C1DA9010CCC
:10088000CFA8010C25A9010C002070477047FEE796
:100890002DE9F3414FF400515D4803F0BDF805F038
:1008A000E3FF5C495C4806F085FC04F0E5FA044689
:1008B00028B15A4806F07EFC204605F0AFFF4FF401
:1008C0000011574806F076FC06F012FB044608B10A
:1008D0005448EFE70DF10300FFF77AFF044608B133
:1008E0005148E7E79DF803302BB1FFF79DFF044621
:1008F00008B14E48DEE7FFF73DFF00F01BFC054660
:10090000FFF7CCFE0446284600F038FC484E33681A
:10091000A34201D04748CDE705F07EFF044608B169
:100920004548C7E702F00CFE044620B101464348A3
:1009300006F040FCC0E7424A4249434806F03AFC10
:100940000124424F204605F070FF00283CD020468D
:1009500005F067FF0546A0B121463D4806F02AFC98
:100960002846AAE70024EDE73A4806F023FC204693
:1009700005F05DFF336810B1386883429DD1AB420A
:100980001AD00C2200213448FFF73FFE214633489D
:1009900006F010FC00F0CEFB214680462E4801F008
:1009A00095F80546404600F0E9FB2D48214606F043
:1009B00001FC3368AB42D7D1204605F034FF054631
:1009C00010B121462748C9E7002CCBD1224D26483B
:1009D000A96806F0EFFB29682448CB8A4A7D097D87
:1009E00006F0E8FB224806F0E5FB01A9287900F0B3
:1009F00049F82B681A691C8992065BBFAB68019A9B
:100A00005B689B181C4405F04BFF20460BF078FAFE
:100A1000EC000430E8B8010C8AA9010C8FA9010C84
:100A2000A6A9010CC7A9010CEAA9010C0FAA010C87
:100A30001000043025AA010C55AA010C71AA010C62
:100A4000C3B1010C9DAA010CA5AA010C0C00043035
:100A5000CCAA010C1CAB010CE0000430F0AA010C84
:100A600004AB010C3CAB010C61AB010C8DAB010C78
:100A7000A8AB010C0020704708B502F05DFE002015
:100A800008BD0000642808B507D001466422054867
:100A900006F090FB4FF0FF3008BD4FF040630020A0
:100AA0000B60F9E7CAAB010C012909D002290CD06F
:100AB00069B978B1012808BF022018BFFF2070472C
:100AC00050B1012808BF0420F7E7052070474FF018
:100AD000FF307047012070470320704708B5436816
:100AE0009B6A9847007D08BD436870B59B6A1646AF
:100AF0000D46044698478368B5FBF3F563689B6A27
:100B0000984783686B43336063689B6A9847836840
:100B10000020736070BD00002DE9F341D1F8008022
:100B200006460D46C0B201A91746FFF79BFB0446D7
:100B300088BB2B68CBB103464FF40050019AD168B3
:100B40002B6009B1984506D8984510D23146134814
:100B500006F030FB09E0B1F5005F0FD24FF400530F
:100B60003146D2680E4806F025FB4FF0FF3401985D
:100B7000FFF794FB204602B0BDE8F0814FEA433C0A
:100B800047F833C02B68A1F5005107EBC303586049
:100B90002B680133D4E74FF0FF34EBE723AC010CB3
:100BA000EDAB010C05F06FBF054B00201A684FF04C
:100BB000E023013A5A61052298611A61704700BF2B
:100BC000200004304FF0E02130B50E480E4C8A6909
:100BD0000568236893422B444FF47A753CBF4969FA
:100BE0005B180A499B1A09680360B1FBF5F1994249
:100BF000074B04D200251968056001311960186897
:100C0000226030BDF4200430F8200430200004308D
:100C1000F020043038B570B30368190701D4002000
:100C200038BD8369154C9BB1D4F8F03043F0806334
:100C3000C4F8F030FFF7C6FF0546D4F8F0301A01CB
:100C4000EDD4FFF7BFFF401B0228F6D90320E7E7EA
:100C5000D4F8F03023F08063C4F8F030FFF7B2FF2F
:100C60000546D4F8F0301B01D9D5FFF7ABFF401B88
:100C70000228F6D9EAE70120D2E700BF000C0254AF
:100C8000F8B50368054698014FD5314C636A43F0C7
:100C900001036362FFF796FF0646636AD90746D5EC
:100CA0002C4CD4F8F03013F4407320D0D5F8FC204D
:100CB00093421CD0D4F8F020D4F8F03022F44071E4
:100CC00043F48033C4F8F030D4F8F030D20723F482
:100CD0008033C4F8F030C4F8F01008D5FFF772FF85
:100CE00041F288370646D4F8F0309B0726D5D5F870
:100CF000FC30184903F44072B2F5407F24D1C86932
:100D0000154A20F47C5002EA13120243CA61114AC8
:100D1000C3F30B03D2F8F01021F44071C2F8F010C5
:100D2000D2F8F0100B43C2F8F030002005E0FFF7D6
:100D300049FF801B0228B0D90320F8BDFFF742FF0E
:100D4000801BB842CFD9F7E7CA6922F47C52DDE7AD
:100D500000080254000C0254CFFFFF0013B5194CD9
:100D600005F0C8F9D4F8F030174843F01803C4F878
:100D7000F030FFF74FFF08B10BF0FEF81348FFF714
:100D80007FFF08B10BF0F8F80421D4F8F0300846E2
:100D900043F40043C4F8F030D4F8A830002243F400
:100DA0000013C4F8A830D4F8A83003F4001301935A
:100DB000019B05F0BBFA042002B0BDE8104005F02D
:100DC000E5BA00BF000C025408BA010CF8B8010CD7
:100DD000FEE7FEE7FEE7FEE7FEE7FEE7FEE7FEE7EB
:100DE000FEE7FEE7FEE7FEE7FEE7FEE7FEE7FEE7DB
:100DF000FEE7FEE7FEE7FEE7FEE7FEE7FEE7FEE7CB
:100E0000FEE7FEE7FEE7FEE7FEE7FEE7FEE7FEE7BA
:100E1000FEE7FEE7FEE7FEE7FEE7FEE7FEE7FEE7AA
:100E2000FEE7FEE7FEE7FEE7FEE7FEE7FEE7FEE79A
:100E3000FEE7FEE7FEE7FEE7FEE7FEE7FEE7FEE78A
:100E4000FEE7FEE7FEE7FEE7FEE7FEE7FEE7FEE77A
:100E5000FEE7FEE7FEE7FEE7FEE7FEE7FEE7FEE76A
:100E6000FEE7FEE7FEE7FEE7FEE7FEE7FEE7FEE75A
:100E7000FEE7FEE7FEE7FEE7FEE7FEE7FEE7FEE74A
:100E8000FEE7FEE7FEE7FEE7FEE7FEE7FEE7FEE73A
:100E9000FEE7FEE7FEE7FEE7FEE7FEE7FEE7FEE72A
:100EA000FEE7FEE7FEE7FEE7FEE7FEE7FEE7FEE71A
:100EB000FEE7FEE7FEE7FEE7FEE7FEE7FEE7FEE70A
:100EC000FEE7FEE7FEE7FEE7FEE7FEE7FEE7FEE7FA
:100ED000FEE7FEE7FEE7FEE7FEE7FEE707B52C4B81
:100EE00083F30A8803F02AFF05F004F9294B2A4905
:100EF000D3F8F02042F40042C3F8F020D3F8A82041
:100F000042F40012C3F8A820D3F8A82002F400127B
:100F10000192019A0A6B8AB1D3F8F02042F4803230
:100F2000C3F8F020D3F8F02022F48032C3F8F02088
:100F30000B6B002BFCD10122184B1A60154A184983
:100F4000136843F480531360164B8B4212D3002076
:100F5000154B16498B4218D3FFF741FB186850F820
:100F60002240586840F82240013298688242F5D306
:100F70000C33EAE70022F8E71C6844F8220001324B
:100F80005C68A242F8D30833E4E70022F8E700BF28
:100F9000D4400430000C0254007C0054FC20043087
:100FA00040A8010C28A8010C40A8010C50A8010C75
:100FB0002DE9F74F9146002282460C469846019251
:100FC0001BB9032003B0BDE8F08F06F0E7F82F4F00
:100FD000054697F800B0BBF1000F10D106F0DEF81F
:100FE000064606F0DFF8594602463046FFF70DFB8D
:100FF00042F216032B8004236B8001233B7006F022
:10100000CDF86F88074406F0C9F8061DBE4225D307
:10101000C4F30B031FFA89F46E88ADF8064004345C
:10102000A4B2264443EA0A30B6F5803FADF8040086
:10103000C7DA06F0B7F8B6B2864225D80422384699
:101040000DEB0201FFF704FB4A464146381DFFF74E
:10105000FFFA6B8800201C446C80B3E70422314601
:101060000DEB0200FFF7F4FABDF80430BAEB133FC2
:1010700003D1C3F30B039C4204D0BDF80630043304
:101080001E44C3E702209DE701209BE700210430B6
:101090000023F0B5B5B0009305464FF6FF7305A8E1
:1010A000174601F077FA044618B14FF0FF3035B01B
:1010B000F0BD06460DF10E0303AA04A905A801F030
:1010C000B5FA0028F1D1BDF80E30602B0ED1BDF875
:1010D0000C30842BE9D83846049913AAFFF7E0F8BE
:1010E0000028E2D10124BDF80C60E3E7102BE1D128
:1010F000BDF80C30202BD8D8384604990BAAFFF73E
:10110000CFF80028D1D1002CCFD01F2ECDD9A6F1F9
:10111000200013AC04900BA920222044FFF798FA7A
:10112000A9012346324641F03F010120FFF740FF6D
:10113000BDE70000024B1868421C1A60704700BFF0
:1011400004210430024A1368013B1360704700BF5A
:1011500004210430FFF7FEBFFFF7FCBFFFF7FABF23
:10116000FFF7F8BFFFF7F6BFFFF7F4BFFFF7F2BFD7
:10117000FFF7F0BFFFF7EEBFFEE7000008B5034B37
:101180001B68834201D0FFF7E5FF08BD042104304E
:101190002DE9F843582390F8C85006465D432C23A8
:1011A00003FB015505440C469046D5F8209001F00C
:1011B00062FC10B92B69DB060BD51CB149463046E1
:1011C00000F0AEFC164B1D68FFF7BCFF2846BDE8DB
:1011D000F8832146304601F05BFCA0B9114B1D6835
:1011E000114B1B68AB42EFD01049114B1148002C3A
:1011F00018BF194605F0DEFF002CE3D00121484658
:1012000001F034FCDEE7FFF795FF22460746414632
:10121000304601F085FC05463846FFF7AFFFDFE7B3
:10122000080004300C0004301000043049AC010CFC
:1012300051AC010C5BAC010C004870470825043030
:101240004379012B07D10368012B04D10079431E98
:1012500058425841704700207047000073B50D4652
:101260000021044690F8C8202846CDE90011FFF778
:10127000E7FF58B358235A431C4EA358B34203D137
:10128000204601AA01F0B1FA582294F8C83002FBB6
:101290000343DB6AB34204D16A460121204601F0D0
:1012A000A4FADDE900239A4284BF13460192AB60A1
:1012B00029462046019A00F0F7FE0D4B19680029D7
:1012C00002DD0C4805F076FF02B070BD11462046E5
:1012D00001F03CFA064605F1080101F067FAAB6837
:1012E00030460193FEF7DAFFE2E700BF3DB8F39620
:1012F000E425043080AC010CF0B58B7904460F4630
:1013000085B043B3D0F8B050284601F00FFA94F8F6
:10131000C8300646303354F82310384600F0BAFD82
:1013200034182846FFF755F906462846FFF7D6FB3E
:10133000102201466846FFF768F93B796A468DF846
:101340000030214633462846FFF754F8003818BFCE
:10135000012005B0F0BD582290F8C83002FB03030D
:101360001D6AD1E72DE9F8430E46904699460024C0
:10137000099FBC4201D300200EE03D1BB5F5806FF4
:1013800028BF4FF4806530462B460A4A04EB09011A
:10139000FEF786FF10B10120BDE8F88308992B46BF
:1013A0004046044A6118FFF725F80028F3D12C4481
:1013B000DFE700BF082104302DE9F04F95B0044667
:1013C0000E4601F059FC002800F09581BA4805F05E
:1013D000F1FEFFF7BFFE231893F8C91069BB204642
:1013E00001F086FA804690B900222046114601F0AD
:1013F00075FB00283DD094F8C810B04805F0DAFE1F
:10140000012294F8C830234483F8BC200BE09621D5
:10141000AB4805F0CFFE012294F8C8309045234434
:1014200083F8BC20E0D194F8C800231893F8BC30AE
:10143000023B022B98BF45F001050130C0B20128E4
:1014400084F8C800C7D9002D00F0A68100232C27FE
:101450004FF0580884F8C830E21892F8C9100029F3
:1014600000F04C810133DBB2012B84F8C830F3D992
:1014700092E1204600F094FF002807DD012294F855
:10148000C83007F8332007EBC3035860204600F04C
:101490000DFD4FF0010988B100238A4A20460AA9B0
:1014A000CDE90B23CDF828900D9300F077FB804613
:1014B00050B194F8C810844805F07CFE94F8C83008
:1014C000234483F8BC90AEE70AA8FFF7B9FE80F08A
:1014D00001010AAA2046C9B201F000FB40B1414611
:1014E000204601F0C8FA18B994F8C8107348E3E729
:1014F0000AA8FFF7A5FE00284BD194F8C83053BBCB
:1015000020460AA9FFF7AAFE94F8C8009DF82F30DC
:10151000221882F8BC30033B012B08D800F0C0FB36
:1015200028B1FF2294F8C830234483F8BC209DF8EA
:101530002F30023B022B1FD894F8C80000F098FB14
:10154000D0B1FF2294F8C830234483F8BC205F4810
:1015500005F030FEFEE794F8BC20042A04BF012207
:1015600084F8BC20012BCBD094F8BD30042BC7D11C
:10157000012384F8BD30C3E794F8C830234493F8BE
:10158000BC30FF2BE3D000222046114601F0A6FA22
:1015900036E79DF82F80B8F1010F61D194F8C800AB
:1015A00001F0E2FC831E022B814617D8FFF7C2FD33
:1015B000414682460AAA2046FFF7EAFD8046504689
:1015C000FFF7DCFD424B1B68984507D0414B18687C
:1015D000804514BF4FF005094FF0010994F8C83059
:1015E0005FFA89F0E21882F8BC00002B79D123441D
:1015F00093F8BC30012B7FF416AFFFF79BFD002161
:1016000081460AAA2046FFF7C3FD80464846FFF7F9
:10161000B5FD0021204601F02EFA002866D05822A0
:1016200094F8C83002FB0343D3F82CA0FFF782FDE7
:10163000012181460AAA2046FFF7AAFD80464846B6
:10164000FFF79CFD244B9A457FF4EDAE204B1B68C1
:1016500098457FF4E8AE94F8C83004222344D3E6DA
:10166000FFF768FD012181460AAA2046FFF790FD99
:1016700080464846FFF782FD154A94F8C830126844
:10168000904504EB030229D0052182F8BC10002B01
:101690003FF4C9AE94F8BC20042A04BF012284F8A8
:1016A000BC20012BA3D094F8BD20042A9FD1012295
:1016B00084F8BD209BE700BFACAC010C19AD010C58
:1016C000DAAC010C0101000142AD010C69AD010C65
:1016D00010000430080004303DB8F3969DF82F0048
:1016E00081E7012889D00428D4D19CE6B74B1B6838
:1016F000984594D197E60546B54FA0E692F8BC20F0
:101700000EA802F0FB02012A14BF0121002108FBF0
:1017100003F207FB012214BF2C2100215B4203F0DE
:101720005803194401232244156A214400932A4690
:10173000402300F02FFF58BB00230DF1160206A92D
:101740000EA800F073FF002822DB40F0BA81BDF83C
:1017500016300C2B1CD12846069907AAFEF7A0FDCF
:10176000B0B99DF81C30012B12D8E21892F8BC20B9
:101770005B42023A022A94BF2C20002003F0580357
:101780001433184408A9204401F0F2F90028D3DAF0
:1017900040F20113A4F8BC300020012884F8C800EE
:1017A00024D900238B4D894FDFF82C820793012B1E
:1017B00084F8C83040F2F880079A022A7FF409AE14
:1017C000002384F8C83094F8C930002B00F06B81F6
:1017D000012394F8CA1084F8C830002900F063810E
:1017E00084F8C820794BD3F800900CE1221892F8C5
:1017F000C980B8F1000F40F0D48001230A9340F271
:101800000113ADF82C3092F8BC30CDE90C88042BD4
:101810008DF82E808DF82F3007D8012B0DD800F0D1
:10182000B780FF2382F8BC30B2E0052BF9D100F07D
:1018300037FA002800F0AC8054E0FFF77BFC41460B
:1018400007460AAA2046FFF7A3FC05463846FFF7DD
:1018500095FC4146204601F00EF918B95B4B1B6818
:101860009D4277D000254FF0580B2F4694F8C8A022
:101870005A48514605F09EFC594805F09BFC94F8E7
:10188000C8300BFB0343D3F82090D3F84C809B6AFD
:101890000293029BBB422CD12A465146514805F087
:1018A00089FC002341464A46204601950093FFF7F4
:1018B00059FD014648B90122204601F06FF905465D
:1018C00048B30146484805F075FC94F8C800231851
:1018D00093F8BC50EB1E012B57D800F0E1F90146FC
:1018E00000283CD0FF2294F8C830234483F8BC2061
:1018F0004EE094F8C83029460BFB03435B6A484628
:1019000003EBC7035A680023039201F068F8039AB7
:1019100001371544BDE7582794F8C830014607FB46
:1019200003431A6D03465268404601F097F894F855
:10193000C82007FB0242D2E91432013A53F83200C0
:10194000196803EBC207411A2B4640467A6801F03A
:1019500085F8BAE720460AA9FFF780FCB5E7032D12
:101960000ED10122204601F019F9014640B11E486E
:1019700005F020FCFF2294F8C830234483F8BC20F3
:1019800094F8C80000F074F953E7023D012DF7D92F
:1019900094F8C800231893F8BC30FF2B01D11348EA
:1019A00015E50130C0B2F8E6234493F8C9208DF85C
:1019B00018209DF8181001F0FF02C9B1079B0133F0
:1019C000079394F8C8300133DBB2F0E6100004301E
:1019D000082504300C0004300800043072AD010CFE
:1019E000A4AD010CBFAD010C06AE010C69AD010C3C
:1019F00093F8BC30012B14D01146204601F06EF84C
:101A000078B1D5F80090102200210AA8FEF7FDFD5C
:101A1000204601F00BF9FFF795FB484615B0BDE8ED
:101A2000F08FFFF787FB0022814611462046FFF723
:101A3000AFFB82464846FFF7A1FB3B68D5F8009014
:101A40009A45E0D1CA45DED0D8F800309A45DAD0C0
:101A500094F8C830BBB1012B14BFFF2002200EA99F
:101A600001F05CFA0028CCD19DF83830012B0CD164
:101A70009DF83B30012B08D00021204601F0A6F84C
:101A800000289BD0BDE70120E9E70022204611464F
:101A900001F084F802460028EED094F8C8100A48F5
:101AA00005F088FBADE7582202FB0342126A5B4255
:101AB000517803F05803317192682344B260336067
:101AC00090E694F8C830CDE43FAE010C0129F8B59A
:101AD00006460C4605D9FFF735FB0E4B1C68204621
:101AE000F8BD022201210C48FEF78FFD00230B4FA9
:101AF0003C4484F8C930FFF71DFB314605463846A3
:101B0000FFF75AFC04462846FFF738FBFFF71AFB9D
:101B1000E5E700BF0C000430E1250430182504304F
:101B200013B50C4690F8C83001AA303350F8231092
:101B3000204600F038FF002809DB0199E268012304
:101B40002046521A00F08AFFC00F02B010BD0120DB
:101B5000FBE7582373B5154690F8C8600C4603FBA5
:101B600006006946C06C01F083F9E979012903D0C8
:101B70003246204601F0E6F99DF80330012B02D1F0
:101B8000204601F067F9A968204600F01DFE2046B6
:101B900001F00AF9002002B070BD00007FB50646D2
:101BA0000C46304B00F0EAF90128E06006D002282C
:101BB0004ED000284AD0072004B070BDD6F8B050EF
:101BC00022463146284600F00BF90028F4D1284679
:101BD00001F0A6F8012301460DF10B022846FEF79D
:101BE0005FFB00283BD1012228460DF10B0101F0DB
:101BF000ABF810B101238DF80B309DF80B30204667
:101C000003F00F03E371FFF71BFBF8B9039003A97F
:101C10002846EE6800F0CAFD054600962168039B41
:101C20002279114805F0C6FA039925B94B1E0333F2
:101C300001D88E420AD20D4805F0BCFA0123236078
:101C400003F1012363600023C4E902330020B3E7FA
:101C5000582296F8C83002FB03631D6AB0E70120E2
:101C6000AAE700BF58BA010C7EAE010CB0AE010C61
:101C700013B588B1012814BFFF20022001A9FEF787
:101C8000F1FA58B9019801F0E7F904460198FEF716
:101C900005FB204602B010BD0120EFE70124F8E764
:101CA0001FB5D8B1012814BFFF20022001A9FEF7FB
:101CB000D9FAB8B9019802A901F0DAF8044678B95E
:101CC0009DF80B30032B03D1019801F0C3F80446B3
:101CD0000198FEF7E3FA204604B010BD0120E5E7C5
:101CE0000124F5E70124F6E75822F8B590F8C8304A
:101CF00002FB0306481E0330B26A736D01D802B1BD
:101D00002BB91C4805F056FA4FF0FF30F8BD0024FF
:101D10002546274620468D4201D3A5420DD290424A
:101D200003D3154805F046FAEEE7D6F824C00CEBCD
:101D3000C00CDCF804C0013065448C4201D3A542DC
:101D400015D99F4202D31A460C48EBE7D6F850C08B
:101D50008D420CEBC70CDCF804C007F101076444AA
:101D6000DDD3A142D7D8A542D5D10138CEE78D42E7
:101D7000F9D2D4E7E2AE010C1AAF010C50AF010C5E
:101D800010B5582490F8C83063432C2404FB013369
:101D9000C118886A4B6A013803EBC00149680433F3
:101DA000914200D310BD013853F830402144F7E789
:101DB00038B504460D46FFF7E3FF582294F8C830C3
:101DC00053432C2202FB05310C44626A02EBC00330
:101DD00052F830105B6810680B44181A38BD0000C8
:101DE0002DE9F74F88460746164600F09FFC394616
:101DF000834698F8C80000F079FCB0F1000A42DB95
:101E000000242546A146544513D1B9F1000F0CD04A
:101E1000002D18BF2C460323B4FBF3F35A1C03EB2D
:101E20004303E31A013332603371002003B0BDE88D
:101E3000F08F98F8C8303846303358F823100DF139
:101E40000702012301FB04B1FEF72AFA00281CDB7C
:101E5000012238460DF1070100F076FF38B1B9F1E3
:101E6000000F02D0002D08BF25460134CBE7B9F1A1
:101E7000000F05D0002DF8D0054805F09BF9C7E705
:101E80004FF00109F1E70720D0E70120CEE700BFBE
:101E900086AF010C10B5036801EB41045A1E0379AB
:101EA000013B594304FB021010BD00002DE9F8432B
:101EB000582390F8C84003FB0404D4F82880B8F1F4
:101EC000960F04D8D4F854E0BEF1960F05D92748F0
:101ED00005F070F90020BDE8F883D0F8B030D3F8F1
:101EE0000C900023194618461E469C461D461A466D
:101EF000404509D3714507D3404503D1714501D110
:101F0000B44530D01A48E3E7AA4213D1676A07EB19
:101F1000C0077F6801303A44276D07EBC1077F682F
:101F200001313D44AA42E3D14A459444164418D9AC
:101F30001048CDE70BD2676A022B07EBC0077F681A
:101F40003A4401D10C48C3E701230130EAE7276D89
:101F5000012B07EBC1077F683D44F3D00223013119
:101F6000E0E70023C2E70120B5E700BFA6AF010C00
:101F70003BB0010C06B0010CD2AF010C5822F0B5F9
:101F8000054690F8C83087B002FB030304A9186A1D
:101F900000F06EFFD5F8B00002A900F069FF9DF8CF
:101FA0001030012B4DD0334A3349032B08BF0A466A
:101FB0009DF81330314901939DF812303048009359
:101FC0009DF8113005F0F6F89DF80830012B3AD055
:101FD000284A2949032B08BF0A469DF80B30294C93
:101FE00001939DF80A302849009325489DF809304F
:101FF00005F0E0F8002627469DF81010207800F044
:1020000095FE60B39DF80810607800F08FFE30B345
:10201000A378042B03D09DF812209A421FD107EB1E
:102020008607FC78012C10D19DF80C2095F8C8305B
:102030009A4211D11549164805F0BCF8204607B060
:10204000F0BD144AB4E7134AC7E734B11249134B41
:10205000022C08BF1946EEE700241149EBE70136D0
:10206000042E04F10404C7D10E4805F0A3F80020A3
:10207000E5E700BF66B0010C6FB0010CA1B0010C28
:10208000AFB0010C61BA010CEDB0010C75B0010CE0
:10209000F5B0010C6AB0010C8FB0010C82B0010CDC
:1020A0007DB0010C07B1010C2DE9F04F1646044636
:1020B0008DB0B8480D4605F07DF831462046FFF753
:1020C00013FEB0F1FF3F824606D13146B2480DB053
:1020D000BDE8F04F05F06EB800230693582294F83F
:1020E000C830D4F8B080029302FB03435A6A00233D
:1020F000D8F80C10101D1F4650F83A303B44994256
:1021000003D3BAF1010AF6D21F462B680699013BA8
:102110008B4200F21F815826029B06FB0343D3F833
:102120002090DB6C03930AF1010352F833300493DF
:1021300013680593DDE90432A3EB020B029B3033F5
:1021400054F8230000F026FC0021024607902046A8
:10215000FFF716FE94F8C83007EB0B0106FB0343AC
:102160005A6A089052F8303012689B1A994240F22D
:10217000E880059BD9F80C6040461E44049BF61A83
:10218000079BF61A00F0D2FA864228BF06462B6853
:10219000012B40F0D880BB1B18BF0123AB712B79FA
:1021A000012B40F0D280002340461946D8F80C207D
:1021B00000F015FC2B68012B17D12A46414620461A
:1021C000FFF7C7FCAB7983B9494620460993FFF76F
:1021D000A7FC2A4649462046FFF7BBFC099B404620
:1021E0001946D8F80C2000F0FAFB00234246039968
:1021F000009320465B460196FFF7B4F82946204637
:10220000FFF77AF802232B7118B1644A136801337F
:1022100013602B68012B09D1204603990993FFF71E
:102220007FFCAA79099B002A40F09F803A4622B1A0
:1022300000235946039800F0D2FB5B464946039AB7
:102240002046CDE900B6FFF78DF829462046FFF776
:1022500053F803232B7118B1504A136801331360EC
:10226000AB7993B149462046FFF75AFC582294F8BF
:10227000C83002FB03435B6A059A1F68D71B049AA8
:10228000BF1A089A53F832301F442FB100233A4640
:102290005946484600F0A3FB00234A4641462046E3
:1022A000CDE900B6FFF75EF8AB7983B3404600F0A6
:1022B0003DFA94F8C8205E44303254F82220034698
:1022C0005200019241464A4620460096FFF74AF8DE
:1022D00018B1324A13680133136040460AA900F06E
:1022E000C7FD9DF82B30012B02D1484600F0B2FD0E
:1022F0009DF82910012903D04846029A00F022FED9
:102300004846A96800F060FA484600F04DFD0023F9
:10231000AE792946AB712046FEF7EEFF2B680133FC
:102320002B6001232B7118B11C4A13680133136011
:1023300086B1012300214046D8F80C2000F08EFB26
:1023400008E03E4623E7002328E7022B3FF461AF75
:10235000032B85D0069BBAF1FF3F03F101030693DF
:102360007FF4BCAE0DB0BDE8F08F1946079A204649
:10237000FFF706FD582294F8C830059902FB034385
:102380001B6D1A6853F830308A1A0499521A1A448D
:102390004DE700BF1BB1010C44B1010CE425043032
:1023A000D0F8B0302DE9F0475821D3F80C90002335
:1023B00090F8C8E0044601FB0E019C4618461E46F4
:1023C000D1F82880D1F854A01D461A46C44526D31A
:1023D000504524D30EF1300E54F82E0000F0DAFAF6
:1023E000002105460246371A2046FFF7E1FC2A463F
:1023F000804601212046FFF7DBFC94F8C830AD1B76
:10240000303380452CBF45442D1854F8230000F08C
:10241000C6FA85422CBF0020401B381A21E0AA4290
:1024200013D14F6A07EBCC077F680CF1010C3A44DB
:102430000F6D07EBC0077F6801303D44AA42C5D14C
:102440004A4516441DD9104808E010D24F6A022BA5
:1024500007EBCC077F683A4405D10C4804F0AAFE8C
:102460000020BDE8F08701230CF1010CE6E70F6DB9
:10247000012B07EBC0077F683D44EED002230130FB
:10248000DCE70023A0E700BF06B0010CD2AF010CCF
:102490002DE9F04304460D4690461F4685B0002BBB
:1024A00042D01846FEF7CCFE00283DD194F8C81063
:1024B000204600F04BF903A9814600F077F9064663
:1024C0004846FDF7EBFE002E5ED14FF0580994F818
:1024D000C830039909FB03435A6D2C4800929B6A4C
:1024E0003A6804F067FE20460399FFF7FDFB431CA2
:1024F00016D03146D4F8B030DA6894F8C83009FB09
:1025000003435B6A0433002653F830C06644B2428A
:1025100001D30138F8D2461C01F10101F3D131B9E0
:1025200003991B4804F046FE022D07D117E03B68D3
:102530005A1E8A420CD3B5FA85F56D09582294F8D3
:10254000C83053432C2202FB05331C44206A08E0A8
:102550008B42E9D1012D0FD13B79012BEED9D4F873
:10256000B000202342460021FDF79AFE003818BF34
:10257000012005B0BDE8F083002DD5D13D79022DB5
:1025800094BF00250125D9E70120F2E766B1010CCF
:10259000B0AE010C2DE9F7430E46174699460446A6
:1025A00028B94FF0FF38404603B0BDE8F08300295A
:1025B000F7D0002AF5D0CB680D8938461D44042396
:1025C00029460DEB0302FDF76BFE80460028E8D19B
:1025D00046F60812BDF804107389914223D1BDF864
:1025E00006109942DDD1042338460DEB030229443D
:1025F000FDF756FE0028D4D146F60713BDF8042097
:102600009A42CED19DF82830C4E90067A4F808901A
:10261000A3727389BDF806202B44E360043513448C
:1026200063612561BFE7002BE6D0BAE72DE9F743E8
:102630000F4690461E46044620B94FF0FF3003B0C7
:10264000BDE8F0830368002BF7D04368002BF4D07B
:102650004FF6FF79D4E90413994215D223685B89B8
:1026600023B1E3688B4204BF043121610423606815
:102670000DEB0302FDF714FE0028DED1A37A2569D5
:1026800023B1E368AB4201D80120D8E72189BDF826
:102690000620494502F1040303D0BDF804C08C456F
:1026A0000BD116B1BDF80410318004353D60A8F897
:1026B000002022691A442261C1E72B442361C9E743
:1026C00038B50023934201D1064B04E0C55CCC5CD5
:1026D000A54205D0044B1C68FEF734FD204638BDEA
:1026E0000133EFE7100004300C0004300B78052BA9
:1026F00006D088B1012808D1022B03D004220EE0B5
:10270000032070474FF4E1707047FF2B0CBF4FF46C
:10271000E1704FF0FF307047012BF3D0032293425A
:102720000CBF4FF4E1704FF0FF30704710B5044616
:10273000FDF74FFF2378052B04D100F030F9E36853
:10274000181A10BD00F026F9F9E7000070B5D0F8AE
:10275000B03086B0009358236E46002503FB01007D
:10276000036A019356F8044B02AAE168102320463D
:102770001039FDF795FD024638B12178094804F07B
:1027800019FD0024204606B070BD1022064902A89B
:10279000FDF72BFF0028F5D06B1C022B4FF0010535
:1027A000F0D0DFE79BB1010C92BA010C70B50D4679
:1027B000044600F0B5FA2A46A0F110010423204691
:1027C000BDE87040FDF76CBD13B50446019100F003
:1027D000A7FA0423A0F110010DEB0302204600F03C
:1027E00003FB02B010BDFFF7DBBD2DE9F347174631
:1027F0002C224FF0580802FB01F690F8C83004462E
:1028000008FB03630344D3F82090B3F808A0DB6807
:1028100048469A44042351460DEB0302FDF740FD60
:10282000054620B10125284602B0BDE8F08794F89E
:10283000C830BDF8042008FB036646F6081334448C
:102840009A4264891BD1BDF806309C4201D0032511
:10285000E9E7042348460DEB030204EB0A01FDF708
:102860001FFD0028DED146F60713BDF804209A426A
:10287000EDD1BDF80610214451443960D3E7002C56
:10288000F1D0E4E737B596230546019395F8C830B3
:102890000846EBB1012B0BD102290BD004221AE020
:1028A000052803D1D5F8B420B83509E001200DE0A2
:1028B000FF29F5D158225343EA18526A28331D44A0
:1028C00001A9FEF729F908B9019B2B6003B030BDBF
:1028D0000129EFD003228242E2D1582202FB0352A7
:1028E0005C4204F058045434126D2544E8E70000BB
:1028F000F8B5274B0446002914BF0A461A464FF480
:102900009663582190F8C8506B4301FB0501D0181D
:1029100003F51663134402F5965248620B65C4F83A
:10292000B42055B1012D14BFFF2102212046FFF72D
:10293000A9FF20B101252846F8BD0121F6E71DB306
:10294000012D14BFFF2104212046FFF79BFFE8B9AA
:1029500005212046FFF796FF05460028EAD15823B7
:1029600094F8C86003FB0643186AFDF732FE074679
:10297000D4F8B000FDF72DFE303687422CBF44F866
:10298000267044F82600D6E70321DDE70925D2E7C3
:10299000E82504304FF4E17358435030704700EBA2
:1029A00040005030704773B50C4605461646FDF79B
:1029B00010FEA04203D92846FDF70BFE04464FF453
:1029C000E173E9686A46503903FB14112846FEF7A3
:1029D0008BF80028A4BF009B336002B070BD2DE9C6
:1029E000F3411E46C368054699420C46174630D24D
:1029F0005B1A93422DD3EEB16A46FEF775F80028B4
:102A000029DB013FDDF800803C446A462146284628
:102A1000FEF76AF800281EDBDDE9004728463A4643
:102A20002146FDF7B5FD002815DB6EB1444512D9EE
:102A3000013CEAE7511E21446A46FEF755F800289A
:102A400009DBDDF80080E0E73C44444503D801346D
:102A5000DBE74FF0FF3002B0BDE8F08110B412B1F7
:102A600010BCFFF7BCBF104610BC70470023C26803
:102A70001946FFF7F3BF582290F8C83053432C2271
:102A800002FB0133C1180422086A00F05DB900009E
:102A9000582290F8C83053432C2202FB01310E4BD0
:102AA00042184158994206D1D16813895B1802D265
:102AB0005189C91801D300207047136ADB68994215
:102AC000F9D2106920F4F97020F001000005000D22
:102AD000B0FA80F0400970473DB8F3962DE9F04117
:102AE00016464FF0580890F8C8200F46334600218C
:102AF00008FB02020446FFF7CBFC054668B994F8D0
:102B0000C820334608FB0242012120462C32FFF741
:102B1000BFFC10B1002F18BF05462846BDE8F08164
:102B20005823F0B590F8C84085B05C432C2303FBD4
:102B3000024404440546276AFEF7FCFA0023CDE967
:102B4000023301934FF48073214606463A460093C0
:102B50002846064B00F088FA04463046FEF70EFB86
:102B6000FEF7F0FA204605B0F0BD00BF583D043036
:102B700002780B789A420FD80BD342784B789A425E
:102B80000AD806D342884B889A4205D860EB0000E9
:102B900070474FF0FF3070470120704737B5582518
:102BA0000B46114690F8C82004466A432C2505FBC5
:102BB00003220244126A01AB00F0F6FB20B901992E
:102BC00094F8C800FDF7A0FD03B030BD2DE9F04139
:102BD0002C264FF0580804464E4390F8C8000F4684
:102BE00008FB006121440A6AFEF752FA054628B143
:102BF0000C4804F0DFFA2846BDE8F08194F8C830AC
:102C000008FB03663444256AFEF716FB2946034693
:102C10003A462046FDF786FD05460028EBD00248DF
:102C2000E7E700BFC4B1010CEEB1010C38B50446B2
:102C3000D0F8B00008B1FDF731FB00235825012B77
:102C400084F8C83000D938BDE21892F8C9206AB9B2
:102C500005FB0343D86C08B1FDF720FB94F8C8309E
:102C600005FB0343186A08B1FDF718FB94F8C83058
:102C70000133DBB2E3E700002DE9F7430546002608
:102C80004FF05809012E85F8C8600BD9052005F1D1
:102C9000B001FDF7E7FA044690B301461E4804F080
:102CA00089FA2AE0AB1993F8C980B8F1000F2DD149
:102CB00041463046FDF7F8FE95F8C810074609FB77
:102CC0000151C0B22031FDF7CDFA0446E0B901212F
:102CD0003046FDF7E9FE95F8C810074609FB01519B
:102CE000C0B24C31FDF7BEFA044678B1012332463A
:102CF00039460A48009404F05DFA2846FFF796FF2B
:102D0000204603B0BDE8F0834346F0E795F8C8607D
:102D10000136F6B2B6E700BF54B2010C1AB2010C8C
:102D2000C068203820F00F0020387047042809D0F0
:102D3000052803D1481E18BF01207047431A584286
:102D4000584170470120704738B515460C4661B1AF
:102D50005AB1FDF7C3FE2146254411F8013B8342D9
:102D600003D1A942F9D1012038BD0020FCE738B5D4
:102D70000C460123114622460546FDF791FA00282C
:102D80000FDB012221462846FFF7DEFF18B103239F
:102D90000020237038BD2378012B14BF02230123A8
:102DA000F6E70120F6E7000030B5C16885B01039BC
:102DB00021F00F040546FDF791FE102201466846FA
:102DC000FDF723FC102268460649FDF741FC10235D
:102DD0006A4621462846FDF70DFB003818BF012042
:102DE00005B030BD92BA010C2DE9FF471D460646DD
:102DF0000F469046FDF7EDFB6C1E04444042044034
:102E0000102C1AD83046FDF769FE82462A46414604
:102E10006846FDF71DFC5146621B0DEB0500FDF7F2
:102E2000F4FB23466A4639463046FDF7E3FA00389C
:102E300018BF012004B0BDE8F0874FF0FF30F9E77C
:102E400007B501238DF8042001AAFFF7CDFF03B0D9
:102E50005DF804FBC1680122203921F00F01FFF762
:102E6000EFBFC268203A22F00F02FFF780BF0000D8
:102E700030B50D46C16887B0102302AA1039044648
:102E8000FDF70EFA002802DA012007B030BD10224B
:102E9000204602A9FFF758FF00283AD110221E4908
:102EA00002A8FDF7A2FB00280CBF012302232B7010
:102EB0002046FFF735FF012301460DF107022046AA
:102EC000FDF7EEF90028DFDB9DF80730204603F020
:102ED0000F021B096A702B7101220DF10701FFF728
:102EE00033FF10B96B78042B03D901236B700023D7
:102EF0002B71E2682046203A22F00F02103AA91CFA
:102F0000FFF735FF0028BFD12046E91CFFF7A9FFD6
:102F1000BBE70323CBE700BF92BA010C13B50C4605
:102F2000C0B201A9FDF79EF950B921460198FFF7FB
:102F30009FFF04460198FDF7B1F9204602B010BD8D
:102F40000124FAE713B541EA021104468DF807108F
:102F5000FFF7E6FE012301460DF107022046FFF7C9
:102F600043FF02B010BD0000F0B5044685B050B17B
:102F7000012814BFFF2002206946FFF7CFFF20B1D0
:102F8000FF2005B0F0BD0120F6E7002C41D0012C58
:102F900014BFFF20042002A9FFF7C0FF012808D1B9
:102FA0002146264804F006F9254B029300238DF8AC
:102FB0000C3000229DF800609DF80870214D3146CC
:102FC0002878FFF7B3FE50B339466878FFF7AEFEB6
:102FD00028B3AB78042B03D09DF8031099421ED17F
:102FE000EB78042B03D09DF80B10994217D12B7965
:102FF000042B10D16B79023BDBB2022B1AD9124A97
:103000001248214604F0D6F86879831E022BB8D9FD
:10301000B6E70320BFE79DF802109942EAD00132DB
:10302000032A05F10605CAD10948214604F0C2F871
:103030000120A6E7074A52F82320E1E77CB2010C01
:103040000301030380BA010C8FB0010CC3B2010C61
:10305000E4B2010C74BA010CC1680122203921F0DC
:103060000F011039FFF7ECBE2DE9F04FDFB00E462F
:10307000144605466B9F002840D090F8C820059262
:103080006FF000410022DFF8C481CDE908126A9A8E
:10309000D8F800900392699A0DF1400A0292689A5A
:1030A0003146009228462246CDF804A000F02CF9C3
:1030B00000285BD127B1202251463846FDF7C8FAD7
:1030C00000230AAF009322464FF6FF73314638467D
:1030D000FFF760FA8246002848D1214628460F9E15
:1030E000FFF781FBB04246D221462846FFF77BFB23
:1030F00031460246564804F05DF837E00590BFE7D8
:103100004FF0010A06AF0DF11C0B3A4659460DF17E
:103110001A030AA8FFF78AFA002827DB40F0888004
:10312000BDF81A30222B63D029D8022B4ED0102B99
:10313000E8D1B7F800A0BAF1200F17D153462046C6
:10314000DBF8001018AAFDF7ABF878B9FDF7F2FF2D
:103150005246074618A910A8FFF7B2FA8246384629
:10316000FEF70CF83B4B1B685345C9D0D8F80060FC
:1031700065E09946C6E74E464FF0FF35C2E7502B53
:10318000C0D13B88042BF1D12046DBF8001009AAFE
:10319000FDF786F80028E9D1FDF7CCFF08A907461E
:1031A0000598FDF78BFA83463846FDF7E7FF294B74
:1031B000D3F80090D945D9D1DDE908218A42A1D9B7
:1031C000D8F800309945D4D0234894E73B88982B11
:1031D000CCD82046DBF8001038AAFDF761F80028AB
:1031E000C4D13A88059838A900F03AF8054689E72D
:1031F000002DC1DB194B1B68AB42BDDD3B88802B2A
:10320000B4D82046DBF8001018AAFDF749F80028CA
:10321000ACD1FDF78FFF0095834620213B8818AA8B
:1032200010A800F0F7F806465846FDF7A7FFA3E7F9
:10323000BAF1010F9AD1074B1B684B4596D1FDF7A8
:1032400081FF30465FB0BDE8F08F00BF0C00043056
:1032500018B3010C100004303FB3010CF0B8010C9E
:103260002DE9F0414FF020080E461546C2B0044645
:103270007022002126A8CDF80480FDF7C6F970223F
:1032800026A90AA8FDF7E4F91B490AA800F074F979
:103290002A4631460AA800F08AF90023424602A9CC
:1032A00026930AA826AB00F09EF901AF0AA800F009
:1032B00049F920463A4626A9FDF774FC044628B190
:1032C0004FF0FF34204642B0BDE8F081FDF732FFF9
:1032D0003A68804626A902A8FFF7F2F90746404659
:1032E000FDF74CFF054B1B68BB42E9D1044B1E6048
:1032F000044B1D60E6E700BF090000021000043027
:1033000000000430EC2004302DE9F0479246702292
:10331000B8B00DEB02000C46DDE94257002199469A
:10332000409EFDF772F9702268460DEB0201FDF731
:103330008FF968461B4900F01FF935B1002F04DDF5
:103340003A462946684600F032F900256389228909
:10335000D4F80C8013449844454508D30024202217
:10336000684641991CAB1C9400F03DF90CE0A8EBB9
:103370000507B74228BF37464A463B4629465046CE
:10338000FCF78EFF044630B1684600F0DBF82046BB
:1033900038B0BDE8F0873A464946684600F007F97C
:1033A0003D44D9E70900000270B514461D468AB0B5
:1033B00058B390F8C83042B33DB3582673432C2617
:1033C00006FB013101444B8913B903200AB070BDDB
:1033D000012304A800935023FFF7DCF80028F5D15F
:1033E00003460DF10A0203A904A8FFF71FF970B9FB
:1033F000BDF80A30042BE8D12A4620460399FCF791
:103400004FFF003818BF0120E0E70720DEE74FF04C
:10341000FF30DBE72DE9F047894600219EB0414BA4
:103420001646269ADFF800A153F8324006AF18225C
:1034300080463846CDE903110591DAF80050FDF7D2
:10344000E4F809223949201DFDF7CFF8002854D1AE
:103450000A22374904F10D00FDF7C7F800284CD1C6
:1034600020224FF42050334BCDE90423E378073377
:10347000E118314B11F8022CCDE9080344F2121384
:103480003846ADF81830013A03AB00F0CFF80146EA
:10349000002832D160223846FDF7B7F8F578049C51
:1034A0000436AC4233D82B1B1E44224631463846E4
:1034B000FDF7CEF805F0FE0573195A7802359442EF
:1034C0009ABF131B2246C2EB440406EB05019ABFC8
:1034D000C918B8183819FDF7BBF8049B9DF81410EB
:1034E0005B00CDE9007342464B46039841F006214C
:1034F00000F0EEF890B9114B1D68039808B100F088
:10350000C3F8FDF71FFE28461EB0BDE8F087601B1C
:103510002A4631463844FDF79BF8CDE7DAF80050EB
:10352000EBE700BF000004300C000430ACBA010C23
:10353000A2BA010C090000020906000610000430BE
:103540000020704770B50546FDF7F4FD2C6806466F
:1035500034B9FDF7F7FD3046FDF710FE204670BD8B
:10356000012C06D1281D00F089FA044600232B60A7
:10357000EFE76FF08804F9E7F8B505460C46FDF76C
:10358000D9FD2F1D6C22002106463846FDF73DF877
:103590002146384600F084FA044608B901232B601E
:1035A000FDF7D0FD3046FDF7E9FD2046F8BDF8B542
:1035B00005460F461446FDF7BDFD064634B9FDF736
:1035C000C1FD3046FDF7DAFD2046F8BD2B68012B22
:1035D00006D122463946281D00F08EFA0446EEE751
:1035E0006FF08804EBE72DE9F04104460F46904662
:1035F0001D46FDF79FFD00232B6023680646012B27
:1036000011D12B4642463946201D00F087FA054667
:103610002046FFF797FFFDF795FD3046FDF7AEFD1D
:103620002846BDE8F0816FF08805F1E770B51E46C9
:10363000038803F44F44B4F5824F17D1551E6D082B
:10364000ED00104CC4E900120146182204F10800F4
:10365000FCF7FEFF0123226A6581013242F000423D
:1036600022620020326084F8243070BD03F4E0430D
:10367000B3F5805F02D0B3F5005F01D1D500E0E77C
:103680000025DEE7583E0430F0B5002887B004DBA3
:10369000442200210C48FCF7B8FF00266C460B4F73
:1036A00031461822684607F10805C7E90066FCF7AD
:1036B000ACFF0FCC0FC594E8030085E8030030464B
:1036C00087F8246007B0F0BD803E0430583E0430D7
:1036D00030B5002885B02ADA1648C468240A26D1F5
:1036E000048904F44F45B5F5824F1CD121F4FF75D0
:1036F00025F00105B5F1062F19D1E4B2122C12D133
:103700004489B4F5807F0ED1099C00920394089CF3
:10371000CDE901340B46426850F8081B00F0A4FEC6
:1037200010F1860F01D16FF0850005B030BD6FF04C
:103730008600FAE7583E04307047002818BF6FF043
:103740008300704710B514461846FCF781FF039BB1
:1037500000201C6010BD000010B50A46044619B1D7
:10376000024B00211B68984710BD00BFB8BA010C7E
:1037700001680E4A0346914215D1C169A2F1102297
:10378000A2F1EF1291420ED18268012A0BD8C268D1
:1037900012B101698A4206D0586928B19B691B1A87
:1037A0005842584170470120704700BF55AA00FF9A
:1037B0000E4B70B59E68B6B13046FFF7D9FF044690
:1037C00018B9F3687BB935690DB9204670BD284634
:1037D000FFF7CEFF28B9EB68B34204D12E462D691E
:1037E000F2E70446F1E70124EFE700BFC43E0430EE
:1037F0002DE9F843404E3468D4B1B468C4B1002810
:1038000077D0002975D001FB00F5B5FBF0F08842B8
:103810006FD1281D6DD8A9070DD025F003070437F7
:10382000F46803E06368BB4207D2A469002CF9D1B5
:103830002046BDE8F8832F46F2E7A3681BB12F4B63
:1038400001201B689847D4E90520616804F120082D
:10385000C91B23291CD80123A360BAB19061A369B5
:1038600003B15A610023C4E905333369DA0706D589
:10387000FFF79EFF18B10120204B1B6898472A468E
:10388000002140464446FCF7C0FED1E7F060E6E781
:1038900007F1200C04EB0C03203959600021DFF8FC
:1038A00060E0C3E902142169196144F80CE0DFF813
:1038B00054C0C3F81CC001B1CB60C3E90520B2B14C
:1038C00093619A6902B15361236100234FF00109AA
:1038D000C4E905333369C4E90179DB07CFD5FFF7C4
:1038E00067FF0028CBD0054B48461B68C6E7F3604E
:1038F000E7E700249CE700BFC43E04301400043016
:1039000055AA00FF669911EE2DE9F0410546002801
:103910007CD03F4F3B68002B78D0BA68002A75D026
:10392000834203D87A681344984203D3394B012069
:103930001B689847A5F120042046FFF719FF18B12E
:10394000344B01201B68984755F8183C012B03D0D5
:10395000304B01201B689847002355F8146C45F83C
:10396000183CAEB1B26892B955F81C3C03F1200284
:1039700073681344736055F8103C336103B1DE6023
:10398000204620220021FCF740FE234634461E46F6
:103990002069002832D08368002B2FD163684268E9
:1039A0002033134463600369D4E905212361DAB944
:1039B00001BB426981696261A161EAB19461A26956
:1039C00002B1546103B1DC6020220021FCF71DFE2E
:1039D0003B699B071AD5FFF7EBFEB8B1BDE8F04194
:1039E0000C4B01201B6818479161A1690029E0D0A8
:1039F0004A61DEE7F960F8E7FC60E0E7002EE7D116
:103A0000FB68A36103B15C61FC60E1E7BDE8F081A4
:103A1000C43E04301400043038B50D461422002191
:103A200004461248FCF7F1FD1149124801F07CF9F7
:103A3000232D1AD914F003031FBF043DED18C3F161
:103A40000403E4182A4600212046FCF7DEFD074B5C
:103A5000094AC3E900459C602260A2F11022203D82
:103A6000A2F1EF126560E261DC6038BDC43E043053
:103A70000939010CF137010C55AA00FF036810B594
:103A800004462BB1054A934205D1043000F0DEFB19
:103A90000020206010BD6FF08800FBE709000002E5
:103AA000F8B5076805460C4607BB124B994213D17F
:103AB000061D304600F0C6FB3046394600F0CCFB10
:103AC000064628B92C603046BDE8F840FFF735BE01
:103AD0002846FFF7D3FFF6E701F0FE44B4F1007F7C
:103AE00014BF6FF086006FF08500F8BD6FF088009E
:103AF000FBE700BF0900000210B5074B04689C42B9
:103B000006D1043000F0D6FBBDE81040FFF715BE2B
:103B10006FF0880010BD00BF090000022DE9F041E0
:103B20001F460478064644F0007404F17E44033CCA
:103B3000102C98BF104B884615468CBF00241C5D86
:103B40003A601AB121214046FCF75FFDAC420DD826
:103B500032680A4B9A420CD14146301D00F0EAFB14
:103B6000FFF7EBFD00B93C60BDE8F0816FF0890024
:103B7000FAE76FF08800F7E7BCBA010C0900000211
:103B80002DE9F04F0D46D5B000F1440304934BAB43
:103B9000059300F164030693DDE9043253F8041F32
:103BA00042F8041F06999942F8D100240BAE09AFE0
:103BB000291904223846FCF74BFD3B6804341BBA34
:103BC000402C46F8043FF3D197490DF1280A554699
:103BD000DDE951EBDDE94C76DDE94E328C46DDF86E
:103BE0004C81DDF840910191A868DCF800104FEAA3
:103BF000F92484EAB91401448BEA0E0084EA79645A
:103C000000EA090080EA0B002144014441444FEAE4
:103C1000773888EAB70888EAB7580A44884447EAF8
:103C2000060107EA0600194001438844E868DCF809
:103C300004104FEA7834014489EA0E00104080EA0B
:103C40000E00594401444FEAF22080EAB21080EAA3
:103C5000726084EAB804014484EAB8540B440C440A
:103C600048EA070108EA0700314001430C4428698B
:103C7000DCF808102035014482EA0900184080EA87
:103C80000900714401444FEAF32080EAB31080EA4E
:103C9000736001444FEA743080EAB40080EAB450A3
:103CA00001EB060E084448EA040108EA040639401C
:103CB0003143084455F80C6CDCF80C100CF1200C66
:103CC0000E444E4482EA030909EA0E094FEAFE2136
:103CD00089EA020981EABE1181EA7E614E440E44FE
:103CE0004FEA703181EAB00181EAB05106EB070971
:103CF000314444EA000604EA000706EA08063E43A7
:103D0000314455F8087C5CF8106C3E44164483EA54
:103D10000E0202EA09025A4016444FEAF92282EAE8
:103D2000B91282EA796216444FEA713282EAB1022C
:103D300082EAB152B044324440EA010600EA010787
:103D400026403E43324455F8047C5CF80C6C3E44FB
:103D50001E448EEA090303EA080383EA0E031E44A5
:103D60004FEAF82383EAB81383EA78631E444FEAE4
:103D7000723383EAB20304EB060B83EAB25341EADF
:103D800002043344044001EA0206344323442E680B
:103D90005CF8084C344489EA080606EA0B0686EA11
:103DA0000906744434444FEAFB2686EABB1686EAC9
:103DB0007B66344400EB040E4FEA733080EAB300B4
:103DC00080EAB350204442EA03040C4002EA0306AE
:103DD000344306196C685CF8040C204488EA0B0430
:103DE00004EA0E04484484EA080420444FEAFE240E
:103DF00084EABE1484EA7E64204401EB00094FEAA1
:103E0000763181EAB60181EAB651014443EA0600FF
:103E1000104003EA060420430F181AA9A9427FF4B0
:103E2000E3AE3AA9079101E0D0BA010CDAF84010EC
:103E3000DAF80C404FEAF14585EA7145DAF80800F6
:103E400085EA9125DAF82C100AF1200A01444FEA9C
:103E5000B44080EAF41080EAD4002944014403917C
:103E60008BEA0E004FEAF92181EAB91100EA090054
:103E700081EA796180EA0B000844019907EA0605A6
:103E8000096C084403990844404402440292CAF869
:103E9000281047EA06024FEA773181EAB7011A4053
:103EA0002A4381EAB7511144DAF8242001444FEA49
:103EB000F24585EA72455AF8100C85EA9225DAF83F
:103EC0001020DDF808C014444FEAB04282EAF01234
:103ED00082EAD0022C441444029A89EA0E05154065
:103EE000019A85EA0E05526CCAF82C405A442244C5
:103EF0001544029A4FEAF22282EABC1282EA7C62FC
:103F00002A4403EB020B47EA01054FEA713307EA43
:103F1000010C83EAB103354045EA0C0583EAB1534D
:103F20002B441344039A5AF80CCC4FEAF24585EA25
:103F3000724585EA9225DAF8142000EB02084FEA70
:103F4000BC4282EAFC1282EADC02A8449044029A53
:103F50004FEA733589EA0200019A00EA0B00926C7D
:103F600080EA09007244424410444FEAFB2282EA8C
:103F7000BB1282EA7B62024441EA030006EB020EB6
:103F800085EAB30501EA03063840304385EAB355B4
:103F9000054415445AF8086CDAF818204FEAF44042
:103FA00080EA744080EA94200CEB02044FEAB642A7
:103FB00082EAF61282EAD60204441444029A03EA20
:103FC000050C82EA0B0000EA0E005040019ACAF884
:103FD0003080D26CCAF834404A44224410444FEA3C
:103FE000FE2282EABE1282EA7E62024407EB0209E6
:103FF0004FEA753043EA050780EAB5000F4047EA0B
:104000000C0780EAB550384410445AF8047CDAF8BA
:104010001C204FEAF84C8CEA784C16444FEAB74221
:104020008CEA982C82EAF71282EAD7026644164498
:10403000019ADDF808C0126DCAF838603244624453
:104040008BEA0E0C0CEA090C8CEA0B0C62444FEA6A
:10405000F92C8CEAB91C8CEA796C94444FEA7032E2
:1040600082EAB00201EB0C0882EAB05245EA000194
:104070000292194005EA00021143029A0A444FEAEB
:10408000F44181EA744181EA9421DAF820406244E3
:10409000DAF800C03C440C444FEABC4181EAFC1110
:1040A00081EADC010C4401998EEA0907496D07EAAF
:1040B00008072144594487EA0E070F444FEAF821C4
:1040C00081EAB81181EA7861394403EB010B4FEAC8
:1040D000723383EAB20383EAB25340EA02070293DF
:1040E0002F4000EA02031F43029BCAF83C403B44B6
:1040F0000B444FEAF64181EA764181EA9621DAF8EB
:104100002460DAF80470664431444FEAB74686EA20
:10411000F71686EAD706314402910199DDF808C006
:10412000896D89EA0806614406EA0B06714486EA4D
:1041300009060E444FEAFB2181EABB1181EA7B614B
:10414000314405EB010E42EA03064FEA7335CAF823
:1041500040C0064002EA030C85EAB30546EA0C06B5
:1041600085EAB35535446E18DAF80810039D4FEA16
:10417000F44C3D444FEAB14787EAF11787EAD1078B
:104180008CEA744C01998CEA942C6544C96D3D44C9
:1041900088EA0B0707EA0E072944494487EA08071B
:1041A0000F444FEAFE2181EABE1181EA7E61394463
:1041B00043EA060703EA0609174047EA090700EB46
:1041C000010901984FEA763C20308CEAB60C019048
:1041D00007988CEAB65CCAF84450BC44504501EBE1
:1041E0000C077FF423AE0AA8C0F81031C0E9001C08
:1041F000029BC0F82481C0F80031C0F81421C0F837
:10420000FC40C0F820B1C0F81CE1C0F80C61C0F857
:104210000451C0F81891C0F80871049A059952F831
:10422000043F049251F8042F1344049A059113603B
:10423000069B9342F1D14FF49471FFF78DFA55B07C
:10424000BDE8F08F68220021FCF7DFB910B16821CA
:10425000FFF782BA7047000003460846C1B9C3E9B8
:1042600010110D4A0D49DFF838C0C3E912120D4A8A
:104270000D49C3E914C20D4AC3E916120C4A1A6665
:1042800002F17452A2F52302A2F692425A667047D6
:104290006FF08600704700BF85AE67BB67E6096AAE
:1042A00072F36E3C3AF54FA57F520E518C68059B18
:1042B000ABD9831F2DE9F04105460E46144612B3D3
:1042C000036C03F03F079B18036422BF436C013368
:1042D00043647FB1C7F1400842450FD3424638449A
:1042E000FCF7B6F929462846FFF74AFC274446441E
:1042F000A7F140043F2C09D82CB1002722463146B3
:10430000E819FCF7A5F90020BDE8F081374606EB77
:104310000408394628464037FFF732FCA8EB07036C
:104320003F2BF6D8A4F1400323F03F0340331E4453
:10433000E41ADFE773B50D468021036C044603F0F1
:104340003F035A1C382AC154104474D80021C2F1CA
:104350003802FCF75AF9D4E91062730F43EAC2033A
:1043600004221BBA0DEB020104F138000193FCF7A3
:104370006FF90422F6000DEB020136BA04F13C009D
:104380000196FCF765F921462046FFF7F9FB042268
:10439000A36C0DEB02011BBA28460193FCF758F9F8
:1043A0000422E36C0DEB02011BBAA8180193FCF781
:1043B0004FF90422236D0DEB02011BBA05F1080031
:1043C0000193FCF745F90422636D0DEB02011BBA62
:1043D00005F10C000193FCF73BF90422A36D0DEBF2
:1043E00002011BBA05F110000193FCF731F9042218
:1043F000E36D0DEB02011BBA05F114000193FCF70C
:1044000027F90422236E0DEB02011BBA05F11800F7
:104410000193FCF71DF90422636E0DEB02011BBA38
:1044200005F11C000193FCF713F92046FFF70EFF7E
:10443000002002B070BDC2F140020021FCF7E5F897
:1044400021462046FFF79CFB38220021204680E7CA
:10445000043004289ABF034B33F910006FF0830037
:10446000704700BFD0BB010C4123F0B595B00DF1F2
:10447000080CCDE9003CDDE91A56DDE91C47029342
:1044800003ABFFF75FF998B99DF80C30042B0DD101
:10449000402F0FD133462A4620460DF10D0100F082
:1044A0008DFB15B0BDE8F040FFF7D2BF6FF086007E
:1044B00015B0F0BD6FF09400FAE70022016000F142
:1044C0001C0340F8042F9842FBD17047F0B500243C
:1044D00005462646204652F8247051F82430DB1950
:1044E00046EB06071B1845F8243004F1010447F198
:1044F0000000082CEFD1F0BD002370B50646184629
:1045000052F8235051F82340641B65EB0505241A2B
:1045100046F8234003F1010365F10005082BC5F1BE
:104520000000EDD170BD70B504395642041F013A48
:104530001C3054F8043F51F8045F134035402B43BE
:1045400084422360F5D170BD002330B5044618467F
:1045500054F8232051F8235001336A40082B40EAD5
:104560000200F5D130BD021F00F11C03002052F8FB
:10457000041F9A4240EA0100F9D170472DE9F04743
:10458000002506468946AA46171FA0F1040C02F131
:104590001C0857F8043F5CF804EF4C46200C1A0C3A
:1045A000A4B29BB21100414362435C4343431804ED
:1045B0001B0C24184B411004120C24185341704654
:1045C0000022241853416419534147451D46CCF835
:1045D0000040DED1336A5A195B1932624AEB0A0095
:1045E000BDE8F08710B50438A1F120024B7F0C7FA5
:1045F0001B0443EA0463CC7F0439234391F822402F
:104600008A4243EA042340F8043FEFD110BD70B55D
:1046100088B01E460446FFF759FF3246054621463C
:104620006846FFF769FFC0F10102694620462A4348
:10463000FFF779FF08B070BD2DE9F04F9846D3F829
:1046400040A00023074618468BB0914601AA0133CB
:10465000092B42F8040BFAD1A1F1040B01F11C065D
:10466000D9F800305BF8041F019D4A4601A803FBFE
:104670000155FFF783FF0AFB05F50446424629462C
:1046800001A8FFF77BFF0823044401AA5168013BFE
:1046900042F8041BFAD1B3450994E1D1424601A97D
:1046A0003846FFF729FFC0F1010222433846C2F124
:1046B0000102FFF738FF0BB0BDE8F08F014BFFF7A9
:1046C000BBBF00BF80BC010C0B4601F120020146BC
:1046D000FFF7B2BF30B504460D4689B068460121E8
:1046E000FFF7EBFE2B466A4621462046FFF7A4FF64
:1046F00009B030BD38B504461546FFF7DEFE294641
:104700002046BDE83840FFF7DFBF2DE9F0431446EF
:104710000646274689B001226846FFF704FF224675
:1047200001213046FFF7E6FF256804F11C09023D30
:104730004FF02008EB0705D523466A463146304640
:10474000FFF77AFF23466A4669466846FFF774FF1B
:10475000B8F101084FEA5505ECD14F4502D057F8A2
:10476000045FE5E709B0BDE8F083000070B51446CA
:1047700006460D4688B0214620460C4AFFF7C5FF85
:10478000224621466846FFF799FF6A463146304681
:10479000FFF794FF224669466846FFF78FFF6A4697
:1047A00029462846FFF78AFF08B070BD80BC010C7F
:1047B00030B5044689B0FFF715FF0C4A214668461C
:1047C000FFF79AFE054601216846FFF776FE6A4626
:1047D00021466846FFF790FE2DB1003818BF012032
:1047E000404209B030BD4FF0FF30FAE73CBC010C4D
:1047F00010B588B004460146054A6846FFF77CFEBE
:104800006946C0F101022046FFF78DFE08B010BDD9
:104810003CBC010C70B51F2A04460B4688B00FD86B
:1048200000206D46694606460130202805F8016BD8
:10483000FAD1C2F11F0008441A4493420CD1204619
:10484000FFF7D0FE2046FFF7D3FF2046054908B00A
:10485000BDE87040FFF738BF13F8015B00F8015F57
:10486000EBE700BF3CBC010C30B589B00446FFF754
:1048700043FE054621466846044AFFF727FE2A46BE
:1048800069462046FFF74FFE09B030BD80BC010CE1
:10489000F0B516461F4604460D4699B011466846C7
:1048A000FFF70CFF3246694608A8FFF707FF3A46B4
:1048B00069466846FFF702FF08A908461E9AFFF7F7
:1048C000FDFE224669466846FFF7CEFF08A92A4644
:1048D0000846FFF7C9FF6A4631463046FFF7EEFE4D
:1048E0006A46694610A8FFF7E9FE6A46684610A9BD
:1048F000FFF7E4FE10A922460846FFF7DFFE08AAEC
:1049000011462046FFF7DAFE2146204610AAFFF79F
:10491000ABFF2146204610AAFFF7A6FF6A462146B4
:104920002046FFF7A1FF10A922460846FFF79CFF8B
:1049300010A9084608AAFFF7C1FE2A46694668463C
:10494000FFF7BCFE6A46284610A9FFF78DFF19B095
:10495000F0BD000070B5044690B00D4611461646F5
:10496000FFF740FE2146234A08A8FFF7C5FD0128AE
:1049700003D04FF0FF3010B070BD11462046FFF756
:10498000A3FE284606F12001FFF72CFE2946194A0E
:1049900008A8FFF7B1FD0128EBD111462846FFF723
:1049A00093FE2A4629466846FFF788FE224621469E
:1049B00008A8FFF783FE08A922460846FFF77EFEF7
:1049C00008A922460846FFF74FFF08A922460846D5
:1049D000FFF74AFF08A922460846FFF745FF08A946
:1049E0000846044B044AFFF712FE684608A9FFF781
:1049F000ABFDC0E780BC010C1CBC010C70B50446CB
:104A00000D46164698B0114608A8FFF757FE344BDE
:104A10002146684608AAFFF7FAFD214608AA10A811
:104A2000FFF722FF694610AA08A8FFF747FE08AA69
:104A3000114668462A4BFFF7EAFD69466846284B4F
:104A400008AAFFF7E4FD2A46294610A8FFF736FE1C
:104A500010AA11461046224BFFF7D9FD214610AA95
:104A600008A8FFF72BFE08AA114610461C4BFFF7BB
:104A7000CEFD10AA11461046FFF720FE10AA184BD3
:104A800011461046FFF7C3FD6A4669462046FFF708
:104A900015FE2146204608AAFFF7E6FE21462046DD
:104AA00008AAFFF7E1FE324629463046FFF706FE28
:104AB0000B4B324631463046FFF7A9FD22462846C9
:104AC00008A9FFF7D1FE6A4629462846FFF7F6FDFA
:104AD0002946284610AAFFF7C7FE18B070BD00BFD0
:104AE00080BC010C2DE9F04F9946054692460C46D4
:104AF000A3B02C9E2F49324602A8FFF7FDFCD6F842
:104B000000B031460BF0010202A80DF14808FFF792
:104B10000AFD00214046FFF7D0FC4A4641460AA85C
:104B2000FFF7A2FE012251462846FFF7FCFC0122B6
:104B300049462046FFF7F7FC01211F4A1AA8FFF754
:104B4000D9FD6FEA0B02204602F001020AA9FFF725
:104B5000EAFCFF277B0922AA02EB830353F8806C4F
:104B600007F01F02D64086EA0B06F243494640464C
:104B700002F00102FFF7D7FC404606F001020AA945
:104B8000FFF7D1FC214628461AAAFFF737FF534604
:104B900021462846CDF800801AAAFFF779FE013F8A
:104BA000D8D1214628461AAAFFF7E0FD23B0BDE878
:104BB000F08F00BF3CBC010C80BC010C2DE9F04122
:104BC000C2B004460F46014602A815469846FFF7B4
:104BD000EFFD28B16FF00307384642B0BDE8F08121
:104BE0000AAE304604F12001FFF7E2FD0028F1D1C2
:104BF0004246294612A8FFF70DFE30464649FFF708
:104C000063FD1AAC31463046434AFFF77EFD424B06
:104C10003246204612A9FFF70FFD22AD20463E493D
:104C2000FFF758FD0122284602A9FFF77CFC284621
:104C30003949FFF749FD3246374B29462846FFF7E9
:104C4000FBFC28463449FFF745FD3A4632A92AA81D
:104C5000FFF780FE074600285BD112A83146009579
:104C600032AB2AAAFFF73EFF2046FFF77CFC90B943
:104C70000122204612A9FFF756FC28492046FFF7DB
:104C800029FD2046FFF7B4FD204602A9FFF75CFC92
:104C90000028A1D09EE7224B224A32A92AA80094DC
:104CA000FFF720FF012220462AA9FFF73CFC012242
:104CB000284632A9FFF737FC01213AA8174AFFF727
:104CC00019FD12A92AA8FFF73FFC60B10B46204648
:104CD000294600963AAAFFF7DBFD294620463AAA64
:104CE000FFF744FDC9E7314632A8FFF72DFC28B98C
:104CF000294620463AAAFFF781FEEEE739462046CC
:104D0000064AFFF7F7FC39462846044AFFF7F2FC4B
:104D1000B3E76FF001075FE73CBC010C80BC010CFE
:104D2000DCBB010CFCBB010C024B1860024B0020E9
:104D3000196070471C00043018000430464A136B99
:104D400023F4807323F0010343F480731363136926
:104D500043F03003136153691807FCD53F4B1A69C0
:104D600022F4FE0242F480021A611A6822F018024C
:104D70001A601A6842F001021A601A689107FCD59D
:104D800037490A6822F00F0242F005020A609A6A67
:104D900022F0030242F001029A629A6A42F48032DF
:104DA0009A629A6A42F400329A629A6A42F48022C3
:104DB0009A629A6A22F010029A629A6A22F00C02AF
:104DC00042F008029A629A6A22F020029A629A6A73
:104DD00022F47C5242F400629A625A6B6FF308022A
:104DE00042F03B025A635A6B22F47E4242F4007254
:104DF0005A635A6B22F4FE0242F480325A635A6BB1
:104E000022F0FE4242F080725A631A6842F08072C9
:104E10001A60124B1A689201FCD51A6A22F00F022E
:104E20001A621A6A22F070021A621A6A22F4E062A6
:104E30001A621A6A22F4E0421A62DA6942F0030244
:104E4000DA61064BDA6902F01802182AFAD11A68F8
:104E500042F480521A60704700080254000C025459
:104E60000020025008B501F029FC18B1BDE8084047
:104E700007F082B808BD00001FB51D4B1B680193E9
:104E80001C4B5B6802931C4B5B680393019B029B6A
:104E9000039B00F0CDFC01F0E7FCFFF7E3FF01F01E
:104EA00067FC20B1154802F085F907F065F8FBF7BB
:104EB000E1FD20B1124802F07DF907F05DF8002411
:104EC00000F0A6F800F082F90E4B1C6000F0A0F88C
:104ED00000F07CF90C4B20469B68984720B10B48AA
:104EE00002F068F907F048F8002004B010BD00BFD8
:104EF0000080020C00E0020C00E0000C0DB4010C7C
:104F00002FB4010CDC3E04302CBD010C5CB4010C50
:104F100030B585B00192CB690093D1E905320146E5
:104F20000B4802F047F90B48816AC26AD0F8E430B6
:104F3000446B856BD0F8E8000094CDE90150064839
:104F400002F038F905B0BDE8304007F015B800BFF1
:104F500087B4010C00ED00E0B3B4010C0A46014631
:104F60000148FFF7D5BF00BFF2B4010C0A46014665
:104F70000148FFF7CDBF00BFFCB4010C0A46014653
:104F80000148FFF7C5BF00BF06B5010C0A46014640
:104F90000148FFF7BDBF00BF0FB5010C0A4601462F
:104FA0000148FFF7B5BF00BF1AB5010C1EF0040F92
:104FB0000CBFEFF30880EFF309807146FFF7CEBF17
:104FC0001EF0040F0CBFEFF30880EFF30980714669
:104FD000FFF7CCBF1EF0040F0CBFEFF30880EFF318
:104FE00009807146FFF7CABF1EF0040F0CBFEFF334
:104FF0000880EFF309807146FFF7C8BF1EF0040F69
:105000000CBFEFF30880EFF309807146FFF7C6BFCE
:10501000F7B5644C236883B9634BD3F8882042F01A
:105020008072C3F888204FF40022D3F8883003F050
:1050300080730193019B5D4B9A612068002872D1B7
:105040005B4B5C49D3F8D02022F00102C3F8D0209A
:105050000A680130C3F8D8204A68103122F01F02D4
:10506000C3F8DC2011F8045C51F8082C003D18BF8F
:10507000012522F01F0242EA450242F00102052802
:10508000C3F8E020E4D1BFF34F8FBFF36F8FD3F8A5
:10509000D02042F00102C3F8D020454A536A43F4BD
:1050A000702353622368D3B94022434843497F2584
:1050B000C0E90012F922C0E90433C0E90252C0E994
:1050C0000633036201F080FA08B106F055FFFF21B4
:1050D000394801F0CFFA3A49374801F0E1FA23683C
:1050E000002B4FD1012000F071FF2268002A50D11F
:1050F0002D4B0520D3F8881041F40031C3F88810F7
:10510000D3F88830114603F400330093009B01F07C
:105110000DF9052001F03AF92A4A536C43F00203D5
:10512000536403B0F0BD0027224D214E2B68C6F812
:10513000D830D6F8D800D6F8DC208342D6F8E01074
:1051400011D16B6823F01F0393420CD12A7BAB680B
:10515000003A18BF012223F01F0343EA420343F041
:1051600001038B4201D006F007FF0137052F05F13F
:105170001005DBD10E4BD3F8D030DE078DD406F00E
:10518000FBFE8AE700F02CFF0128AED006F0F4FE0B
:10519000ABE70C4B5B6C9B07C3D403B0BDE8F0409E
:1051A00006F0EABEDC3E0430000C0254002403503A
:1051B00000ED00E0DCBC010C6C3F043000780054D2
:1051C0000000FF5D00600250704700006D4B73B53A
:1051D0001A6832B901224FF400116B481A6001F0CD
:1051E000E9FF01230226694C694D2046636126626E
:1051F00000F082FE28466E6100F07EFE00232360F0
:105200002B60236903F07F43B3F1344F04D061482E
:1052100001F0D0FF06F0B0FEE368002B04DA5E4830
:1052200001F0C8FF06F0A8FEE36803F07F53B3F176
:10523000345F04D0594801F0BDFF06F09DFE616A5D
:10524000574B994207D0574801F0B4FF564801F038
:10525000B1FF06F091FED4E90F320BB9672A10D0E6
:10526000002152480092672201F0A4FF504801F04B
:10527000A1FF67230020C4E90F03236843F40073F0
:1052800023602B6C2B220093EB6B0021494801F02B
:1052900091FFD5E90F320BB92B2A13D000214648D4
:1052A00000922B2201F086FF2B21444801F082FF5F
:1052B000434801F07FFF2B230021C5E90F134FF472
:1052C00000732B6023691A0704D53E4801F072FF72
:1052D00006F052FE23695B0604D53B4801F06AFFE5
:1052E00006F04AFE23682A68134326D0374801F0A7
:1052F00061FF00F047FB00F067FB236843B12348E0
:1053000000F06AFC20B1324801F054FF06F034FE90
:105310002B6843B11E4800F05FFC20B12C4801F01F
:1053200049FF06F029FE00F00BFC20B1294801F0EE
:1053300041FF06F021FE01F037F8A16AC32907D02A
:10534000254801F037FF254801F034FF06F014FE30
:105350006368B3F56D4F13D0B3F5B85F10D0B3F5F4
:10536000385F0DD0B3F5464F0AD0B3F5E44F07D000
:10537000B3F5B84F04D002B0BDE8704006F0FCBDF4
:1053800002B070BD683F043026B5010C243F0430E4
:10539000E03E043047B5010C63B5010C92B5010C39
:1053A0000000010CC0B5010CD0B5010CF8B5010C22
:1053B00025B6010C60B6010C90B6010CBDB6010C0F
:1053C000E7B6010C22B7010C4EB7010C6FB7010C08
:1053D00098B7010CBEB7010CE0B7010CF0B7010C97
:1053E000042A09DB0B68036000F1040001F10401E9
:1053F000A2F10402042AF5DA002A09D00B7803701E
:1054000000F1010001F10101A2F10102012AF5DA26
:1054100070470000044B82B0186883B26FF30F002E
:10542000184302B0704700BF70BD010C0C207047DC
:1054300000207047012805D902280CBF00206FF01A
:10544000040070476FF0030070476FF0030070476F
:10545000014B1868704700BF9C3F043000487047FC
:1054600058BD010C08B54FF47A7000F0BFFA002067
:1054700008BD00000C4B70B55A6992B11C6900233D
:1054800001390144151DA34201D1002070BD52F81D
:105490003360864203D855F83360B14201D90133F5
:1054A000F1E70120F2E700BF400004302DE9F041B0
:1054B0001446204B96001A78074622F002021A7012
:1054C000421E02EB8402B2F5800F0D4611D31A4A38
:1054D00094693CB16FF004001A7842F002021A702D
:1054E000BDE8F0813246FF212846FBF78EF82046C2
:1054F000F6E70023DFF844803146C8F80030FFF7B4
:10550000B9FF324690B107F140612846FFF768FFC6
:10551000D8F8003023B1324600212846FBF775F851
:10552000002324F04040C8F80030D9E707F10061BB
:10553000EBE700BF9C3F043040000430A03F043044
:1055400038B50E4D6B68DC0709D40C4B5A689007D0
:1055500011D45A68520744BF0422DA6038BDFBF701
:1055600031FB04466B689907EFD4FBF72BFB001B5C
:105570000128F7D9E9E70222DA60EAE700040350DC
:105580000B4A10B5D36823F00203D36001F0A0F8F2
:10559000FBF718FB044601F0B7F840B1FBF712FB2C
:1055A000001B0128F7D901F0AFF80028F3D010BD97
:1055B000000403502DE9F04F454F87B03B784FEA88
:1055C0008208019123F002034146064615463B70CE
:1055D000FFF750FFF0B14FF0020B4FF0406A721E20
:1055E0004244B2F5800F0CD248EA060414F00F04CE
:1055F00007D1384BD3E90201234601F1040E83425F
:105600000DD16FF004003B7843F002033B7007B00C
:10561000BDE8F08F4FF0006ADFF8BCB0DFE751F86B
:1056200033C0664503D35EF833C0624544D90133C5
:10563000E5E700F093F93B7843F001033B70019BF1
:105640001022191902A8FBF703F8029B049A059986
:105650001A40039B0B40B3F1FF3F08BFB2F1FF3F7D
:1056600024D00AEB0601584602AA214400F00AFAA7
:1056700081461034A04502D0B9F1000FDFD03B784D
:10568000414623F0010330193B70FFF7F3FE80B170
:1056900000F08EF9FFF754FF01F010F8B9F1000F98
:1056A00025F0404018BF4FF0FF30B0E74FF0000941
:1056B000DFE700F071F9EDE7FFF762FF41463046A2
:1056C000FFF7D8FE0028B4D100F034F9B3E700BFEB
:1056D0009C3F0430400004300200008070B5B0F5FB
:1056E000800F044686B008D2C0F30C032BB9324AAF
:1056F000D2E90012101D8B4208D16FF004002F4A2E
:10570000137843F00203137006B070BD52F83350A3
:10571000AC4203D350F83350AC4207D90133EAE727
:1057200000F008F929E000F037F93BE004212046B9
:10573000FFF7A0FE0028224B18BF0423B4F5001F7A
:10574000029334BF0123022303934FF00103059317
:105750004FEA543301D3A3F58073184E0493FFF737
:105760000FFF3378042123F0020320463370FFF744
:1057700081FE0028D4D000F0F1F8337801A943F07D
:10578000010302A8337000F059FC3378054623F07A
:105790000103042120463370FFF76CFE0028C2D0BD
:1057A00000F006F9FFF7CCFE00F088FF281E18BFB6
:1057B00001204042A8E700BF400004309C3F043075
:1057C00004000080174BD3F80421002A29DAD3F80B
:1057D000042142F00042C3F80421134A1368013344
:1057E0001360734603F00F030D2B14D1EFF30982FE
:1057F000D2E90631C9010CD523F00101098801F471
:105800006840B0F5684F04D001F47841B1F5704FAD
:1058100004D1043303E0EFF30882E9E70233936134
:105820007047FEE700200250A03F043070470000A0
:1058300010B5032000F068FD00F064FC094B0A4A33
:105840001B6A03F00F03D35CD840084B18600F208D
:10585000FBF7AAF9044618B9FFF7E8FF204610BD88
:105860000124FBE7000C0254CCBC010C20000430E6
:105870000C4B10B50C4A9C680C4B13EA240338BF40
:1058800013461A6842F002021A60EFF3108272B6F1
:105890000023CC58C4500433102BFAD182F3108863
:1058A00010BD00BF240004302C20025028200240EC
:1058B00030B50F4DAB68002BAABF0E4B0E4B0F4AF5
:1058C0001C68B8BF0E4A44F002041C60AB68146840
:1058D00003F0040323431360EFF3108272B6002336
:1058E000CC58C4500433102BFAD182F3108830BD49
:1058F000240004302C200250282002404420025072
:1059000040200240084B10B5084A9C68084B13EA37
:10591000240338BF13461A6842F002021A600B884B
:105920009BB2038010BD00BF240004302C20025025
:1059300028200240074B9A6AD20741BF064A5A60A4
:1059400002F188325A6046BF986A00F001000120D7
:10595000704700BF0020025023016745074BDA6AF9
:10596000D20741BF064A9A6002F188329A6046BF68
:10597000D86A00F001000120704700BF00200250EB
:105980002301674508B5FFF7D5FF18B9BDE8084002
:10599000FFF7E4BF08BD0000044B9A6A42F0010221
:1059A0009A62986AC04300F00100704700200250DC
:1059B000044BDA6A42F00102DA62D86AC04300F0AE
:1059C0000100704700200250064BD86910F001001A
:1059D00007D0054ADA6002F14432DA60D86900F093
:1059E00001007047002002503B2A1908F8B505460F
:1059F000FBF7E8F81D4E1E4CB2681E4B074614EA32
:105A0000220438BF1C46236813F00B0F1AD1B1686B
:105A1000194B1A4A1A4812EA210238BF1A4621685D
:105A2000036A01F47E0103F400030B4315D071688F
:105A30001943716013601A0202D54FF40003036327
:105A400001200EE0691CDED0FBF7BCF8C01BA842A9
:105A500001D8002DD7D1032003E02368DB0301D454
:105A60000020F8BD4FF480331360F9E724000430C0
:105A700020200240242002503420025030200240D6
:105A8000002002502DE9F041264D04462B780E46A9
:105A9000012B174644D001232B7000234FF47A705A
:105AA0006B60FFF7A3FF50BB1F4B204AAC6012EAAC
