:020000040C04EA
:104000003DB8F3960000000000047B0000DC0700D0
:10401000000000000203000000000000000000009B
:10402000FFFFFFFFFFFFFFFFFFFFFFFFFFFFFFFFA0
:10403000FFFFFFFFFFFFFFFFFFFFFFFFFFFFFFFF90
:10404000FFFFFFFFFFFFFFFFFFFFFFFFFFFFFFFF80
:10405000FFFFFFFFFFFFFFFFFFFFFFFFFFFFFFFF70
:10440000F81703305947040CA989040C29DD040C62
:1044100029DD040C29DD040C9301050C8701050C32
:10442000000000000000000000000000BDD9040CE6
:104430004D46040C000000004F46040C5146040C8D
:104440005346040C5546040C5746040C5946040CBC
:104450005B46040C5D46040C5F46040C6146040C8C
:104460006346040C6546040C6746040C6946040C5C
:104470006B46040C6D46040C6F46040C7146040C2C
:104480007346040C7546040C7746040C7946040CFC
:104490007B46040C7D46040C7F46040C8146040CCC
:1044A0008346040C8546040C8746040C8946040C9C
:1044B0008B46040C8D46040C8F46040C9146040C6C
:1044C0009346040C9546040C9746040C9946040C3C
:1044D0009B46040C9D46040C9F46040CA146040C0C
:1044E000A346040CA546040CA746040CA946040CDC
:1044F000AB46040CAD46040CAF46040CB146040CAC
:10450000B346040CB546040CB746040CB946040C7B
:10451000BB46040CBD46040CBF46040CC146040C4B
:10452000C346040CC546040CC746040CC946040C1B
:10453000CB46040CCD46040CCF46040CD146040CEB
:10454000D346040CD546040CD746040CD946040CBB
:10455000DB46040CDD46040CDF46040CE146040C8B
:10456000E346040CE546040CE746040CE946040C5B
:10457000EB46040CED46040CEF46040CF146040C2B
:10458000F346040CF546040CF746040CF946040CFB
:10459000FB46040CFD46040CFF46040C0147040CCA
:1045A0000347040C0547040C0747040C0947040C97
:1045B0000B47040C0D47040C0F47040C1147040C67
:1045C0001347040C1547040C1747040C1947040C37
:1045D0001B47040C1D47040C1F47040C2147040C07
:1045E0002347040C2547040C2747040C2947040CD7
:1045F0002B47040C2D47040C2F47040C3147040CA7
:104600003347040C3547040C3747040C3947040C76
:104610003B47040C3D47040C3F47040C4147040C46
:104620004347040C4547040C4747040C4947040C16
:104630004B47040C4D47040C4F47040C5147040CE6
:104640005347040C5547040C5747040CFEE7FEE79C
:10465000FEE7FEE7FEE7FEE7FEE7FEE7FEE7FEE732
:10466000FEE7FEE7FEE7FEE7FEE7FEE7FEE7FEE722
:10467000FEE7FEE7FEE7FEE7FEE7FEE7FEE7FEE712
:10468000FEE7FEE7FEE7FEE7FEE7FEE7FEE7FEE702
:10469000FEE7FEE7FEE7FEE7FEE7FEE7FEE7FEE7F2
:1046A000FEE7FEE7FEE7FEE7FEE7FEE7FEE7FEE7E2
:1046B000FEE7FEE7FEE7FEE7FEE7FEE7FEE7FEE7D2
:1046C000FEE7FEE7FEE7FEE7FEE7FEE7FEE7FEE7C2
:1046D000FEE7FEE7FEE7FEE7FEE7FEE7FEE7FEE7B2
:1046E000FEE7FEE7FEE7FEE7FEE7FEE7FEE7FEE7A2
:1046F000FEE7FEE7FEE7FEE7FEE7FEE7FEE7FEE792
:10470000FEE7FEE7FEE7FEE7FEE7FEE7FEE7FEE781
:10471000FEE7FEE7FEE7FEE7FEE7FEE7FEE7FEE771
:10472000FEE7FEE7FEE7FEE7FEE7FEE7FEE7FEE761
:10473000FEE7FEE7FEE7FEE7FEE7FEE7FEE7FEE751
:10474000FEE7FEE7FEE7FEE7FEE7FEE7FEE7FEE741
:10475000FEE7FEE7FEE7FEE707B50022264B83F8FB
:10476000042310221A60254B83F30A88244A254B20
:104770009360D3680193019B019B83F07F4383F493
:104780007F0343F4C043D3601F4BD3F8A82042F00B
:104790000202C3F8A820D3F8A8301C4A0193019B59
:1047A000D2F8483143F00103C2F8483103F016FE55
:1047B000174B18498B4212D30020174B17498B42D5
:1047C00018D30BF0A1FD186850F82240586840F843
:1047D0002240013298688242F5D30C33EAE7002286
:1047E000F8E71C6844F8220001325C68A242F8D362
:1047F0000833E4E70022F8E700E100E000100330AE
:1048000000ED00E00044040C000C025400040054CD
:10481000A083040CC483040CC483040CDC83040C48
:1048200001015F5F030100001F010000A14C040CA7
:104830000000000000000000010000000100000076
:104840000000000000000000000000000000000068
:10485000021F0000000000000000000070000000C7
:10486000F8DD060C80000000000F000001000000D1
:10487000BD4C040C01015F5F050100001F01000039
:10488000F95C040C000000000000000001000000C2
:104890000100000000000000000000000000000017
:1048A00000000000031F00000000000000000000E6
:1048B0008000000003DE060C20000000030F000053
:1048C00001000000355C040C01015F5F0001000085
:1048D0001F000000CD05050C0000000000000000D6
:1048E00003000000010000000000000000000000C4
:1048F0000000000000000000051F00000000000094
:104900000000000080000000700000004000000077
:104910001BDE060C60000000010700000100000023
:10492000A504050C01015F5F010100001F010000EB
:104930004763040C000000000000000000000000BD
:104940000100000000000000000000000000000066
:1049500000000000011F0000000000000000000037
:1049600039DE060C70000000020F0000010000009C
:104970004D63040C01015F5F040100001F01000092
:104980002379040C0000000000000000000000007B
:104990000100000000000000000000000000000016
:1049A00000000000011F00000000000000000000E7
:1049B0005EDE060C4000000005070000010000005C
:1049C0000F77040C01015F5F0F0100001F01000061
:1049D000E179040C0000000000000000020000006B
:1049E00001000000000000000000000000000000C6
:1049F00000000000041F0000000000000000000094
:104A0000800000004000000073DE060CA0000000E3
:104A1000040F0000010000003579040C00015F5F05
:104A200002000000FE0B000041DB040CA02A000085
:104A30000000000000000000000000000000000076
:104A4000000000000100FFC3000000C400FE0000E1
:104A5000A01904300000000001015F5FC30B0000DB
:104A60001F000000A912050C00000000000000005B
:104A70000000000003000000000000000000000033
:104A80000000000000000000011F00000000000006
:104A9000000000008FDE060C00F10000060B000095
:104AA000010000006112050CA2DE060C01F10000FD
:104AB00000010000010000007712050CBCDE060CAE
:104AC00002F1000000010000010000009912050C35
:104AD00001015F5FBD0B00001F010000000000002E
:104AE00000000000000000000200000001000000C3
:104AF00000000000000000000000000000000000B6
:104B0000041F000000000000000000008000000002
:104B100070000000D8DE060CC0F0000000040000A9
:104B200001000000414C040C01015F5FBA0B000062
:104B30007F0100005F4C040C00000000000000003A
:104B4000180000000100000001000000000000004B
:104B500000000000000000001A7F000000000000BC
:104B600000000000E0F00000800000006000000095
:104B70007000000020000000C0F0000040000000B5
:104B8000A000000000F1000001F1000000000000A2
:104B90000000000000000000000000000000000015
:104BA0000000000000000000000000000000000005
:104BB00000000000000000000000000000000000F5
:104BC00000000000ECDE060C00F000000004000015
:104BD00001000000694C040C00000000000000000F
:104BE0000A00000001015F5FBE0B00001F00000013
:104BF00000000000000000000000000002000000B3
:104C000001000000000000000000000000000000A3
:104C100000000000041F0000000000000000000071
:104C2000800000007000000008DF060CE0F00000CB
:104C300000040000010000004504050C0000000015
:104C40000368002B05DA0233B4BF6FF08000002048
:104C5000704701D10BF056BD6FF08000704708B56A
:104C60000CF050FB002008BD08B50BF0A9FB0000BC
:104C700038B50025054B294603F5A044184622689F
:104C8000656015F081F8256038BD00BF80280330CD
:104C9000024B5B6803600020704700BF80780330E0
:104CA00008B500F015F940B900F082FF00F08CFF64
:104CB00018B9BDE808401AF0FFBD08BD2DE9F04F56
:104CC00004680546A3B0002C40F0F980214620225C
:104CD00004A815F059F8214620220CA815F054F824
:104CE0002146042414AF3822384615F04DF805F15A
:104CF000200353F8041D2246013C09B1144601E08B
:104D0000002CF6D1042605F1300353F8041D324679
:104D1000013E09B1164601E0002EF6D12CB96FF024
:104D20008304204623B0BDE8F08F38233A460021A3
:104D300068680BF02DFB3828F1D1CDE9047001270C
:104D4000DFF888A10DF1100805F110090AF5A04B54
:104D5000BC422AD10CAF3C4600215A4A05F11C0046
:104D6000136800EB8608A2F5A04940453BD101B18C
:104D700013600023CDE90233059BA968382B5160ED
:104D8000049A40F09080138D180A032857D0012808
:104D90007ED01268831ECDE90221072B7DD8DFE883
:104DA00003F03F4E53595F656B7159F8043F1A1D6C
:104DB00020D8DBF80000D91C21F00301C0F5A04287
:104DC000914217D8014400EB0A02CBF80010686842
:104DD000394601920BF0DCFA019AC8F80C00013751
:104DE00048F8082FB4E750F804EF1EF1040F06D975
:104DF00001B11360FFF73CFF6FF08C0491E70EF1F7
:104E0000030C2CF0030CC3F5A04AD44504F10804AC
:104E1000EED803EB090144E9021E63440121A4E733
:104E200002AA0CA904A800F015FE04464FF00008E1
:104E3000464507F1080739D1FFF71AFF71E70CA9BA
:104E400004A800F0FDF9F0E702AA0CA904A800F0FC
:104E5000D9FAEAE702AA0CA904A800F011F9E4E7DC
:104E600002AA0CA904A800F084FBDEE702AA0CA9A0
:104E700004A800F082FCD8E702AA0CA904A800F05C
:104E8000CFFCD2E702AA0CA904A800F00BFDCCE7E6
:104E90000CA904A800F081FEC7E70B4805F01EFB33
:104EA0006FF08504C2E76FF08004BFE7414657E921
:104EB000022368680BF078FA08F10108B8E76FF090
:104EC00085042EE7807803302881040C8028033085
:104ED00008B54FF48C520021024814F055FF002011
:104EE00008BD00BF887803300023F7B50C6807467B
:104EF0000E461546019314BB22B3146001A8FFF7B8
:104F0000C7FEA8B94FF40C7C104A0CFB04F3D1582F
:104F1000A646013471B94FF0010E02EB030C42F8C2
:104F200003E0019910331344CCE9011734602B607E
:104F300003B0F0BD082CE8D16FF08400F8E76FF003
:104F40008800F5E76FF08600F2E700BF887803304D
:104F50000023F7B505680193013D072D036004D9CF
:104F60006FF08604204603B0F0BD01A8FFF790FE65
:104F700004460028F6D14FF40C735D430A4E735972
:104F80007719012BECD17A68019B9A42E8D105F19F
:104F900010004FF408722146304414F0F5FEC7E9C2
:104FA00001447451DEE700BF88780330002373B5F5
:104FB0004C1E072C06461546019303D96FF0880056
:104FC00002B070BDC2B101A8FFF762FE0028F7D1A0
:104FD0004FF40C7202FB04F1094B5C585A18012C77
:104FE000ECD19468B442E9D15468019A9442E5D175
:104FF000103119442960E3E76FF08600E0E700BF55
:1050000088780330B0F5105F23D101F0FE43B3F18F
:10501000A06F124B08BF21F47E1199421BD00DD80E
:105020000F4B994217D007D80E4B994213D00E4818
:105030000B1A5842584170470C48F9E70C4B9942FB
:1050400009D004D80B4B994205D00B48F0E70B4828
:10505000EEE7002070470120704700BF0010C00439
:10506000004140040002C0030040400400444004EA
:10507000000140050011C0040012C00400024005F8
:10508000134640F209522DE9F04F0026D0F8008077
:1050900089B0B8F828B0074693450D46059618D153
:1050A0000A6883682AB96FF08004204609B0BDE819
:1050B000F08F49680329F6D9002BF4D0C168012983
:1050C000F1D9D8F804101888FFF79CFF106000246D
:1050D000EBE70DF118094846D3E9002100F065FD22
:1050E000BBF5A06F13D12B1D03936B6802932B6844
:1050F0000193FB680093BB68D8F8042099E803008B
:1051000018F068FE04460028CFD06E60CDE740F26C
:1051100001539B450FD12B1D03936B6802932B68A2
:105120000193FB680093BB68D8F8042099E803005A
:1051300018F0F6FEE6E7ABF2025A1FFA8AF3012BEB
:1051400019D82E68002EAED06B68032BABD9D8F8D7
:10515000083031460120336005AAFFF7C5FE04463A
:10516000002CA2D1BAF1060F67D8DFE80AF032416D
:105170001E2B495461000120D8F8081005AAFFF73A
:1051800015FFABF20753012B0446E9D82E68002E19
:1051900089D06B68032B86D9D8F808303360002893
:1051A000E0D0BBF5A16F92D07FE705982B1DD5E924
:1051B000001218F05FFD044600283FF476AF00238C
:1051C0006B6072E70598D7E9021218F09CFD04465F
:1051D0006BE7D8F80430059899E8060018F032FD1E
:1051E000044600283FF473AF3046FFF7B1FE5CE79A
:1051F000D8F80430059899E8060018F02FFDEFE77D
:105200002B1D01936B68059800932B68D7E9021258
:1052100018F09BFDCFE7059805F10C03D5E90212C4
:1052200018F0B4FD04460028DED00023EB603CE714
:10523000059818F053FC0446D6E76FF0850434E770
:1052400000232DE9F043D0F8008085B0B8F828900D
:105250000546A9F540720F460293082A53D8DFE8A5
:1052600002F01C2D38525252525205000A6812B9EF
:105270006FF080040DE04B68032BF9D9D8F80430A7
:1052800003F17E43083B032B8CBF002301231360F3
:105290000024204605B0BDE8F0830B1D01934B6848
:1052A00000930B68D0E90212D8F8040017F03FFE13
:1052B00004460028EDD000237B60EAE743690093B1
:1052C0008168D0E90323D8F8040017F043FE0446B0
:1052D000DFE70E68002ECBD04B68032BC8D9D8F877
:1052E000083031460320336002AAFFF7FDFD044673
:1052F0000028CED1D8F80410029817F0E1FC04463B
:105300000028C5D02BE00320D8F8081002AAFFF728
:105310004DFE6FF441734B44022B04465DD83E684A
:10532000002EA5D07B68032BA2D9D8F808303360B3
:10533000002856D040F207339945A9D0A9E7029832
:10534000D5E9021217F08EFDC1E7029807F10C03B0
:10535000D7E9021217F09EFD044620B9002430461A
:10536000FFF7F6FD95E70023FB6092E70298D5E989
:10537000021217F0A7FD044600288AD1EEE7029832
:1053800017F08EFC0446EAE700233E680393002EE4
:105390003FF46EAF7B68032B7FF66AAFAB68002BE0
:1053A0003FF466AFEA68032A7FF662AF1B683146B6
:1053B0000320336003AAFFF797FD044600287FF41B
:1053C00068AFDDE9020117F0EEFD044600283FF466
:1053D00060AFC4E76FF085045BE700287FF459AF46
:1053E0000646A9F20333042BF4D801A252F823F0A5
:1053F0003F53040C8953040C4B53040C6D53040CA1
:105400007F53040C2DE9F04F0027D0F8009089B0AD
:10541000B9F828B00DF1180806460D46D2E900216A
:105420004046059700F0C1FBBBF5806F15D12B1DE1
:1054300003936B6802932B680193F3680093B3683E
:10544000D9F8042098E8030018F013F8044600B1D6
:105450006F60204609B0BDE8F08F40F201439B45E4
:105460000ED17369029333690193F3680093B368B3
:10547000D9F8042098E8030018F010F80446E8E78B
:10548000ABF2024A1FFA8AF3012B1AD82F6817B918
:105490006FF08004DDE76B68032BF9D9D9F8083089
:1054A000394602203B6005AAFFF71EFD0446002C8A
:1054B000CFD1BAF1050F59D8DFE80AF01F2D353BDF
:1054C00049530220D9F8081005AAFFF76FFDABF287
:1054D0000543022B0446EAD82F68002FD8D06B680A
:1054E000032BD5D9D9F808303B600028E1D040F231
:1054F00007439B45ADD10024ABE7D9F804300598AC
:1055000098E8060017F0ECFD04460028F3D0384672
:10551000FFF71EFD9DE7D9F80430059898E80600CE
:1055200017F0EAFDF0E70598D6E9021217F0F0FD52
:10553000A4E7059805F10C03D5E9021217F003FE64
:10554000044608B90024E2E70023EB6081E70598F0
:10555000D6E9021217F06CFF044600287FF479AFF9
:10556000F0E7059817F042FD0446D0E76FF0850498
:105570006FE72DE9F04F4FF0000807688DB0B7F8DE
:1055800028B00DF1280906460D46D2E9002148460B
:10559000CDF8248000F009FBBBF5C06F1ED12B1D98
:1055A00007936B6806932B680593F3680493B368BD
:1055B000039373690293336901937B6A00937A685A
:1055C00007F1140399E8030018F028FD044608B118
:1055D000C5F8048020460DB0BDE8F08F40F20163AD
:1055E0009B4517D12B1D07936B6806932B6805937A
:1055F000F3680493B3680393736902933369019367
:105600007B6A00937A6807F1140399E8030018F0A5
:105610005DFDDBE7ABF2026A1FFA8AF3012B20D8AB
:10562000D5F80080B8F1000F02D16FF08004D1E707
:105630006B68032BF9D9BB6841460520C8F80030D8
:1056400009AAFFF751FC0446002CC3D1BAF1090F97
:1056500000F29080DFE80AF02330525F66776C3703
:105660007D4D0520B96809AAFFF7A0FC6FF4C1635E
:105670005B44022B0446E7D8D5F80080B8F1000F50
:10568000D3D06B68032BD0D9BB68C8F80030002892
:10569000DCD040F20B639B459CD100249AE77B68E9
:1056A000099899E8060018F023FE04460028F4D073
:1056B0004046FFF74DFC8DE77B68099899E80600A6
:1056C00018F022FEF1E705F10C030293EB6809984C
:1056D0000193AB680093D5E9041205F1140318F0A7
:1056E00039FF044608B90024E2E70023EB606B6150
:1056F00070E7099818F042FD0446D9E709982B1D78
:10570000D5E9001218F033FE044600283FF462AFDA
:1057100000236B605EE70998D6E9021218F025FEB7
:10572000044657E70998D7E9031218F07DFEF7E71A
:105730002B1D01936B68099800932B68D6E9021220
:1057400018F0D2FEE0E70998D6E9021218F09AFEA6
:10575000E6E7F36809980193B3680093D5E902126C
:1057600005F10C0318F02FFF04460028BBD00023DE
:10577000EB602FE76FF085042CE7F0B587B0076882
:1057800004AE04460D46D2E90021304600F00DFA81
:105790003B8DA3F5E063032B3FD8DFE803F0021451
:1057A00022312B1D03936B6802932B680193E368EE
:1057B0000093A3687A6896E8030017F0A3FF70B11E
:1057C00000236B600BE06369029323690193E36834
:1057D0000093A3687A6896E8030018F05BF807B0B6
:1057E000F0BD2B1D03936B6802932B680193E36854
:1057F0000093A3687A6896E8030017F099FFDEE744
:105800006369029323690193E3680093A3687A684C
:1058100096E8030018F07CF8E1E76FF08500DEE71A
:10582000F0B589B0076806AE04460D46D2E90021FE
:10583000304600F0BAF93B8DB3F5006F07D040F663
:10584000010293421AD06FF0850009B0F0BD2B1D04
:1058500005936B6804932B68039363690293236930
:105860000193E3680093A3687A6896E8030018F050
:105870008DF80028E9D000236B60E6E72B1D059327
:105880006B6804932B680393636902932369019304
:10589000E3680093A3687A6896E8030018F0CCF8F0
:1058A000E7E7000000232DE9F04706688EB0B6F860
:1058B00028900DF1140807460D469246D2E90021C2
:1058C0004046049300F071F9B9F5106F0FD12B1D0C
:1058D00003936B6802932B680193FB680093BB688A
:1058E000706898E8060019F065FE044616E040F678
:1058F0000113994516D12F68002F00F090806B6836
:10590000032B40F28C80B368394604203B6004AA24
:10591000FFF7EAFA0446002800F0928020460EB015
:10592000BDE8F0870420B16804AAFFF73FFB0446F6
:10593000A8B140F60A139945F0D12F68002F6ED018
:105940006B68032B6BD9B3683B60002C7FD1049844
:1059500018F07AFE04463846FFF7FAFADEE7A9F6B1
:105960000219B9F1080F68D801A353F829F000BF54
:105970009559040CA959040CB359040CDB59040CB7
:10598000C159040C255A040CCF59040CE959040CD4
:105990003B59040C2968002941D06B68042B3ED187
:1059A000049819F009F9A0E7316B049819F00DF982
:1059B0009BE7718D0498D7E9022319F0F5FC94E771
:1059C000718D0498D6E90C2319F0F8FC8DE7049842
:1059D000D5E9001219F012F987E7718D049898E85B
:1059E0000C0019F01FFD80E72E68C6B16B68032B11
:1059F00015D9B96899B1FA68182A10D107A814F016
:105A00009EF9DAF8040007A900F0EEF8424604997E
:105A100007A819F08BFC059B044633607EE76FF006
:105A200080047BE7FB68718D0193BB680498009349
:105A300098E80C0019F064FD57E76FF085046DE7F6
:105A40007168049819F07EFC0446002883D1002474
:105A500064E700BF2DE9F0418EB003ACD0F80080C0
:105A600006460D461746D2E90021204600F09DF873
:105A700040F20322B8F82830934203D0A3F5027312
:105A8000012B0ED8B16811B96FF080043CE0F268C8
:105A9000182AF9D107A814F052F9786807A900F07C
:105AA000A3F8B8F82830A3F50073092B72D8DFE803
:105AB00003F01A717105142F3D464B63D6E90412A9
:105AC0002E68002EE0D06B68032BDDD9234607A893
:105AD00016F0E0FF0446039B4CE094E8030016F048
:105AE000B6FE044610E094E8030007AA2E6816F0FC
:105AF000D8FE2B680446002BC6D06A681C2AC3D87F
:105B0000304607A914F01BF920460EB0BDE8F0811D
:105B10002B1D0093D5E9002394E8030016F00CFF39
:105B200004460028F0D000236B60EDE72B1D0093A6
:105B3000D5E9002394E8030016F07DFFF0E794E830
:105B400003001AF0A3F8CCE7002205A811462E683E
:105B500000F02BF82B68002B96D06B68032B93D9A1
:105B600094E8030005AB07AA17F000F804460028E4
:105B7000CAD1059B3360C7E72E68002E84D06B68BE
:105B8000032B81D9214607A819F062FE044600289C
:105B9000A1D0B9E76FF08504B6E7D1E9000119F0AB
:105BA0005ABD0FB4002004B07047C0E9002170470F
:105BB00008B514220249034814F0C1F8014808BD91
:105BC0004881040C080A043008B54FF40041044829
:105BD00015F0E8FE034815F035FF002008BD00BFB2
:105BE000088A0330A35B040C88617047F0B5002479
:105BF00085B0CDE9000103A816461F46039415F0B1
:105C000097FD2146009A039D814202D16FF08B00DF
:105C10000BE02B4653F8204B944208D100202B690F
:105C20003360D5E90223C7E9002305B0F0BD1D4666
:105C30000131E9E740F2E93270B503680546934265
:105C400094B008D040F2EA32934232D06FF085042B
:105C5000204614B070BD0021036A0469B3F5147FB7
:105C600004F1FF321E4628BF4FF414763F2A0391F9
:105C700022D80BB382681E4B40681A60234604AAE0
:105C80000AF086FB844211D103AB21460093194AE6
:105C9000334604A800F0AEF904460028D8D1039B8F
:105CA000144A214668680AF07FFBD1E76FF083044D
:105CB000CEE70369042B02D06FF08604C8E7036ABD
:105CC000042BF9D181680A4A40681160002103AAB7
:105CD0000AF05EFB04280646EED1039804A900F002
:105CE000ADF904460028B3D1334604AAD9E700BF72
:105CF0006C0C04301C0A043000F06EB9002313222F
:105D000070B588B003AE054631466846CDE900233C
:105D1000029303F042FE044650B9009B2846054911
:105D200001AA0196029300F0EAFA204608B070BD7D
:105D30000324FAE703DBFEFF202370B58CB004AE2A
:105D40000546314601A8019303F0E8FD044650B929
:105D5000019B2846054902AA0296039300F0CFFA58
:105D600020460CB070BD0524FAE700BFFEDAFEFF46
:105D700070B590B003AD342200210646284614F0D9
:105D800003F8332329466846009303F0E3FD0446F5
:105D900020BB009A019502929AB9114804F09EFB2B
:105DA000104B019311230293DDE901210E4804F009
:105DB00095FB30460D4901AA00F0A1FA204610B02B
:105DC00070BD112A03D00A4804F088FBECE729468D
:105DD000044813F0FCFF0028F5D1E5E70524EDE7C2
:105DE0005C81040CD282040CE181040C08DBFEFF10
:105DF0009981040C10B5044603F07CFD0023024693
:105E00000249204600F058FA002010BD06DBFEFFD4
:105E100037B5054601A800F087FA044628B9019A6B
:105E200028460349D31700F047FA204603B030BD97
:105E300007DBFEFF202370B58CB004AE054631466B
:105E400001A8019303F094FD044650B9019B284634
:105E5000054902AA0296039300F03DFA20460CB0D1
:105E600070BD0324FAE700BF05DBFEFF37B505462A
:105E7000684600F075F9044620B96A462846034989
:105E800000F029FA204603B030BD00BFFFDAFEFF64
:105E9000002370B58AB002AE054631462020CDE918
:105EA000003303F060FD044650B920236A462846BB
:105EB00004490096019300F00EFA20460AB070BD26
:105EC0000324FAE704DBFEFF37B50B4B05460193CD
:105ED00000F0F1F96A4601A900F0D6F8009B0446EB
:105EE000034305D1012200232846044900F0E4F9C8
:105EF000204603B030BD00BF02DBFEFF01DBFEFF2A
:105F00002DE9F043E7B08046894630486946174698
:105F100014F080F86C460646A0B9BDF8005005F4B0
:105F20004F43B3F5824F12D1EDB2122D0AD1BDF815
:105F30000230B3F5C07F1AD0B3F5007F23D0B3F59C
:105F4000807F23D00525284667B0BDE8F083B5F5EE
:105F5000885FF7D1BDF80230B3F5C07F19D0B3F533
:105F6000007F18D0B3F5807FECD1052201E06FF0FF
:105F700022024B460021204600F02AF968B1012890
:105F8000E0D10225DFE76FF02302F2E76FF00602AF
:105F9000EFE70622EDE70722EBE7424620460C49F1
:105FA00000F099F9DFF82C80204658F8043B984718
:105FB00005460028C7D10136092EF5D139462046BD
:105FC00000F042F90028DAD1BDE700BF5D81FF7F14
:105FD00000DBFEFFE482040C08B500F0B9F80428E9
:105FE00096BF034B6FF0830033F9100008BD00BF6C
:105FF000C882040C7FB5CDE9022321F01002202ACB
:10600000CDE9000101D0402914D19BB1684604AA12
:1060100002A9FFF775FF40B9089B059A1A60064B65
:1060200033F9100007B05DF804FB0428F7D96FF0CE
:106030008300F7E70420F2E7C882040C002310B5C0
:1060400086B0CDE9003002936FF00043039320F057
:106050001003202B0C4601D0402811D1684604AA19
:1060600002A9FFF74DFF30B9059B2360054B33F9BB
:10607000100006B010BD0428F8D96FF08300F8E7CF
:106080000420F3E7C882040C2DE9F04F884615463A
:10609000044685B0002855D0002A53D00026DFF8EA
:1060A000ACA016600DF1080B42F21603BAF80020FE
:1060B0009A4203D0032005B0BDE8F08FBAF8023051
:1060C000214F5344BB420AD80136072EECD12B682E
:1060D0001BB1042120460DF0D1F90020EBE704228A
:1060E00039465846019313F02AFEBDF80820BDF842
:1060F0000A90C2F38511B142019B1FD102F03F0209
:106100003F2AE1D12B680133012B2B600CD1B8F170
:10611000000F05D0D8F800202046D3170DF034F931
:10612000042120460DF08DF90437CDE902790921CB
:106130009BE80C0020460DF03CF9C5E709F1040985
:106140004F44BFE70420B6E7740C0430700C0430F1
:106150004FF401720120014900F0EEB8700C0430D8
:1061600030B504469BB028B3154D6B68E3B912A156
:10617000D1E9000107AB03934B23049305AB0093D4
:10618000039A4B230BF010FA10B103201BB030BD63
:106190002B1D01932023DDE9051200932B6809488C
:1061A00014F02EF90028F0D1074B002023602123A2
:1061B0006360EBE70420E9E75D81FF7F00000000FA
:1061C0000028033009000002082803300000000006
:1061D0007FB51C460023054600F1A006C0F89810C4
:1061E00019463046CDE902330BF0F8FB04AB13E956
:1061F000030013A3D3E900238DE8030030460BF01E
:106200000FFC94E8060028460DF001F829463046B8
:106210000BF072FB0446022128460DF012F944B13E
:10622000032C0BD0192C0CBF01240324204604B0EE
:1062300070BD052128460DF004F9F7E70424F5E7C1
:106240005D81FF7F0000000070B5044686B00D46FA
:1062500005210DF013F9002104AE32462046CDE9A8
:106260000211CDE904110DF012F9059B029900937A
:10627000019404F1A000DDE903230BF077FB38B1B2
:10628000032814D019280AD00323184606B070BD7D
:10629000314620460DF04DF90128034601D1012376
:1062A000F3E730B996E8030085E80300EDE704233F
:1062B000EBE70223E9E7704770B5044616461D4632
:1062C0000A46CB170DF060F832462B462046BDE853
:1062D00070400DF059B873B5D2E9006504460A461E
:1062E000CB170DF051F802212046CDE9006502AB35
:1062F00013E90C0002B0BDE870400DF05AB873B558
:10630000D2E9006504460A46CB170DF03DF803219B
:106310002046CDE9006502AB13E90C0002B0BDE8F0
:1063200070400DF046B80000024B1B68036000206F
:10633000704700BF6C0C043008B513F0FEFC003849
:1063400018BF012008BD00F0CFB800006FF47A72CA
:10635000F0B50368044613448DB0032B7CD8DFE806
:1063600003F002284C6B0369082B02D06FF0800504
:106370005FE08569042DF9D10021406808AA0AF080
:1063800007F80828F2D12B460221606806AA09F016
:10639000FFFF0428EAD16168314A63691160069AF7
:1063A000CDE90032DDE90823A06800F01BF90546BD
:1063B0003FE00369082BD9D14569042DD6D10021CE
:1063C000406808AA09F0E4FF0828CFD12B46012134
:1063D000606806AA09F0DCFF0428C7D16168204A7A
:1063E000236A116005AACDE90132069B0093A068DB
:1063F000DDE9082300F04CF9D9E70369082BB5D192
:10640000076A0C2FB2D10021406806AA09F0C0FF2C
:106410000828ABD1DDE9062308AE0096A06800F09D
:106420008DF9054628B901463B463246606809F0B9
:10643000BBFF28460DB0F0BD0369082B96D10021A3
:10644000406808AA09F0A4FF08288FD1DDE90823D5
:10645000A06800F085F9AAE76FF08505E9E700BFBD
:10646000740E0430024603480B460068012109F00F
:106470008FBF00BF740E0430024603480B4600680D
:10648000002109F091BF00BF740E04301FB5CDE9A3
:1064900002010843019219D004220E480DEB0201BB
:1064A00013F04DFC08220C480DEB020113F047FCE1
:1064B0000A4C01980A4B0B4AB0F5807F08BF1C4676
:1064C0000449204600F0E6FA04B010BD6FF08600E3
:1064D000FAE700BFC4100430C8100430980E04302E
:1064E000780E0430B810043030B5364B85B09D6A54
:1064F000A8470369102B23D1A847334C8368A360B6
:10650000A847037D01A8237603F09BF9C0B9019B3E
:10651000A26863609DF80C3021465343029A2B48D1
:10652000B2FBF3F222822A4AE36000F05CFAB0B9CF
:10653000264800F093FA30B9A8470369102B10D011
:106540006FF080000BE0234815F090F81F4800F032
:106550009FFA20B91D4800F081FA0028ECD005B060
:1065600030BDA8471C4C8368A360A847037D01A8E1
:10657000237603F058F90028E2D1019BA2686360FA
:106580009DF80C3021465343029A1448B2FBF3F2B3
:1065900022820F4AE36000F026FA0028DFD10F487C
:1065A00000F05CFA0028DAD00D4815F05FF80B48CF
:1065B00000F06EFA0028D2D1084805B0BDE830409E
:1065C00000F04CBAACE5040C48280330980E0430B7
:1065D0000883040C1882040C2C280330780E043035
:1065E0003E82040C2DE9F7431946DDE90A5752EAC9
:1065F0000103044610463BD0072F3CD82246FFF744
:1066000045FF30B91D4B9B68DB0705D56FF0840053
:106610002BE010F18C0F28D1184E194A194B47F472
:106620004037B760B4F5807F0CBF9046984600278E
:10663000DFF854907560B5F5007F2C4628BF4FF405
:10664000007411482146FFF70DFF234632464046AD
:10665000CDE900790D4900F031FA30B9B3682D1B4E
:1066600023F44033B3602744E5D103B0BDE8F083A1
:106670006FF08600F9E76FF08500F6E7B810043098
:10668000780E0430980E0430B80E0430C410043074
:106690002DE9F3470646194640F6BD339E4208BF32
:1066A0004FF4807652EA010310460A9FDDF83080ED
:1066B00037D03246FFF7EAFE054630BB1A4B1C685E
:1066C000BC422ED30B9BE41B9C4228BF1C46174A9E
:1066D000174BDFF864A0B6F5807F0CBF9146994652
:1066E000C8F80040B4F5007F264628BF4FF4007676
:1066F0003B46324648460F49CDF800A000F0E9FA83
:10670000054630B10023C8F80030284602B0BDE885
:10671000F08731465046FFF7AFFEA41B3744E1D166
:10672000F3E76FF08605F0E7B8100430780E043018
:10673000980E0430C4100430B80E043038B5054645
:10674000194610462A46049CFFF7A0FE28B9034BC1
:106750001A689B68C4E90022A36038BDB8100430F1
:1067600010B51946044640F6BD339C4208BF4FF4AD
:10677000807410462246FFF789FE80B9084B9B685B
:10678000DB070AD40748084B0849B4F5807F18BFD7
:106790001846BDE8104000F08CBA6FF0840010BDC0
:1067A000B8100430780E0430980E0430C410043051
:1067B00008B5036800209B689847002818BF6FF051
:1067C000910008BDF8B51D46036804465B680E4697
:1067D000174698470B4BC0F3410013F8202063681D
:1067E0000699E0681D442368B1FBF2F200FB0650F5
:1067F00039469B6998470028B4BF6FF0910000208C
:10680000F8BD00BF1C83040C0020704770B504461F
:106810000E460025E368AB4201D8002070BD6068D9
:1068200006FB030023682844DB69984710B9A36876
:106830001D44EFE76FF09100F0E700002DE9F74FFE
:106840000C9C07469246002C55D0C26840681E1822
:106850003B6802FB01665B689847284BC0F3410028
:1068600013F82080B6FBF8F908FB09F94E4540D033
:106870003B680DF1040B0122594648465B69984775
:10688000002804DA6FF0910003B0BDE8F08FA6EBAA
:106890000901621890458EBF2546A8EB06054D44B8
:1068A0002A465046594413F04AFA641B1FD0444507
:1068B0000FD3B4FBF8F93B684A465B690AEB050164
:1068C000A81998470028DDDB08FB09F3E41A0ED06D
:1068D0001D443B6801225B6901A970199847002893
:1068E000D0DB224601A90AEB050013F028FA0020AC
:1068F000CAE70025DBE72046C6E700BF1C83040C7F
:106900002DE9F04F03688FB006AA04460E46D3F86F
:106910000C8000F0FEFB00285FD10BA800F0EBFE1E
:10692000014600285CD1DDE9067A202206A8099DEF
:1069300013F02AFA3146204606AA00F032FD00285C
:106940004BD1834681462368DB8A5B4515D8002DF1
:1069500035D12946204602AA00F063FC00283CD12C
:106960002946204602AA00F07BFEB0BB204600F07C
:1069700060FE78B36FF083002FE0B3451CD059461A
:10698000204606AA00F0C5FB38BB069BBB420DD1D2
:106990000BA800F0B0FE48B9079B534506D99845AF
:1069A00028BF98465B1B0793099B9944594620468C
:1069B00006AA00F0F6FC80B90BF1010BC3E74346D1
:1069C0002A4639462046CDE900A900F0A3F920B9AE
:1069D000002FCBD1204600F087FB0FB0BDE8F08F31
:1069E0006FF08B00F9E7F8B50D461746064660B321
:1069F00059B352B30B8AE88A012BC96812D9032B09
:106A000010D0022BAA8A23D1431CA1EB431393423B
:106A100034BF6FF086040024914201D26FF08604E7
:106A2000012302E06FF08604023B03EB40030133D5
:106A3000B1EB031F09D344B920222146304613F09D
:106A4000A3F9C6E900572046F8BD6FF08604FAE7BF
:106A5000914234BF6FF086040024E5E737B5054660
:106A600000F08BFD044658B94FF08071284601AA0A
:106A700000F0B9FB38B928460199FFF741FF0446F9
:106A8000204603B030BD10F18C0F18BF0446F7E765
:106A900000F097BC10B58AB0144602AB01AA00F012
:106AA00073FB40B9059B6360049B2360BDF81830FD
:106AB000A3600AB010BD6FF08B00FAE72DE9F04338
:106AC00093B00DF12808044689461546002120227E
:106AD00040461F461A9E13F057F94FF6FF73CDE953
:106AE000043325B96FF0860013B0BDE8F083AB68BE
:106AF000B3F1807FF6D2236849465A8A6B682046F4
:106B0000013B1344524213406B6004AA434600F019
:106B10003BFB002840F08780D5F808C004991CF49E
:106B2000003F06D00D9A6B689A426FD10C90CDF859
:106B300038C005914FF6FF73059A9A427CD12168BF
:106B40006B68898A8B42CDD806A9CDE9028105A957
:106B50000191A9682046009104998A1A18BF012260
:106B6000494600F0B9FB0028BED1002F6CD1204669
:106B70000A9906AA00F074FD002851D105994246F1
:106B8000204600F00EFC0146002849D1DDE90453FF
:106B90009D4228BF1D4620462A4600F0D8FC00280A
:106BA0003ED14FF6FF72049B93420FD0059A934259
:106BB0000CD09A4238BF1A462046691C00F0C7FC28
:106BC00070BBDDE904539D4238BF1D462368204653
:106BD000DA8A691C00F0BBFC10BB0A9B002B62D157
:106BE000002F60D0204600F07FFA00287FF47CAFB1
:106BF0004FF6FF73049999423FF476AF059B994293
:106C00003FF472AF2046FFF77BFE6DE70E9B4246D6
:106C100043F0807320460E9300F0C3FB002889D018
:106C20006FF0830060E710F18C0F7FF45DAFAB680D
:106C3000DB037FF559AF7DE720460A9906AA00F0ED
:106C4000F0FA002891D0EBE723685B8A5A1E3242A3
:106C5000E6D17D1E1D445B421D400C9B9E42DFD849
:106C60002A4631460D9800F03AFD0028D8D11B9BEA
:106C70004246CDE900532046334606A900F0C0F84D
:106C80000028CDD10C9B3E440A999E422046069D89
:106C900088BF0C9600F023FA294606900A9A2046EF
:106CA00000F07CFB63E7204600F0C3FC002899D08D
:106CB000B6E713B5002301AA044600F065FA28B927
:106CC00020460199FFF71CFE02B010BD6FF08B004B
:106CD000FAE770B58CB015461C4603AA04AB06460D
:106CE00000F052FA98B92A462146069800F0F7FCBF
:106CF00058B9109B2246009330462B4604A900F059
:106D00005EF8002818BF6FF083000CB070BD6FF004
:106D10008B00FAE72DE9F04786B01646DDE90E97BD
:106D200002AA054688469A4600F07BFA044698B9BE
:106D3000049B414633442846049300F0D0F90646AC
:106D40007FB101464A462846CDE900A7029B00F0E4
:106D5000D0FB28B16FF08304204606B0BDE8F08771
:106D60000127039A4A450BD2A9EB0203CDE9002380
:106D700031462846029B00F0BCFB0028EAD10127DF
:106D800042462846029900F009FB4146284602AADD
:106D9000029600F065FC044628B14246314628467A
:106DA00000F0FCFAD8E7B8F1000FD5D0002FD3D00F
:106DB0006B683146DB68286898470446CCE72DE9C4
:106DC000FF410D46164609686A4604461F46DDF82F
:106DD000288000F026FA70B900994B1C0BD062682D
:106DE0006B680A9755684246AC462068334404B045
:106DF000BDE8F04160476FF0830004B0BDE8F0816A
:106E00002DE9F3471546DDE90AA90F4698461168B2
:106E1000044600F064F96B687A689844A8EB0203B2
:106E2000CDE90023064601463B68204600F061FBA1
:106E300020BB6368CDF800A0D3F808A04A464346BB
:106E400031462068D047C8B9EB686A68B9681A4407
:106E500023682046DB685B1A9B1ACDE90023314684
:106E60003B6800F046FB48B92B683BB1314663688C
:106E70002068DB6802B0BDE8F047184702B0BDE803
:106E8000F08713B510244B1C416800948C681B01DB
:106E9000C1690068A04702B010BD436810B5C16960
:106EA00004461B690068984750B923681A8A022A69
:106EB00006D96268A1681846BDE8104012691047FB
:106EC00010BD008A022814BF03380020704708B59F
:106ED000FFF7F7FF013100EB4100000108BD2DE98C
:106EE000F04F002405460F46904626464FF0100905
:106EF0008BB0D5F800A05046FFF7E3FF0130864283
:106F00000ED300264FF02009D5F800A0BAF81630AD
:106F10009E421BD3002088F800400BB0BDE8F08FE4
:106F20006B680136CDF80090D3F804B0394650466E
:106F3000330102AAD8470028EFD102AB13F8012B86
:106F40000130102884EA0204F8D1D2E76B68314698
:106F50005046D3F804B0FFF7BAFF02AA03463946F9
:106F60005046CDF80090D8470028D6D102AB13F890
:106F7000012B0130202884EA0204F8D10136C3E74E
:106F800037B5837B01685A1CD2B28273097E0446EE
:106F90009142C16904BF02338373012900F10D02DC
:106FA0000ED8FFF79CFF48B91022636800929D68D5
:106FB000E169034604F108022068A84703B030BD28
:106FC0006FF08600FAE713B50C46114622790346A6
:106FD000012A09D1036862791B7E9A420CBF6FF0C7
:106FE0008300002002B010BD022A04D11B68A279E0
:106FF0001B7E9A4202D16FF08300F3E701290DD87E
:107000000DF10702FFF76BFF0028EBD162799DF8C5
:1070100007309A4218BF6FF09100E3E76FF08600E7
:10702000E0E71022F0B543688BB000925C68002363
:1070300002AA054619460068A0470246002834D037
:1070400000264FF0FF3410226B6800925F68012128
:107050000023286806AAB847002839D1012228460B
:1070600006A9FFF7B0FF002832D1002E35D02B68DB
:107070009DF81E201B7E9DF80E10B3FA83F35B096A
:1070800093421BD1002A0CBF01230223994203D152
:1070900091422CBF002601263446AC61B4FA84F438
:1070A00000206409EC610BB0F0BD284602A9FFF78F
:1070B0008AFF04460028C3D10126C4E78B42E7D1EA
:1070C000002B0CBF012302239342E1D00646E3E7E5
:1070D000002EE2D16FF08300E5E70124DDE709B976
:1070E000C06970478068704710B50446FFF748FFD5
:1070F00070B96368E169DB682068984740B9D4E9F2
:1071000006232046C4E90632BDE81040FFF7C5BE9D
:1071100010BDF7B5066805463046FFF7D8FE0346B2
:107120002020696800904F683046A9691446B84726
:10713000064640B92868FFF7C4FE23680130834241
:1071400004D36FF09706304603B0F0BD04F114008D
:1071500000F0D1FA0028F6D12D68E268AB8A9A4295
:10716000EFD8A3689A42ECD3D4E900372BB928466C
:10717000E98AFFF7ACFEB842E3D83946E86800F088
:10718000AEFA0028DFD0DCE72DE9F0430746884659
:1071900091461C46002589B03B68DB8AAB4202D889
:1071A0006FF08B0616E06A4629463846FFF7B1FFB6
:1071B000B0B90C22414605A812F068FD064668B930
:1071C000C9F8005034B16D460FCD0FC495E80F00DB
:1071D00084E80F00304609B0BDE8F0830135DBE7F5
:1071E0006FF08306F6E7F0B505460E461746002415
:1071F00089B02B68DB8AA34202D86FF08B0009E0CC
:107200006A4621462846FFF784FF38B9049B1E4290
:1072100002D03C6009B0F0BD0134EAE76FF08300B2
:10722000F8E773B54B1C06464168102000904C6887
:107230003068B1691B011546A047044630B9336870
:1072400029681A8A914204D36FF09704204602B04D
:1072500070BDD868D5E9011200F041FA0446002853
:10726000F2D12B68012B03D83068C18AFFF72FFEBB
:107270006B688342EAD0E7E773B54B1C054641686B
:10728000102000904E681B01A96928681446B04779
:10729000034630B92B6821681A8A914204D36FF0F3
:1072A0009703184602B070BDD868D4E9011200F007
:1072B00016FA03460028F2D12268012A08D82A6863
:1072C0001046FFF7FEFDD28A013200EB42000001BA
:1072D00062688242E5D0E2E72DE9F04F06468B4630
:1072E00091469846002789B0DDE9145A3068FFF7C7
:1072F000E8FD0130874202D36FF08D0421E0524651
:1073000039463046FFF78DFF0446002835D1DAF8BC
:10731000082090452FD833685946DB682F609B1AA8
:107320006B600C22C5F80C8005F1140012F007FD0B
:10733000129BAC602B61DAF80830A3EB0803CAF8A3
:10734000083000253368DB8A9D4205D26A4629460B
:107350003046FFF7DEFE98B14FF6FF75139B1D60B8
:10736000CCB94FF6FF739D4208BF6FF08D042046E5
:1073700009B0BDE8F08F0137B8E76FF08304E0E7AC
:1073800005A800F0B8F920B1B9F1000FE6D14FF02F
:1073900001090135D6E76FF08D04E8E702B181609D
:1073A000704773B5056804462846FFF790FD03460D
:1073B0002020616800908E682846E169B04702B0DD
:1073C00070BD70B58CB00546FFF72BFE002861D16B
:1073D000EE696B6831461B692868984704460028A7
:1073E00078D1B6FA86F16B6828681B694909984715
:1073F000044600286ED12A680126137EB3FA83F36F
:107400005B09AB73138AC5E90606022B14BF02237E
:107410000123AB6002232B73D18A1046FFF757FD7F
:10742000D36821461B1A01906A46284602930096AB
:10743000FFF727FD044600284CD106462B68019033
:10744000DB6802932B681846FFF73BFDB04223D858
:10745000002C4BD12B681846FFF733FDA04228D8EB
:107460002022002104A812F08FFC00242B68DB8A64
:10747000A34232D82846FFF783FD48BB6B68E96911
:10748000DB6828689847044620BBD5E90623C5E990
:1074900006321FE000269CE7198A6A68022914BF99
:1074A00003210021184631441269904701360443F4
:1074B000C8E71B8A6A46022B14BF03230023234418
:1074C0000134214628460093FFF7DBFC0028C1D099
:1074D0006FF0830420460CB070BD2146284604AAF4
:1074E000FFF75FFF0028F3D10134BFE76FF091048D
:1074F000F0E72DE9F04F0446884616469946C3B09A
:10750000DDE94CA51DB9284643B0BDE8F08FB5F5BF
:10751000807F2F4628BF4FF4807763680097D3F8A9
:1075200004B049465346206802AAD8470028EBD148
:1075300063680097D3F808B041463346206802AA32
:10754000D8470028E0D13E44BA44ED1BDAE773B5D2
:10755000066804463046FFF7BAFC1546024629463F
:107560003046FFF7B4FC801ACDE900202046D4E96C
:107570000631FFF7BEFF02B070BD2DE9F041436850
:1075800005461B68006886B09847044628B9284617
:10759000FFF747FD28B16FF08304204606B0BDE831
:1075A000F08110266B6805F108070096D3F8048077
:1075B0003A462346A9692868C0470028EBD13946D6
:1075C0002846AA69FFF7FFFC0028E4D12846FFF708
:1075D00064FC04460028DED12B7B012B24D101461C
:1075E00002AA2846FFF748FE04460028D5D1049B8E
:1075F0002A68C3F1FF23D26803F57F03F0331344F5
:10760000CDE9006332462846AB69E969FFF771FFAF
:1076100004460028C1D16B7B2846AB7302232B7331
:10762000FFF762FD0446B8E7022B18BF6FF0830432
:10763000B3E710B586B0002102AA0446FFF7F1FDBA
:1076400060B92068039A049BD118C36820465B1A6E
:10765000CDE90023D4E90631FFF74BFF06B010BD9A
:10766000F0B505460C4687B009B9C36913602146D9
:107670002846FFF706FC0146C0B9D5E906767CB975
:1076800000212868FFF723FCA21C1201801ACDE913
:1076900000203B4631462846FFF72BFF07B0F0BDE0
:1076A000284602AAFFF7BDFD014610B16FF0830026
:1076B000F4E7284602AA0296FFF7E3FB0028F5D17B
:1076C000012CDDD020222301103B019331463B46A3
:1076D00028460092FFF70DFF0028D1D0DEE7814257
:1076E00006D8401A904234BF6FF0860000207047E1
:1076F0006FF08600704700F10C0310F8012B22B9DF
:107700009842FAD16FF08B007047002070472DE946
:10771000F04103680446A3F2F233A6B0032B00F253
:10772000FD80DFE803F00D029195042200F12003B3
:1077300053F8040D1146013A002852D00A4652E08F
:1077400000230421169300F1200353F8040D0A4688
:10775000013908B1114601E00029F6D1042204F1F3
:10776000300353F8045D1046013A0DB1024601E0C2
:10777000002AF6D12369042B03D0012026B0BDE8EE
:10778000F081206A0428F8D80129F6D1012AF4D121
:107790000021606806AA08F0FBFD0428EDD1A3686B
:1077A000002B16DB00220699A06802F005FA0028DB
:1077B000E3D1216A069816AA02F0B7F90546002817
:1077C000DBD1236A16AA0021606808F0EDFD284687
:1077D000D4E7069806A902F004FA0028E2D00220B5
:1077E000CCE7002AA4D1042104F1300353F8045D4E
:1077F000084601390DB1014601E00029F6D123699F
:10780000042BBAD1012AB8D10029B6D1606816AAD2
:1078100008F0BEFD0428B0D1A368002B0DDB0022C8
:107820001699A06802F0C8F90028A6D1169802F0AF
:10783000B1F9003818BF0120A0E7169816A902F088
:10784000D0F90028EBD0CAE701F0E8FF002095E767
:10785000002504260DF1180840222946404616AF9F
:10786000CDE90255CDE9045512F08EFA40222946A1
:10787000384612F089FA019504F1200353F8041DEB
:107880003246013E59B133461646042504F1300212
:1078900052F8040D2946013D30B10D4606E0002E98
:1078A000ECD14FF0FF33F0E7002DF1D12B43012B4A
:1078B00002D96FF0800061E70423002160680DEBBE
:1078C000030208F065FD0428F3D1022E1FD166697A
:1078D000402E20D8334642460121606808F058FD0A
:1078E0008642E6D1CDE9028602A995B1236A402BF2
:1078F000DFD8CDE9047304AE3246019801F091FF60
:107900000546002E3FF463AFDDE904235BE7002169
:10791000EBE72E46F0E76FF089002FE76FF0850068
:107920002CE708B502F0FFF8002814BF6FF09200B2
:10793000002008BD70B503680546B3F57C7F90B0A4
:1079400044D040F2F232934244D1002406698DF8CB
:107950000340012E34D1036A3C2B31D133462146FA
:1079600040680DF1030208F013FD9DF803000128A3
:1079700029D81A4901EBC0035A79EAB11B79022BC5
:107980008DF804301AD003F0FD03042B08BF51F822
:1079900030304FF000010A4608BF029301AB00F0FF
:1079A000D9F8044628B901463C23686801AA08F0C2
:1079B000FBFC204610B070BD3146EFE72146EDE7F5
:1079C0006FF08004F5E76FF08B04F2E713F096FB9D
:1079D0000024EEE76FF08504EBE700BFD010043021
:1079E00008B500F0A5F8002818BF6FF0830008BDA7
:1079F00042F216032DE9F341154C074622880E4644
:107A00009A4204D06FF0970002B0BDE8F08165881B
:107A100025440434AC42F5D2042221460DEB020089
:107A200012F08DF9BDF80430BDF8062013F03F08C0
:107A30000BD1C3F38513BB4207D1082AE2D13046EC
:107A4000211D12F07CF94046DEE704321444E1E7E0
:107A5000E01004302DE9F04F4FF000080446CDB09F
:107A600020220E4604A84146CDF8048012F08CF97D
:107A70002C4B01AD53F8342002AFC7F80080002A28
:107A80004DD0E01C03EBC4032946C0B2D3F80490E8
:107A900000F0C6F840B1244813F0E8FD6FF09104FF
:107AA00020464DB0BDE8F08F0DF10C0ACAF8000079
:107AB0001E495046D5F800B012F006FC0446E0B16D
:107AC0006FF09104286800F0C7F8E9E7A9EB040813
:107AD000B8F5807F28BF4FF480782146434658464A
:107AE0000CAA00F0BBF80028EAD1424650460CA987
:107AF00012F00EFC0028E3D14444A145E6D83B46F1
:107B00002022504604A912F025FC04460028D7D1B3
:107B10003A6804A906F11C0012F011F9D2E76FF0DF
:107B20008604BDE7FC1004306382040C09000002E7
:107B300010B51C220220064912F0FFF8044618B9BD
:107B400000F056F8204610BD6FF09104FAE700BF30
:107B5000E0100430F0B51746002285B006460C460A
:107B60001D460192002B31D001282FD8904214BF1E
:107B70000220012001A900F053F838B1154813F094
:107B800075FD6FF09104204605B0F0BD019BDA68E9
:107B90002A611B78AB6101236B6104B12870304608
:107BA00002A9FFF725FF044668B9029BAB60039B5F
:107BB000EB6027B129463046FFF74CFF0446019899
:107BC00000F04AF8DFE76FF09104F8E76FF0860401
:107BD000D9E700BF6382040C40B1521805D2C068D7
:107BE000904234BF00200120704700207047000001
:107BF00070B50024084B094D1E68A64201DC002028
:107C000070BD55F8043B00209B68984708B90134C3
:107C1000F3E74FF0FF30F3E77883040C6428033078
:107C20000B4B30B51A6800230A4C934203DB06D194
:107C30004FF0FF3008E01D01655D854205D1002051
:107C4000044A02EB03130B6030BD0133EDE700BFC4
:107C50003483040C3883040C704700002DE9F7438B
:107C600017461A4680460C461E46FFF7B5FF002809
:107C700070D00093D8F804305B689847374BC0F356
:107C8000410013F82090C9F1000303EA040534EA27
:107C9000030326D0D8E9013001225B6901A92844F9
:107CA0009847002812DB0022A3195B1B4B4524BF19
:107CB0002E1B4E44631BD5B2AE4202F1010208D81E
:107CC000009B9B1B0093009B6BB9002003B0BDE899
:107CD000F08305F108016944194411F8041C795531
:107CE000E9E70025EFE7009B4B45B3FBF9F61DD212
:107CF00009FB06F6D8F8083030191844D8F80430D3
:107D000001225B6901A9284498470028DEDB002294
:107D100037440099D3B2994202F10102D5D9F9183A
:107D200008336B4413F8043C4B55F2E7D8F80800CD
:107D3000D8F80430204432465B69791928449847C2
:107D40000028C3DB009B09FB16330093009B002B2C
:107D5000CED1BAE74FF0FF30B8E700BF2883040C5C
:107D60000368D90444BF43F4806303609A0444BFAA
:107D700043F40063036070472DE9F04F1F4640F65F
:107D8000BD33904699424FF0000208BF4FF4807314
:107D90000446ADF5217D06AD03912846114608AE97
:107DA00008BF0393FDF701FFA26C40F203113046B8
:107DB000FDF7FBFE4FF40872002118A811F0E4FF54
:107DC000182200210BA811F0DFFF00211A220DF16B
:107DD000460011F0D9FF4FF6F87241F20103B2EB01
:107DE000C70F4FF6FF72ADF828304FEAC70338BF10
:107DF0001346ADF82A30012305A80593FFF7B0FF1D
:107E00000368DFF8A8B00C934FF480430360FFF7DA
:107E1000A7FF0368214613934FF49053226BADF8EC
:107E2000443011A83346CDF850B014F033FE0DF1B4
:107E30000C0A04460DF1280938BB594618A817F05A
:107E400081FA044608BB96E80C0040F2011118A81C
:107E500017F0E8FA0446C0B90423524640F2032161
:107E600018A817F0A1FA044678B92A46484618A976
:107E700017F05CFA044640B9AA9B4246009395E885
:107E800003003B4614F058FD044618A816F0DCFB2E
:107E900096E8030014F0DBFC95E8030014F0D7FC2F
:107EA00020460DF5217DBDE8F08F00BF09010008D7
:107EB0002DE9F04F0024A1B008A8089413F038FC75
:107EC0008346DFF8DCA0334F5C4503D1002021B0AE
:107ED000BDE8F08F089B660103EB44121169514520
:107EE00025D19268002105920BA89A59FDF75DFEF5
:107EF000DDE90B981C2200210DA811F045FF0DF1C2
:107F00001E03029308980AAB019307AB3044009319
:107F1000436930221D46806909AB14A9A84740B1C6
:107F2000009043464A461C491C4802F0D7FA0134E7
:107F3000CAE74FF6F8714FF6FF72BDF81C30CDE975
:107F400012988B4288BF1346ADF836300A9B059DC8
:107F50001093BDF81E301C22ADF83430089B0DA9DB
:107F600033441B690E9313F0FF0308BF129354238D
:107F70005D4305F1340038443D4411F0E0FE2846ED
:107F8000099A14A911F0DBFE099B2B6301232B65D1
:107F9000CDE700BF0C1104307C83040C8482040CF8
:107FA000010100807FB51546CDE9000112B3002420
:107FB0000646146003A8039413F0BAFB039BA04287
:107FC00009D01A4652F8201B8E4208D1D3E902216B
:107FD000931E0B4306D16FF08B0004B070BD1346A7
:107FE0000134ECE75421054B002001FB02331B6BED
:107FF0002B60F2E76FF08600EFE700BF0C11043052
:108000002DE9F04F87B01F46109B01280646144605
:10801000DDF84490009304D96FF0860007B0BDE806
:10802000F08F542141433F4D019101EB050ADAF8ED
:108030005030002B6FD0002AEED0D2E905B80023D3
:1080400002A8029313F06EFB0023029A0199984252
:1080500050D094465CF80CEBF3454DD1D2E901C306
:10806000BCF1000F07D0002253F8320080453ED10A
:1080700003EBC2035B6834311C2229442046019380
:1080800011F05DFE5A46414604A8FDF78EFD0499A5
:10809000626861610599019BA161D1B221B922F0A9
:1080A000FF0242F00102626003A80393FFF758FE4B
:1080B000542303FB06531A6B009B03999A42A16059
:1080C0002CD8002FA8D0B9F1000FA5D04B0416D59D
:1080D00040F20313984512D03A4641465046009B61
:1080E000CDF8409007B0BDE8F04FFFF745BE013234
:1080F0009445B9D10023BEE762460133A7E7514654
:10810000384611F01CFE542303FB06552B6B002050
:10811000C9F8003082E76FF08B007FE76FF08900CD
:108120007CE700BF0C1104300A5B43727970746FF6
:108130005D20556E737570706F7274656420726522
:108140007175657374210A0054462D5053412D43B7
:10815000727970746F20312E312E3000285B41749B
:10816000746573745D2054686520706C6174666F0B
:10817000726D20646964206E6F742072657475720C
:108180006E20612070726F66696C655F64656669F8
:108190006E6974696F6E0D0A001E5B4174746573BD
:1081A000745D205573696E672061206D69736D6120
:1081B00074636865642070726F66696C655F64657E
:1081C00066696E6974696F6E20726563656976654C
:1081D000642066726F6D207468652048414C0D0AFA
:1081E00000285B4174746573745D20456E636F6431
:1081F000696E672070726F66696C655F6465666939
:108200006E6974696F6E202873697A653A202564F7
:10821000293A2025730D0A003C4372656174696E2A
:108220006720616E20656D70747920495453206613
:108230006C617368206C61796F75742E0A003C4321
:1082400072656174696E6720616E20656D70747906
:1082500020505320666C617368206C61796F75746F
:108260002E0A003C54464D204657553A206F706503
:108270006E696E6720666C617368206661696C6503
:10828000642E0A001E25733A20536B697070696E64
:1082900067206B65795F6964202530387820286F06
:1082A000776E65723A202564292064756520746FA5
:1082B000202530387820706C6174666F726D20658F
:1082C00072726F720D0A0000000070FF76FF7CFF73
:1082D00079FF5053415F494F545F50524F46494CCC
:1082E000455F3100915E040C6D5E040C355E040C3C
:1082F000115E040CF55D040CC95E040C715D040C88
:10830000395D040CFD5C040CB167040C3D68040C81
:10831000C567040C0968040C0D68040C010000001A
:108320000200000004000000010000000200000044
:10833000040000000400000001640000ACE5040C2F
:10834000004004000000080003650000F4E5040C90
:10835000000010000000080002640000ACE5040CFE
:10836000000010000000100004650000F4E5040C9B
:1083700000001800000010000200000074666D5F2D
:108380006275696C74696E5F6B65795F6C6F61644F
:1083900065725F696E6974000000000000000000F3
:1083A000C0EA040CC01104307701000040EA040C5C
:1083B000002803302000000020EA040C00000330F5
:1083C00008000000A0170430EE19000080280330D8
:1083D000503A000020000330F8020000074AD2F8AB
:1083E000883043F47003C2F8883002F50032D2F8C6
:1083F000883043F47003C2F88830704700ED00E025
:10840000704738B50446002839D0437A03F0FF029C
:1084100013B90272FFF7F4FF022322686372136834
:10842000616823F004031360136823F0804323F092
:1084300020030B4343F080431360136823F0804311
:10844000136007F06BFE054623681A68510009D4D3
:108450001A6842F004021A605B685A0611D50423B8
:1084600063720CE007F05AFE401B0428ECD9236825
:108470001B685800E8D5012363720223E3600120E2
:1084800038BD07F04BFE05462368586810F004001D
:1084900003D101236372E060F2E707F03FFE401B67
:1084A0000428F1D923685B685B07EDD50423E3E773
:1084B0007047002307B5019303685A68510709D430
:1084C0005A6822F040025A60C36823F00803C36070
:1084D000002018E01A6842F080421A601A6822F000
:1084E00080421A6004220192019A013A0192019A93
:1084F00062B901234372C368027243F00203C3608E
:10850000FFF7D6FF012003B05DF804FB1A685200A4
:10851000EAD45A68510642BF5A6822F040025A60B3
:1085200004220192019A013A0192019A002AE0D0B4
:108530005A685207F6D4C7E7F8B5037A0446012B08
:108540000E4643D00123427A03729A42D5B239D102
:108550000223437203685B685F061BD407F0DEFDED
:10856000074623685A68D0071CD59A685968226163
:10857000490642BF0822E2605A684FF0000544BF36
:1085800022F001025A604FF0010358BF326063725B
:10859000002315E00823C360FFF78BFF0128DDD11E
:1085A0002846F8BD07F0BAFDC01B0428D9D92368B6
:1085B0005B6813F00103D4D1012262720222E260EF
:1085C0002372EDE704221D46C260E1E70225E7E7DA
:1085D000042A09DB0B68036000F1040001F10401C7
:1085E000A2F10402042AF5DA002A09D00B780370FC
:1085F00000F1010001F10101A2F10102012AF5DA05
:1086000070470000044B82B0186883B26FF30F000C
:10861000184302B0704700BFF0E5040C0C2070470F
:1086200000207047012805D902280CBF00206FF0F8
:10863000040070476FF0030070476FF0030070474D
:10864000014B1868704700BF6056043000487047FF
:10865000D8E5040C08B54FF47A7000F03DFD002019
:1086600008BD00000C4B70B55A6992B11C6900231B
:1086700001390144151DA34201D1002070BD52F8FB
:108680003360864203D855F83360B14201D90133D3
:10869000F1E70120F2E700BF141704302DE9F041A3
:1086A0001446204B96001A78074622F002021A70F0
:1086B000421E02EB8402B2F5001F0D4611D31A4A86
:1086C00094693CB16FF004001A7842F002021A700B
:1086D000BDE8F0813246FF21284611F055FB2046C7
:1086E000F6E70023DFF844803146C8F80030FFF792
:1086F000B9FF324690B107F140612846FFF768FFA5
:10870000D8F8003023B132460021284611F03CFB56
:10871000002324F04040C8F80030D9E707F1006199
:10872000EBE700BF60560430141704306456043081
:1087300038B50E4D6B68DC0709D40C4B5A689007AE
:1087400011D45A68520744BF0422DA6038BD07F0DA
:10875000E5FC04466B689907EFD407F0DFFC001BCB
:108760000128F7D9E9E70222DA60EAE700040350BA
:108770000B4A10B5D36823F00203D36007F016FD4F
:1087800007F0CCFC044607F02DFD40B107F0C6FC15
:10879000001B0128F7D907F025FD0028F3D010BDF4
:1087A000000403502DE9F04F454F87B03B784FEA66
:1087B0008208019123F002034146064615463B70AC
:1087C000FFF750FFF0B14FF0020B4FF0406A721EFE
:1087D0004244B2F5001F0CD248EA060414F00F041C
:1087E00007D1384BD3E902C1234601F1040E63459A
:1087F0000DD16FF004003B7843F002033B7007B0EB
:10880000BDE8F08F4FF0006ADFF8BCB0DFE751F849
:108810003300864203D35EF83300824244D90133E9
:10882000E5E700F02DFC3B7843F001033B70019B32
:108830001022191902A811F082FA029B049A0599D4
:108840001A40039B0B40B3F1FF3F08BFB2F1FF3F5B
:1088500024D00AEB0601584602AA214400F088FC05
:1088600081461034A04502D0B9F1000FDFD03B782B
:10887000414623F0010330193B70FFF7F3FE80B14E
:1088800000F01EFCFFF754FF07F086FCB9F1000F63
:1088900025F0404018BF4FF0FF30B0E74FF000091F
:1088A000DFE700F001FCEDE7FFF762FF41463046ED
:1088B000FFF7D8FE0028B4D100F0CEFBB3E700BF2D
:1088C00060560430141704300200008070B5B0F513
:1088D000001F044686B008D2C0F30C032BB92F4A00
:1088E000D2E90012101D8B4208D16FF004002C4A0F
:1088F000137843F00203137006B070BD52F8335082
:10890000AC4203D350F83350AC4207D90133EAE705
:1089100000F0A2FB24E000F0C7FB36E00421204673
:10892000FFF7A0FE00281F4B18BF0423B4F5801FDB
:10893000029334BF0123022303930123184E0593AE
:10894000630B0493FFF714FF3378042123F0020331
:1089500020463370FFF786FE0028D9D000F090FB48
:10896000337801A943F0010302A8337000F0C4FC7E
:108970003378054623F00103042120463370FFF7C6
:1089800071FE0028C7D000F09BFBFFF7D1FE07F077
:1089900003FC281E18BF01204042ADE71417043025
:1089A0006056043004000080084BD3F80421002AEC
:1089B0000ADAD3F8042142F00042C3F80421044A41
:1089C0001368013313607047FEE700BF00200250B8
:1089D00064560430F0B50246082400204FF4000627
:1089E00080274FF0200C4FF400150A4913064CBFA6
:1089F0008F618E614300C1F818C0D8B20B69520074
:108A00005B0648BF40F00100013CD2B28D61EDD160
:108A1000F0BD00BF00000242044B82B0186883B270
:108A20006FF30F00184302B0704700BF38E6040C24
:108A3000002070470020014B1870704768560430C2
:108A4000002070476FF0030070470000014B18686A
:108A5000704700BF6C5604300048704720E6040C95
:108A6000F8B50E466AB10F46451E541815F8010FA9
:108A7000FFF7B0FF06B138700137A742F6D10020EA
:108A8000F8BD4FF0FF30FBE72DE9F04F81468A46F5
:108A9000904600244FF0030BC3B0194F01AD44457D
:108AA00001D3002021E0A8EB0406B6F5807F28BFA3
:108AB0004FF4807604EB09031A0C6A701A0AFF213E
:108AC000AA7002A83246EB7085F800B011F05CF98C
:108AD0004FF480232946BB612846321DFFF7C0FFB3
:108AE0000423BB6120B14FF0FF3043B0BDE8F08FED
:108AF0000AEB0400324602A911F021F93444CEE712
:108B00000004024238B503461446E9B1E2B1104D03
:108B10002D78CDB11344B3F5800F15D80D4D2B78BA
:108B200043F001032B70FFF7AFFF2B7838B14FF004
:108B3000FF3023F0030343F002032B7038BD60F3D2
:108B400000032B702046F9E76FF00400F6E700BF42
:108B5000685604306C5604300346084671B1B3F5CC
:108B6000801F0AD34A42934207D8013B0B44B3F516
:108B7000201F2CBF002001207047002070470000FC
:108B80002DE9F0418CB00C4617460A46014668466E
:108B90001E4611F0D4F84FF48022164B9A610EB3A2
:108BA00004AD22466946284604EB06082C4411F021
:108BB000C6F83246FF21204611F0E6F8294628463D
:108BC0004246FFF74DFF054628B927B132462146F8
:108BD000384611F0B4F804222846064B9A610CB0CE
:108BE000BDE8F081224631466846FFF739FF054669
:108BF000F1E700BF00040242052313B50A4C8DF8CB
:108C0000063001230DF1070219460DF10600FFF7AA
:108C1000B7FF28B99DF80730DB0703D5013CF0D139
:108C20004FF0FF3002B010BD80C3C901062307B565
:108C30008DF80730002301211A460DF10700FFF7D8
:108C40009FFF03B05DF804FB2DE9F041C3B213446C
:108C5000B3F5807F044688461546C2B004D94FF06C
:108C6000FF3042B0BDE8F081FFF7E0FF0746002883
:108C7000F5D102232A4641468DF8043002A8230C80
:108C800064BA8DF80530ADF8064011F058F84FF48D
:108C90008023074C01AEA361394630462A1DFFF7F9
:108CA000DFFE0423A3610028D9D1FFF7A5FFD8E791
:108CB000000402422DE9F843804614460F4679B37A
:108CC00072B3194B1B785BB31146FFF745FF38B3FE
:108CD000A146164E337843F0010333705FFA88F5EE
:108CE000C5F580754D4528BF4D4639462A46404654
:108CF000FFF7AAFF48B14FF0FF30337823F00303AA
:108D000043F002033370BDE8F883B9EB0509A844CA
:108D10002F44E3D13378204669F300033370F2E740
:108D20006FF00400EFE700BF685604306C56043063
:108D300073B51E4B0E461B78044611469BB3B0FB21
:108D4000F2F302FB130373BBFFF706FF58B3184D92
:108D50002B7843F001032B70FFF768FF034648B1FF
:108D60004FF0FF302B7823F0030343F002032B7006
:108D700002B070BD0421220C8DF8052064BA0246B1
:108D80000DEB01008DF80460ADF80640FFF7F8FE2A
:108D90000028E5D1FFF730FF0028E1D12B7860F300
:108DA00000032B70E4E76FF00400E1E7685604303D
:108DB0006C5604304FF480522021FFF7B9BF9F2337
:108DC00007B502468DF8073060B1032301210DF18C
:108DD0000700FFF7D5FE003818BF0120404203B05E
:108DE0005DF804FB6FF00400F9E7000000232DE9B3
:108DF000F04F634F8BB03C78ADF804308DF80630FF
:108E0000002C40F0BA805F4ECDE9074433780994D6
:108E100023F0030333705C4B0125D3F88C204FF013
:108E2000200A42F00102C3F88C20D3F88C204FF0C6
:108E3000800902F001020292029AD3F88C204FF0CE
:108E4000400B42F00202C3F88C20D3F88C304FF074
:108E5000040803F002030393039B03234B4805A973
:108E600008930695CDF814A000F0A2FA22465146C8
:108E7000464800F03BFB454805A9CDF8149000F0AA
:108E800097FA22464946414800F030FB3F4805A981
:108E9000CDE90645CDF814B000F08AFA3C4805A9A2
:108EA000CDE90655CDF8148000F082FA2A464146F5
:108EB000374800F01BFB22465146344800F01BFBAC
:108EC00022465946314800F016FB224649462F48B3
:108ED00000F011FB224641462D4800F00CFB102407
:108EE000FF20FFF777FD013CFAD1AB2322468DF836
:108EF0000330012123460DF10300FFF741FE4FF43B
:108F0000FA530593059C84BB6623224601218DF804
:108F100003300DF103002346FFF732FE992322466A
:108F20008DF80330012123460DF10300FFF728FEE1
:108F300049F640430493049BD3B901A8FFF73FFFD0
:108F40009DF80430EF2B07D19DF80530402B03D15D
:108F50009DF80630162B0ED04FF0FF30337843F0DB
:108F6000020333700BB0BDE8F08F059B013BC8E7EF
:108F7000049B013BDEE701233B700020F2E700BFCA
:108F8000685604306C560430000C02540000025243
:108F9000000402520C4B10B50C4A9C680C4B13EAAF
:108FA000240338BF13461A6842F002021A60EFF336
:108FB000108272B60023CC58C4500433102BFAD15F
:108FC00082F3108810BD00BFF81604302C20025028
:108FD0002820024030B50F4DAB68002BAABF0E4BC6
:108FE0000E4B0F4A1C68B8BF0E4A44F002041C60C6
:108FF000AB68146803F0040323431360EFF310829B
:1090000072B60023CC58C4500433102BFAD182F32B
:10901000108830BDF81604302C2002502820024061
:109020004420025040200240084B10B5084A9C687A
:10903000084B13EA240338BF13461A6842F00202B1
:109040001A600B889BB2038010BD00BFF816043075
:109050002C20025028200240074B9A6AD20741BFB9
:10906000064A5A6002F188325A6046BF986A00F098
:1090700001000120704700BF002002502301674516
:10908000074BDA6AD20741BF064A9A6002F188327A
:109090009A6046BFD86A00F001000120704700BF07
:1090A0000020025023016745044B9A6A42F00102F6
:1090B0009A62986AC04300F0010070470020025095
:1090C000044BDA6A42F00102DA62D86AC04300F067
:1090D0000100704700200250F8B5054607F01EF861
:1090E0001D4E1E4CB2681E4B074614EA220438BFC0
:1090F0001C46236813F00B0F1AD1B168194B1A4A9A
:109100001A4812EA210238BF1A462168036A01F49C
:109110007E0103F400030B4315D07168194371609D
:1091200013601A0202D54FF40003036301200EE01E
:10913000691CDED006F0F2FFC01BA84201D8002D4A
:10914000D7D1032003E02368DB0301D40020F8BD5E
:109150004FF480331360F9E7F81604302020024002
:1091600024200250342002503020024000200250BF
:109170002DE9F041264D04462B780E46012B17466B
:1091800044D001232B7000234FF47A706B60FFF7FB
:10919000A3FF50BB1F4B204AAC6012EA240838BF23
:1091A000984624F00043022B23D139463046FFF77E
:1091B000F1FE4FF47A70FFF78FFFD8F8003024F0FB
:1091C000304222F0040223EA0203C8F80030134BB5
:1091D0009C420AD1A968124A124B13EA210338BFF4
:1091E00013461A6822F004021A6000232B70BDE8AF
:1091F000F0810D4B24F004029A423946304602D1E8
:10920000FFF7E8FED5E7FFF70FFFD2E70220EEE712
:10921000F81604302C2002502820024006000010CE
:10922000442002504020024002000010124B134A1A
:109230009968134B13EA210338BF134600F0030269
:10924000032A06D11A6842F4004242F020021A6052
:109250007047C10707D51A6822F0004222F02802A1
:1092600042F028021A608207F2D51A6842F00042E2
:1092700042F02802EBE700BFF81604302C20025021
:1092800028200240064B074A9968074B13EA21033E
:1092900038BF13461A6842F008021A60704700BFD0
:1092A000F816043044200250402002400F4B104A70
:1092B00010B59C680F4B800113EA240338BF134696
:1092C000C9071A680AD522F0004222F4FE521A6039
:1092D0001A68024342F024021A6010BD22F4FE52C2
:1092E0001A601A68024342F00042F3E7F8160430AD
:1092F0002C200250282002402DE9F843294E054633
:1093000033788946012B4AD00123337000234FF470
:109310007A707360FFF7E0FE0446F0B92B682249CB
:10932000224AB36011EA230838BF904648F2080287
:1093300023F00041914215D16868FFF777FF4FF4A1
:109340007A70FFF7C9FE04462A68D8F8003022F088
:10935000004223EA0203C8F800300023337020469D
:10936000BDE8F883082B02D1FFF78CFFE7E74FF049
:10937000FF33C9F80030AF68D5E902231344BB427C
:10938000E2D938466968FFF791FF4FF47A70FFF72A
:10939000A3FE10B1C9F80070D5E70137ECE702244D
:1093A000DDE700BFF8160430282002402C200250D0
:1093B0002DE9F04F00234FF00F094A4A4A4D02EAC7
:1093C00090280A6832FA03F401D1BDE8F08F012435
:1093D00004FA03FA1AEA020270D04C6824F010076B
:1093E000022F16D14FEAD30C00EB8C0C03F0070EC2
:1093F000DCF820604FEA8E0E09FA0EFB26EA0B0B12
:109400000E6906F00F0606FA0EF646EA0B06CCF8D1
:1094100020600326D0F800B04FEA430E06FA0EFC97
:109420002BEA0C0B6FEA0C0604F0030C0CFA0EFC92
:10943000013F4CEA0B0C012FC0F800C040D9032CAF
:109440003CD0C76837408E6806FA0EF63E43C660C9
:10945000E60033D523F0030707F1A84707F50837DF
:1094600003F00306D7F860C0F60009FA06FE2CEAFE
:109470000E0C08FA06F646EA0C063E66D743D5F807
:10948000806014F4803F0CBF3E401643C5F88060F6
:10949000D5F8846014F4003F0CBF3E401643C5F875
:1094A00084602E6814F4801F0CBF3E4016432E606B
:1094B0006E68A40254BF3E4016436E60013380E7DD
:1094C000876806EA070CCF6807FA0EF747EA0C0729
:1094D0008760476827EA0A0C27099F4047EA0C077C
:1094E0004760AEE77F7F2B00002002540AB1816104
:1094F00070478162704770B500240126036B51FAF2
:1095000004F501D1036370BD06FA04F529421EBFBC
:10951000AB4302FA04F52B430134F0E7B1F5417F88
:1095200030B580F08C80050F00F01F0202EB45146F
:109530005A2C00F28480830658D5002C7FD140F24B
:1095400001138B432BD13F4B1A694FF0FF321A6145
:1095500058693D4A02435A619A6942F0BF6242F437
:10956000FF2242F4E06242F003029A6140F20223D9
:109570008B4327D1334B1A6A4FF0FF321A62596A74
:10958000314A0A435A629A6A42F0BF6242F4FF22A9
:1095900042F4E06242F003029A62002030BDCD0541
:1095A000E4D5284B1A691C615869284A02405A615F
:1095B0009A6922F0BF6222F4FF2222F4E06222F0D4
:1095C0000302D2E78C05E8D51E4B1A6A00221A6204
:1095D000596A1E4A0A405A629A6A22F0BF6222F40D
:1095E000FF2222F4E06222F00302D5E740F20110EC
:1095F000174B88432B444FEA83030FD101201C688B
:1096000090402043186040F2022088430ED101218F
:10961000186901FA02F202431A61BEE7C805F2D5E1
:1096200001241868944020EA0400EBE78905B4D5CA
:109630000120196900FA02F221EA0202ECE7012096
:10964000ACE700BF0024035007FF0FFFF800F00055
:1096500004C90014036843F001030360704700006D
:1096600020F0805323F48023B3F1005FF0B504D0E1
:10967000244B20F080529A4242D10E6836F00043CB
:109680003ED14C6834F080453AD120F08050B0F1A2
:10969000005F2DD01C4B98422ED04FF4A0201B4BC6
:1096A0000022800B01F1840702F1800C57F804EFCF
:1096B0000132904243F82CE0F6D126430A1D05F111
:1096C000400452F8047F0135A84243F82470F6D1D3
:1096D0004FF0FF32824000201C69D1F8081122406F
:1096E0000A431A611A6822F0404232431A60F0BD00
:1096F0004FF48020064BD3E74FF48030054BCFE783
:109700000120F4E70000052000000420003403508D
:10971000002C03500030035020F08050B0F1005F67
:1097200030B52BD01A4B98422CD003F58033984299
:109730002CD14FF4A023174C980B2368043103F06D
:1097400080420A604FF0FF3203F0004341F8043CCE
:109750002369824023EA0203C1F80431002304EBA9
:109760008302D2F80051013341F8045FD2F800229D
:109770009842C1F88020F2D1002030BD4FF4802300
:10978000054CD9E74FF48033044CD5E70120F4E7CA
:109790000000042000340350002C0350003003501C
:1097A000030F00F01F0101EB43127D2A19D8800638
:1097B0000CD5B2B94FF0FF320B4B1A600B4A5A600E
:1097C0000B4A9A600B4ADA6000207047012203F1CD
:1097D000A05303F54A439B0018688A4002431A606D
:1097E000F2E70120704700BF0028035007FF0FFF7A
:1097F00003FFFF05FF0F3F3FBFF34F8F0549064BA8
:10980000CA6802F4E0621343CB60BFF34F8F00BF1E
:10981000FDE700BF00ED00E00400FA0508B5FFF722
:10982000EBFF0320704748B14FF440324FF48033D0
:10983000C0E9002301230372002070474CF2DA20B4
:10984000704748B14FF480224FF48043C0E90023B1
:1098500001230372002070474CF2DA2070470000A9
:10986000BFF34F8F0549064BCA6802F4E062134309
:10987000CB60BFF34F8F00BFFDE700BF00ED00E0FE
:109880000400FA050A4B37B51B786BB1094C6369C4
:10989000984748B9E56AA847C307FCD4236A0193EF
:1098A00003B0BDE830401847002003B030BD00BF12
:1098B0007056043088E7040C10B50B4C0020A368E8
:1098C000984780B902202369984760B94FF4E13185
:1098D0000120A46AA04730B901211520A04710B982
:1098E0000122024B1A7010BD88E7040C7056043038
:1098F000FFF7C8BF07B50421072001AA00F0D6FB77
:1099000040B9019B072B02D8034A32F8130003B079
:109910005DF804FB0020FAE73CE6040C73B50A4648
:1099200005460E4601680A2000F0C0FB044670B9E7
:109930000A2001A900F086FB044640B92968019B72
:109940003046994228BF194610F0E6F928602046B3
:1099500002B070BD034618B111B100201860704705
:1099600043F65C2070470A460146062000F09EBB85
:1099700013B50A4604460168082000F097FB50B969
:10998000082001A900F05EFB28B92268019B9A42D9
:1099900094BF2260236002B010BD73B50A4605462D
:1099A0000E460168092000F081FB044670B90920C9
:1099B00001A900F047FB044640B92968019B3046E5
:1099C000994228BF194610F0A7F92860204602B036
:1099D00070BD37B50422BD3084000D4620460DEB26
:1099E000020100F073F958B9019B5A1C0AD0AB422E
:1099F0000BD8042220460DEB0201019500F0A6F9D8
:109A000003B030BD45F2A350FAE74AF2C530F7E79C
:109A100070B5A2B00D4601A9064600F013FB04463E
:109A200010BB019B802B28BF8023B5EBC30F019394
:109A300021D80146802202A810F0A6F9FF21EA08E9
:109A400002ABA24213D104F188030DEB03040123FE
:109A500005F00705AB40013B3046019902AA04F826
:109A6000803C00F0C7FB0446204622B070BD03F8DE
:109A7000011B0134E5E745F2A354F5E7F0B5A3B0C7
:109A80000D466946064600F0DDFA0446C8B900995D
:109A90003046802928BF802102AA009100F006FBF1
:109AA000044670B901460246009F019002ABB842DD
:109AB0000AD102B10191042228460DEB020110F0F7
:109AC0003EF9204623B0F0BD002213F801CB4CFA3A
:109AD00002F6013206F00106082A3144F7D10122CC
:109AE0000130E4E706281BD8DFE800F004090D1177
:109AF0001416180004224FF43D7000F0E7B8042259
:109B00004FF43E70F9E704224FF43F70F5E7102060
:109B1000FFF7B4BF1120FBE71220F9E71320F7E7A6
:109B20004CF25A30704700F0E5B9042902D11146D1
:109B3000FFF7D8BF43F65C20704737B505460C46A3
:109B4000062824D8DFE800F0041517191D1F21008E
:109B50000020FFF73EFF50B9284601A9FFF7C2FFDA
:109B600028B943F65C23019AA24218BF184603B0F5
:109B700030BD0120EDE70220EBE71020FFF748FFA2
:109B8000E9E71120FAE71220F8E71320F6E74CF294
:109B90005A30ECE713B501A90446FFF7A3FF30B92B
:109BA00001994B1C05D020460131FFF7C6FF02B0DA
:109BB00010BD45F2A350FAE7022905D90839022958
:109BC00009D94CF25A307047B0F5807F4CF25A30C8
:109BD00008BF0020704700284CF25A30B8BF002060
:109BE0007047022804D819B1083008600020704777
:109BF0004AF2C530704700000048704700FC04304E
:109C00004FF480607047000070B50446074E451859
:109C1000A54201D8002070BD2046F369984710B9CD
:109C200004F50054F4E743F65C20F4E7ACE5040CDB
:109C30002DE9F84FDFF864A00746DAF804308846CB
:109C4000154698470024134BC0F3410013F82090A9
:109C500004F18003AB4294BF80262E1BB6FBF9FBB8
:109C6000DAF814305A460C493819984700280EDBA8
:109C70005A46DAF81830084908EB040098470028DB
:109C800005DB3444A542E3D80020BDE8F88F43F655
:109C90005C20FAE74CE6040C71560430ACE5040C89
:109CA00008B54FF400514FF42830FFF7ADFF48B925
:109CB000BDE808404FF400524FF428314FF42030F3
:109CC000FFF7B6BF43F65C2008BD00002DE9F3475F
:109CD000DFF874900546D9F8043088461446984752
:109CE000184BC0F3410013F820A0B5FBFAF70AFBAC
:109CF000175727BBA4B9384602B0BDE8F0870AFB66
:109D000006F6A41BF7D0012201A9A819C84700280C
:109D100012DB224601A908EB060010F010F8EAE772
:109D2000B4FBFAF605F52035324641462846D9F807
:109D30001490C8470028E2DA43F65C27DBE74AF2D2
:109D4000C537D8E74CE6040CACE5040C2DE9F04F20
:109D500086187542C5F30C05354485B0B5F5005F2E
:109D60000446019104D943F65C2005B0BDE8F08FAC
:109D7000DFF87881D8F8043098470422584BC0F3B4
:109D8000410053F82070D8F8143056480093FBB2C5
:109D9000B2FBF3F203A9009B9847039A531C0232CB
:109DA00008BF01230393002D34D024F4FF5B2BF074
:109DB0001F0BA5EB0B010BF52030FFF725FF00284B
:109DC000D1D1B5F5407FAA4628BF4FF4407ADA4595
:109DD00029D8B5F5407F5ED3FBB21027B7FBF3F768
:109DE000414D3A4629463F48009B9847B6F5407F8B
:109DF0005CD8042203A93C480FF0A1FF3B4B3A4634
:109E000039493B489B69984708B18742ABD1FFF776
:109E100047FFAAE74FF400514FF42030FFF7F4FE5C
:109E20000028C2D09FE70BF180039A452CBF4FF06A
:109E30008009AAEB0B095FFA87F8B9FBF8F82A4901
:109E40004246009B0BF5283098475E4516D909EB32
:109E50000B039C4212D2A3455A4638BF2246111B1F
:109E6000A2EB0B009E4294BFC2EB0602C2EB0302C0
:109E7000019B19441C4B18440FF061FF1B4B4246D9
