:020000040C07E7
:108000003DB8F3960000000000047B00004C050022
:10801000000000000203000000000000000000005B
:10802000FFFFFFFFFFFFFFFFFFFFFFFFFFFFFFFF60
:10803000FFFFFFFFFFFFFFFFFFFFFFFFFFFFFFFF50
:10804000FFFFFFFFFFFFFFFFFFFFFFFFFFFFFFFF40
:10805000FFFFFFFFFFFFFFFFFFFFFFFFFFFFFFFF30
:10840000F82B04305987070CB103080CE925080C38
:10841000E925080CE925080CF941080CCD41080CA8
:108420000000000000000000000000007D22080C99
:108430004D86070C000000004F86070C5186070C84
:108440005386070C5586070C5786070C5986070C70
:108450005B86070C5D86070C5F86070C6186070C40
:108460006386070C6586070C6786070C6986070C10
:108470006B86070C6D86070C6F86070C7186070CE0
:108480007386070C7586070C7786070C7986070CB0
:108490007B86070C7D86070C7F86070C8186070C80
:1084A0008386070C8586070C8786070C8986070C50
:1084B0008B86070C8D86070C8F86070C9186070C20
:1084C0009386070C9586070C9786070C9986070CF0
:1084D0009B86070C9D86070C9F86070CA186070CC0
:1084E000A386070CA586070CA786070CA986070C90
:1084F000AB86070CAD86070CAF86070CB186070C60
:10850000B386070CB586070CB786070CB986070C2F
:10851000BB86070CBD86070CBF86070CC186070CFF
:10852000C386070CC586070CC786070CC986070CCF
:10853000CB86070CCD86070CCF86070CD186070C9F
:10854000D386070CD586070CD786070CD986070C6F
:10855000DB86070CDD86070CDF86070CE186070C3F
:10856000E386070CE586070CE786070CE986070C0F
:10857000EB86070CED86070CEF86070CF186070CDF
:10858000F386070CF586070CF786070CF986070CAF
:10859000FB86070CFD86070CFF86070C0187070C7E
:1085A0000387070C0587070C0787070C0987070C4B
:1085B0000B87070C0D87070C0F87070C1187070C1B
:1085C0001387070C1587070C1787070C1987070CEB
:1085D0001B87070C1D87070C1F87070C2187070CBB
:1085E0002387070C2587070C2787070C2987070C8B
:1085F0002B87070C2D87070C2F87070C3187070C5B
:108600003387070C3587070C3787070C3987070C2A
:108610003B87070C3D87070C3F87070C4187070CFA
:108620004387070C4587070C4787070C4987070CCA
:108630004B87070C4D87070C4F87070C5187070C9A
:108640005387070C5587070C5787070CFEE7FEE793
:10865000FEE7FEE7FEE7FEE7FEE7FEE7FEE7FEE7F2
:10866000FEE7FEE7FEE7FEE7FEE7FEE7FEE7FEE7E2
:10867000FEE7FEE7FEE7FEE7FEE7FEE7FEE7FEE7D2
:10868000FEE7FEE7FEE7FEE7FEE7FEE7FEE7FEE7C2
:10869000FEE7FEE7FEE7FEE7FEE7FEE7FEE7FEE7B2
:1086A000FEE7FEE7FEE7FEE7FEE7FEE7FEE7FEE7A2
:1086B000FEE7FEE7FEE7FEE7FEE7FEE7FEE7FEE792
:1086C000FEE7FEE7FEE7FEE7FEE7FEE7FEE7FEE782
:1086D000FEE7FEE7FEE7FEE7FEE7FEE7FEE7FEE772
:1086E000FEE7FEE7FEE7FEE7FEE7FEE7FEE7FEE762
:1086F000FEE7FEE7FEE7FEE7FEE7FEE7FEE7FEE752
:10870000FEE7FEE7FEE7FEE7FEE7FEE7FEE7FEE741
:10871000FEE7FEE7FEE7FEE7FEE7FEE7FEE7FEE731
:10872000FEE7FEE7FEE7FEE7FEE7FEE7FEE7FEE721
:10873000FEE7FEE7FEE7FEE7FEE7FEE7FEE7FEE711
:10874000FEE7FEE7FEE7FEE7FEE7FEE7FEE7FEE701
:10875000FEE7FEE7FEE7FEE707B50022264B83F8BB
:10876000042310221A60254B83F30A88244A254BE0
:108770009360D3680193019B019B83F07F4383F453
:108780007F0343F4C043D3601F4BD3F8A82042F0CB
:108790000202C3F8A820D3F8A8301C4A0193019B19
:1087A000D2F8483143F00103C2F8483104F076FBB7
:1087B000174B18498B4212D30020174B17498B4295
:1087C00018D30BF004FE186850F82240586840F89F
:1087D0002240013298688242F5D30C33EAE7002246
:1087E000F8E71C6844F8220001325C68A242F8D322
:1087F0000833E4E70022F8E700E100E00024043059
:1088000000ED00E00084070C000C0254000400544A
:1088100060CE070C84CE070C84CE070C9CCE070CD0
:1088200001015F5F030100001F010000118B070CB5
:108830000000000000000000010000000100000036
:108840000000000000000000000000000000000028
:10885000021F000000000000000000007000000087
:10886000CC90090C80000000000F00000100000007
:108870002D8B070C01015F5F050100001F01000047
:10888000699B070C000000000000000001000000D0
:1088900001000000000000000000000000000000D7
:1088A00000000000031F00000000000000000000A6
:1088B00080000000D790090C20000000030F00008A
:1088C00001000000A59A070C01015F5F0001000094
:1088D0001F0000003949080C0000000000000000E3
:1088E0000300000001000000000000000000000084
:1088F0000000000000000000051F00000000000054
:108900000000000080000000700000004000000037
:10891000EF90090C6000000001070000010000005A
:108920001148080C01015F5F010100001F010000F8
:108930008FA1070C000000000000000000000000F4
:108940000100000000000000000000000000000026
:1089500000000000011F00000000000000000000F7
:108960000D91090C70000000020F000001000000D2
:1089700095A1070C01015F5F040100001F010000C9
:108980003FB7070C000000000000000000000000DE
:1089900001000000000000000000000000000000D6
:1089A00000000000011F00000000000000000000A7
:1089B0003291090C40000000050700000100000092
:1089C0002BB5070C01015F5F0F0100001F010000C4
:1089D000FDBB070C000000000000000002000000CA
:1089E0000100000000000000000000000000000086
:1089F00000000000041F0000000000000000000054
:108A000080000000400000004791090CA000000019
:108A1000040F00000100000001B8070C00015F5FB7
:108A200002000000FE0B00000124080C20280000BA
:108A30000000000000000000000000000000000036
:108A4000000000000100FFC3000000C400FE0000A1
:108A500020DC04300000000001015F5FC30B000058
:108A60001F000000AB55080C0000000000000000D3
:108A700000000000030000000000000000000000F3
:108A80000000000000000000011F000000000000C6
:108A9000000000006391090C00F10000060B0000CB
:108AA000010000006355080C7691090C01F10000EB
:108AB00000010000010000007955080C9091090C9C
:108AC00002F1000000010000010000009B55080CAD
:108AD0000000000000000000000000000000000096
:108AE00038B50025054B294603F5A04418462268F1
:108AF00065600DF08BFC256038BD00BF803C043004
:108B0000024B5B6803600020704700BF808C04301C
:108B100008B500F015F940B900F082FF00F08CFFB5
:108B200018B9BDE8084012F085B908BD2DE9F04F2D
:108B300004680546A3B0002C40F0F98021462022AD
:108B400004A80DF063FC214620220CA80DF05EFC69
:108B50002146042414AF382238460DF057FC05F1A5
:108B6000200353F8041D2246013C09B1144601E0DC
:108B7000002CF6D1042605F1300353F8041D3246CB
:108B8000013E09B1164601E0002EF6D12CB96FF076
:108B90008304204623B0BDE8F08F38233A460021F5
:108BA00068680BF059FC3828F1D1CDE90470012731
:108BB000DFF888A10DF1100805F110090AF5A04BA6
:108BC000BC422AD10CAF3C4600215A4A05F11C0098
:108BD000136800EB8608A2F5A04940453BD101B1DE
:108BE00013600023CDE90233059BA968382B51603F
:108BF000049A40F09080138D180A032857D001285A
:108C00007ED01268831ECDE90221072B7DD8DFE8D4
:108C100003F03F4E53595F656B7159F8043F1A1DBD
:108C200020D8DBF80000D91C21F00301C0F5A042D8
:108C3000914217D8014400EB0A02CBF80010686893
:108C4000394601920BF008FC019AC8F80C00013774
:108C500048F8082FB4E750F804EF1EF1040F06D9C6
:108C600001B11360FFF73CFF6FF08C0491E70EF148
:108C7000030C2CF0030CC3F5A04AD44504F10804FE
:108C8000EED803EB090144E9021E63440121A4E785
:108C900002AA0CA904A800F015FE04464FF0000833
:108CA000464507F1080739D1FFF71AFF71E70CA90C
:108CB00004A800F0FDF9F0E702AA0CA904A800F04E
:108CC000D9FAEAE702AA0CA904A800F011F9E4E72E
:108CD00002AA0CA904A800F084FBDEE702AA0CA9F2
:108CE00004A800F082FCD8E702AA0CA904A800F0AE
:108CF000CFFCD2E702AA0CA904A800F00BFDCCE738
:108D00000CA904A800F081FEC7E70B4804F05EFB45
:108D10006FF08504C2E76FF08004BFE7414657E972
:108D2000022368680BF0A4FB08F10108B8E76FF0B4
:108D300085042EE7808C0430F0CC070C803C043096
:108D400008B54FF48C52002102480DF05FFB002063
:108D500008BD00BF888C04300023F7B50C680746B7
:108D60000E461546019314BB22B3146001A8FFF709
:108D7000C7FEA8B94FF40C7C104A0CFB04F3D15881
:108D8000A646013471B94FF0010E02EB030C42F814
:108D900003E0019910331344CCE9011734602B60D0
:108DA00003B0F0BD082CE8D16FF08400F8E76FF055
:108DB0008800F5E76FF08600F2E700BF888C04308A
:108DC0000023F7B505680193013D072D036004D921
:108DD0006FF08604204603B0F0BD01A8FFF790FEB7
:108DE00004460028F6D14FF40C735D430A4E7359C4
:108DF0007719012BECD17A68019B9A42E8D105F1F1
:108E000010004FF40872214630440DF0FFFAC7E914
:108E100001447451DEE700BF888C0430002373B531
:108E20004C1E072C06461546019303D96FF08800A7
:108E300002B070BDC2B101A8FFF762FE0028F7D1F1
:108E40004FF40C7202FB04F1094B5C585A18012CC8
:108E5000ECD19468B442E9D15468019A9442E5D1C6
:108E6000103119442960E3E76FF08600E0E700BFA6
:108E7000888C0430B0F5105F23D101F0FE43B3F1CC
:108E8000A06F124B08BF21F47E1199421BD00DD860
:108E90000F4B994217D007D80E4B994213D00E486A
:108EA0000B1A5842584170470C48F9E70C4B99424D
:108EB00009D004D80B4B994205D00B48F0E70B487A
:108EC000EEE7002070470120704700BF0010C0048B
:108ED000004140040002C00300404004004440043C
:108EE000000140050011C0040012C004000240054A
:108EF000134640F209522DE9F04F0026D0F80080C9
:108F000089B0B8F828B0074693450D46059618D1A4
:108F10000A6883682AB96FF08004204609B0BDE86A
:108F2000F08F49680329F6D9002BF4D0C1680129D4
:108F3000F1D9D8F804101888FFF79CFF10600024BE
:108F4000EBE70DF118094846D3E9002100F065FD73
:108F5000BBF5A06F13D12B1D03936B6802932B6895
:108F60000193FB680093BB68D8F8042099E80300DC
:108F700010F0EEF904460028CFD06E60CDE740F245
:108F800001539B450FD12B1D03936B6802932B68F4
:108F90000193FB680093BB68D8F8042099E80300AC
:108FA00010F07CFAE6E7ABF2025A1FFA8AF3012BC3
:108FB00019D82E68002EAED06B68032BABD9D8F829
:108FC000083031460120336005AAFFF7C5FE04468C
:108FD000002CA2D1BAF1060F67D8DFE80AF03241BF
:108FE0001E2B495461000120D8F8081005AAFFF78C
:108FF00015FFABF20753012B0446E9D82E68002E6B
:1090000089D06B68032B86D9D8F8083033600028E4
:10901000E0D0BBF5A16F92D07FE705982B1DD5E975
:10902000001210F0E5F8044600283FF476AF002364
:109030006B6072E70598D7E9021210F022F9044636
:109040006BE7D8F80430059899E8060010F0B8F8F6
:10905000044600283FF473AF3046FFF7B1FE5CE7EB
:10906000D8F80430059899E8060010F0B5F8EFE755
:109070002B1D01936B68059800932B68D7E90212AA
:1090800010F021F9CFE7059805F10C03D5E902129C
:1090900010F03AF904460028DED00023EB603CE7EC
:1090A00005980FF0D9FF0446D6E76FF0850434E742
:1090B00000232DE9F043D0F8008085B0B8F828905F
:1090C0000546A9F540720F460293082A53D8DFE8F7
:1090D00002F01C2D38525252525205000A6812B941
:1090E0006FF080040DE04B68032BF9D9D8F80430F9
:1090F00003F17E43083B032B8CBF00230123136045
:109100000024204605B0BDE8F0830B1D01934B6899
:1091100000930B68D0E90212D8F804000FF0C5F9EB
:1091200004460028EDD000237B60EAE74369009302
:109130008168D0E90323D8F804000FF0C9F9044688
:10914000DFE70E68002ECBD04B68032BC8D9D8F8C8
:10915000083031460320336002AAFFF7FDFD0446C4
:109160000028CED1D8F8041002980FF067F8044612
:109170000028C5D02BE00320D8F8081002AAFFF77A
:109180004DFE6FF441734B44022B04465DD83E689C
:10919000002EA5D07B68032BA2D9D8F80830336005
:1091A000002856D040F207339945A9D0A9E7029884
:1091B000D5E902120FF014F9C1E7029807F10C0388
:1091C000D7E902120FF024F9044620B900243046F2
:1091D000FFF7F6FD95E70023FB6092E70298D5E9DB
:1091E00002120FF02DF9044600288AD1EEE702980A
:1091F0000FF014F80446EAE700233E680393002EBC
:109200003FF46EAF7B68032B7FF66AAFAB68002B31
:109210003FF466AFEA68032A7FF662AF1B68314607
:109220000320336003AAFFF797FD044600287FF46C
:1092300068AFDDE902010FF074F9044600283FF43D
:1092400060AFC4E76FF085045BE700287FF459AF97
:109250000646A9F20333042BF4D801A252F823F0F6
:10926000AF91070CF991070CBB91070CDD91070C2E
:10927000EF91070C2DE9F04F0027D0F8009089B04E
:10928000B9F828B00DF1180806460D46D2E90021BC
:109290004046059700F0C1FBBBF5806F15D12B1D33
:1092A00003936B6802932B680193F3680093B36890
:1092B000D9F8042098E803000FF099FB044600B1A8
:1092C0006F60204609B0BDE8F08F40F201439B4536
:1092D0000ED17369029333690193F3680093B36805
:1092E000D9F8042098E803000FF096FB0446E8E75D
:1092F000ABF2024A1FFA8AF3012B1AD82F6817B96A
:109300006FF08004DDE76B68032BF9D9D9F80830DA
:10931000394602203B6005AAFFF71EFD0446002CDB
:10932000CFD1BAF1050F59D8DFE80AF01F2D353B30
:1093300049530220D9F8081005AAFFF76FFDABF2D8
:109340000543022B0446EAD82F68002FD8D06B685B
:10935000032BD5D9D9F808303B600028E1D040F282
:1093600007439B45ADD10024ABE7D9F804300598FD
:1093700098E806000FF072F904460028F3D038464A
:10938000FFF71EFD9DE7D9F80430059898E8060020
:109390000FF070F9F0E70598D6E902120FF076F9B0
:1093A000A4E7059805F10C03D5E902120FF089F93D
:1093B000044608B90024E2E70023EB6081E7059842
:1093C000D6E902120FF0F2FA044600287FF479AFD2
:1093D000F0E705980FF0C8F80446D0E76FF0850471
:1093E0006FE72DE9F04F4FF0000807688DB0B7F830
:1093F00028B00DF1280906460D46D2E9002148465D
:10940000CDF8248000F009FBBBF5C06F1ED12B1DE9
:1094100007936B6806932B680593F3680493B3680E
:10942000039373690293336901937B6A00937A68AB
:1094300007F1140399E8030010F0AEF8044608B1F0
:10944000C5F8048020460DB0BDE8F08F40F20163FE
:109450009B4517D12B1D07936B6806932B680593CB
:10946000F3680493B36803937369029333690193B8
:109470007B6A00937A6807F1140399E8030010F0FF
:10948000E3F8DBE7ABF2026A1FFA8AF3012B20D87C
:10949000D5F80080B8F1000F02D16FF08004D1E759
:1094A0006B68032BF9D9BB6841460520C8F800302A
:1094B00009AAFFF751FC0446002CC3D1BAF1090FE9
:1094C00000F29080DFE80AF02330525F66776C3755
:1094D0007D4D0520B96809AAFFF7A0FC6FF4C163B0
:1094E0005B44022B0446E7D8D5F80080B8F1000FA2
:1094F000D3D06B68032BD0D9BB68C8F800300028E4
:10950000DCD040F20B639B459CD100249AE77B683A
:10951000099899E8060010F0A9F904460028F4D04B
:109520004046FFF74DFC8DE77B68099899E80600F7
:1095300010F0A8F9F1E705F10C030293EB68099824
:109540000193AB680093D5E9041205F1140310F000
:10955000BFFA044608B90024E2E70023EB606B6120
:1095600070E7099810F0C8F80446D9E709982B1D50
:10957000D5E9001210F0B9F9044600283FF462AFB3
:1095800000236B605EE70998D6E9021210F0ABF990
:10959000044657E70998D7E9031210F003FAF7E7F2
:1095A0002B1D01936B68099800932B68D6E9021272
:1095B00010F058FAE0E70998D6E9021210F020FA04
:1095C000E6E7F36809980193B3680093D5E90212BE
:1095D00005F10C0310F0B5FA04460028BBD00023B7
:1095E000EB602FE76FF085042CE7F0B587B00768D4
:1095F00004AE04460D46D2E90021304600F00DFAD3
:109600003B8DA3F5E063032B3FD8DFE803F00214A2
:1096100022312B1D03936B6802932B680193E3683F
:109620000093A3687A6896E803000FF029FB70B1F5
:1096300000236B600BE06369029323690193E36885
:109640000093A3687A6896E803000FF0E1FB07B087
:10965000F0BD2B1D03936B6802932B680193E368A5
:109660000093A3687A6896E803000FF01FFBDEE71B
:109670006369029323690193E3680093A3687A689E
:1096800096E803000FF002FCE1E76FF08500DEE7EB
:10969000F0B589B0076806AE04460D46D2E9002150
:1096A000304600F0BAF93B8DB3F5006F07D040F6B5
:1096B000010293421AD06FF0850009B0F0BD2B1D56
:1096C00005936B6804932B68039363690293236982
:1096D0000193E3680093A3687A6896E803000FF0AB
:1096E00013FC0028E9D000236B60E6E72B1D0593EF
:1096F0006B6804932B680393636902932369019356
:10970000E3680093A3687A6896E803000FF052FCC0
:10971000E7E7000000232DE9F04706688EB0B6F8B1
:1097200028900DF1140807460D469246D2E9002113
:109730004046049300F071F9B9F5106F0FD12B1D5D
:1097400003936B6802932B680193FB680093BB68DB
:10975000706898E8060011F0EBF9044616E040F650
:109760000113994516D12F68002F00F090806B6887
:10977000032B40F28C80B368394604203B6004AA76
:10978000FFF7EAFA0446002800F0928020460EB067
:10979000BDE8F0870420B16804AAFFF73FFB044648
:1097A000A8B140F60A139945F0D12F68002F6ED06A
:1097B0006B68032B6BD9B3683B60002C7FD1049896
:1097C00010F000FA04463846FFF7FAFADEE7A9F689
:1097D0000219B9F1080F68D801A353F829F000BFA6
:1097E0000598070C1998070C2398070C4B98070C41
:1097F0003198070C9598070C3F98070C5998070C5F
:10980000AB97070C2968002941D06B68042B3ED127
:10981000049810F08FFCA0E7316B049810F093FCD3
:109820009BE7718D0498D7E9022311F07BF894E748
:10983000718D0498D6E90C2311F07EF88DE7049819
:10984000D5E9001210F098FC87E7718D049898E82C
:109850000C0011F0A5F880E72E68C6B16B68032BE9
:1098600015D9B96899B1FA68182A10D107A80AF071
:1098700089FDDAF8040007A900F0EEF842460499E1
:1098800007A811F011F8059B044633607EE76FF0DE
:1098900080047BE7FB68718D0193BB68049800939B
:1098A00098E80C0011F0EAF857E76FF085046DE7CF
:1098B0007168049811F004F80446002883D100244C
:1098C00064E700BF2DE9F0418EB003ACD0F8008012
:1098D00006460D461746D2E90021204600F09DF8C5
:1098E00040F20322B8F82830934203D0A3F5027364
:1098F000012B0ED8B16811B96FF080043CE0F2681A
:10990000182AF9D107A80AF03DFD786807A900F0E8
:10991000A3F8B8F82830A3F50073092B72D8DFE854
:1099200003F01A717105142F3D464B63D6E90412FA
:109930002E68002EE0D06B68032BDDD9234607A8E4
:109940000EF066FB0446039B4CE094E803000EF027
:109950003CFA044610E094E8030007AA2E680EF0D3
:109960005EFA2B680446002BC6D06A681C2AC3D84E
:10997000304607A90AF006FD20460EB0BDE8F0818A
:109980002B1D0093D5E9002394E803000EF092FA12
:1099900004460028F0D000236B60EDE72B1D0093F8
:1099A000D5E9002394E803000EF003FBF0E794E808
:1099B000030011F029FCCCE7002205A811462E680F
:1099C00000F02BF82B68002B96D06B68032B93D9F3
:1099D00094E8030005AB07AA0EF086FB04460028B6
:1099E000CAD1059B3360C7E72E68002E84D06B6810
:1099F000032B81D9214607A811F0E8F90446002875
:109A0000A1D0B9E76FF08504B6E7D1E9000111F004
:109A1000E0B80FB4002004B07047C0E900217047DF
:109A200008B51422024903480AF0ACFC014808BDFD
:109A300010CD070C08CE043008B54FF4405104484F
:109A40000DF06EFA03480DF0BBFA002008BD00BF10
:109A5000089E0430139A070C88617047F0B5002403
:109A600085B0CDE9000103A816461F4603940DF00A
:109A70001DF92146009A039D814202D16FF08B00AF
:109A80000BE02B4653F8204B944208D100202B6961
:109A90003360D5E90223C7E9002305B0F0BD1D46B8
:109AA0000131E9E740F2E93270B5036805469342B7
:109AB00094B008D040F2EA32934232D06FF085047D
:109AC000204614B070BD0021036A0469B3F5147F09
:109AD00004F1FF321E4628BF4FF414763F2A03914B
:109AE00022D80BB382681E4B40681A60234604AA32
:109AF0000AF0B2FC844211D103AB21460093194A0B
:109B0000334604A800F09AF904460028D8D1039BF4
:109B1000144A214668680AF0ABFCD1E76FF0830471
:109B2000CEE70369042B02D06FF08604C8E7036A0E
:109B3000042BF9D181680A4A40681160002103AA08
:109B40000AF08AFC04280646EED1039804A900F026
:109B500099F904460028B3D1334604AAD9E700BFD7
:109B60006CD004301CCE043000F05AB9002313220C
:109B700070B588B003AE054631466846CDE900238E
:109B8000029307F07EF8044650B9009B2846054929
:109B900001AA0196029300F0D6FA204608B070BDE3
:109BA0000324FAE703DBFEFF202370B58CB004AE7C
:109BB0000546314601A8019307F024F8044650B940
:109BC000019B2846054902AA0296039300F0BBFABE
:109BD00020460CB070BD0524FAE700BFFEDAFEFF98
:109BE00070B590B003AD34220021064628460CF033
:109BF0000DFC332329466846009307F01FF80446FE
:109C0000B0B9009A019502925AB90A4B01931123F7
:109C100002933046084901AA00F095FA204610B098
:109C200070BD112AF5D1294602480CF012FCF0E76C
:109C30000524F3E790CD070C08DBFEFF10B50446C2
:109C400006F0CCFF002302460249204600F058FAF5
:109C5000002010BD06DBFEFF37B5054601A800F069
:109C600087FA044628B9019A28460349D31700F019
:109C700047FA204603B030BD07DBFEFF202370B556
:109C80008CB004AE0546314601A8019306F0E4FF0E
:109C9000044650B9019B2846054902AA029603933F
:109CA00000F03DFA20460CB070BD0324FAE700BF77
:109CB00005DBFEFF37B50546684600F075F904463A
:109CC00020B96A462846034900F029FA204603B025
:109CD00030BD00BFFFDAFEFF002370B58AB002AED0
:109CE000054631462020CDE9003306F0B0FF04469A
:109CF00050B920236A46284604490096019300F093
:109D00000EFA20460AB070BD0324FAE704DBFEFF1A
:109D100037B50B4B0546019300F0F1F96A4601A9EE
:109D200000F0D6F8009B0446034305D1012200232E
:109D30002846044900F0E4F9204603B030BD00BFD6
:109D400002DBFEFF01DBFEFF2DE9F043E7B08046BA
:109D500089463048694617460CF0ACFB6C4606460F
:109D6000A0B9BDF8005005F44F43B3F5824F12D1AE
:109D7000EDB2122D0AD1BDF80230B3F5C07F1AD072
:109D8000B3F5007F23D0B3F5807F23D00525284687
:109D900067B0BDE8F083B5F5885FF7D1BDF8023054
:109DA000B3F5C07F19D0B3F5007F18D0B3F5807F2D
:109DB000ECD1052201E06FF022024B460021204643
:109DC00000F02AF968B10128E0D10225DFE76FF041
:109DD0002302F2E76FF00602EFE70622EDE7072223
:109DE000EBE7424620460C4900F099F9DFF82C8059
:109DF000204658F8043B984705460028C7D101364D
:109E0000092EF5D13946204600F042F90028DAD172
:109E1000BDE700BF5D81FF7F00DBFEFFA4CD070C27
:109E200008B500F0B9F8042896BF034B6FF0830023
:109E300033F9100008BD00BF86CD070C7FB5CDE912
:109E4000022321F01002202ACDE9000101D040298F
:109E500014D19BB1684604AA02A9FFF775FF40B967
:109E6000089B059A1A60064B33F9100007B05DF89D
:109E700004FB0428F7D96FF08300F7E70420F2E72A
:109E800086CD070C002310B586B0CDE900300293D3
:109E90006FF00043039320F01003202B0C4601D0F9
:109EA000402811D1684604AA02A9FFF74DFF30B936
:109EB000059B2360054B33F9100006B010BD042844
:109EC000F8D96FF08300F8E70420F3E786CD070C9C
:109ED0002DE9F04F88461546044685B0002855D038
:109EE000002A53D00026DFF8ACA016600DF1080B55
:109EF00042F21603BAF800209A4203D0032005B0BC
:109F0000BDE8F08FBAF80230214F5344BB420AD863
:109F10000136072EECD12B681BB1042120460CF032
:109F20002FF90020EBE704223946584601930AF046
:109F300029FABDF80820BDF80A90C2F38511B14294
:109F4000019B1FD102F03F023F2AE1D12B68013370
:109F5000012B2B600CD1B8F1000F05D0D8F80020F0
:109F60002046D3170CF092F8042120460CF0EBF8B1
:109F70000437CDE9027909219BE80C0020460CF05A
:109F80009AF8C5E709F104094F44BFE70420B6E792
:109F900074D0043070D004304FF4017201200149B4
:109FA00000F0EEB870D0043030B504469BB028B352
:109FB000154D6B68E3B912A1D1E9000107AB03931A
:109FC0004B23049305AB0093039A4B230BF01CFB2C
:109FD00010B103201BB030BD2B1D01932023DDE900
:109FE000051200932B6809480CF020FB0028F0D1E3
:109FF000074B0020236021236360EBE70420E9E79F
:10A000005D81FF7F00000000003C04300900000279
:10A01000083C0430000000007FB51C4600230546C4
:10A0200000F1A006C0F8981019463046CDE9023379
:10A030000BF07CFC04AB13E9030013A3D3E900236A
:10A040008DE8030030460BF093FC94E806002846A8
:10A050000BF05FFF294630460BF0F6FB0446022169
:10A0600028460CF070F844B1032C0BD0192C0CBF0F
:10A0700001240324204604B070BD052128460CF0BD
:10A0800062F8F7E70424F5E75D81FF7F0000000038
:10A0900070B5044686B00D4605210CF071F800211C
:10A0A00004AE32462046CDE90211CDE904110CF090
:10A0B00070F8059B02990093019404F1A000DDE97A
:10A0C00003230BF0FBFB38B1032814D019280AD066
:10A0D0000323184606B070BD314620460CF0ABF89D
:10A0E0000128034601D10123F3E730B996E80300C4
:10A0F00085E80300EDE70423EBE70223E9E7704777
:10A1000070B5044616461D460A46CB170BF0BEFF37
:10A1100032462B462046BDE870400BF0B7BF73B502
:10A12000D2E9006504460A46CB170BF0AFFF0221C7
:10A130002046CDE9006502AB13E90C0002B0BDE892
:10A1400070400BF0B8BF73B5D2E9006504460A460B
:10A15000CB170BF09BFF03212046CDE9006502AB36
:10A1600013E90C0002B0BDE870400BF0A4BF000082
:10A17000024B1B6803600020704700BF6CD00430A6
:10A1800008B50CF041F9003818BF012008BD00F0F7
:10A19000CFB800006FF47A72F0B503680446134438
:10A1A0008DB0032B7CD8DFE803F002284C6B0369E9
:10A1B000082B02D06FF080055FE08569042DF9D18E
:10A1C0000021406808AA0AF047F90828F2D12B4676
:10A1D0000221606806AA0AF03FF90428EAD1616802
:10A1E000314A63691160069ACDE90032DDE908233E
:10A1F000A06800F011F905463FE00369082BD9D1AA
:10A200004569042DD6D10021406808AA0AF024F936
:10A210000828CFD12B460121606806AA0AF01CF954
:10A220000428C7D16168204A236A116005AACDE9D4
:10A230000132069B0093A068DDE9082300F042F993
:10A24000D9E70369082BB5D1076A0C2FB2D10021D9
:10A25000406806AA0AF000F90828ABD1DDE9062318
:10A2600008AE0096A06800F07DF9054628B90146C1
:10A270003B46324660680AF0FBF828460DB0F0BD58
:10A280000369082B96D10021406808AA0AF0E4F877
:10A2900008288FD1DDE90823A06800F075F9AAE746
:10A2A0006FF08505E9E700BF74D204300246034829
:10A2B0000B46006801210AF0CFB800BF74D2043009
:10A2C000024603480B46006800210AF0D1B800BFDF
:10A2D00074D204301FB5CDE902010843019219D0B0
:10A2E00004220E480DEB02010AF04CF808220C483B
:10A2F0000DEB02010AF046F80A4C01980A4B0B4A92
:10A30000B0F5807F08BF1C460449204600F0D0FA13
:10A3100004B010BD6FF08600FAE700BFC4D404306B
:10A32000C8D4043098D2043078D20430B8D4043081
:10A3300030B5334B85B09D6AA8470369102B23D1F4
:10A34000A847304C8368A360A847037D01A8237603
:10A3500006F031FCC0B9019BA26863609DF80C3027
:10A3600021465343029A2848B2FBF3F22282274A3D
:10A37000E36000F046FA98B9234800F07DFA30B95E
:10A38000A8470369102B0DD06FF0800008E01E482D
:10A3900000F08CFA20B91C4800F06EFA0028EFD0CB
:10A3A00005B030BDA8471A4C8368A360A847037D59
:10A3B00001A8237606F0F1FB0028E5D1019BA268F5
:10A3C00063609DF80C3021465343029A1148B2FB5A
:10A3D000F3F222820D4AE36000F013FA0028DFD185
:10A3E0000C4800F049FA0028DAD00A4800F05EFA7A
:10A3F0000028D5D1074805B0BDE8304000F03CBA90
:10A40000A434080C483C043098D20430C8CD070C62
:10A410002C3C043078D204302DE9F7431946DDE9AD
:10A420000A5752EA0103044610463BD0072F3CD896
:10A430002246FFF74FFF30B91D4B9B68DB0705D560
:10A440006FF084002BE010F18C0F28D1184E194AC0
:10A45000194B47F44037B760B4F5807F0CBF904686
:10A4600098460027DFF854907560B5F5007F2C46BC
:10A4700028BF4FF4007411482146FFF717FF234609
:10A4800032464046CDE900790D4900F025FA30B951
:10A49000B3682D1B23F44033B3602744E5D103B0E8
:10A4A000BDE8F0836FF08600F9E76FF08500F6E70E
:10A4B000B8D4043078D2043098D20430B8D2043002
:10A4C000C4D404302DE9F347194652EA0103064685
:10A4D0000A9F1046DDF8308037D03246FFF7FAFE8B
:10A4E000054630BB1A4B1C68BC422ED30B9BE41BA9
:10A4F0009C4228BF1C46174A174BDFF864A0B6F5EC
:10A50000807F0CBF91469946C8F80040B4F5007FA3
:10A51000264628BF4FF400763B46324648460F4950
:10A52000CDF800A000F0E3FA054630B10023C8F8EA
:10A530000030284602B0BDE8F08731465046FFF7AC
:10A54000BFFEA41B3744E1D1F3E76FF08605F0E7C7
:10A55000B8D4043078D2043098D20430C4D4043053
:10A56000B8D2043038B50546194610462A46049C30
:10A57000FFF7B0FE28B9034B1A689B68C4E90022B4
:10A58000A36038BDB8D4043010B50446194610464F
:10A590002246FFF79FFE80B9084B9B68DB070AD471
:10A5A0000748084B0849B4F5807F18BF1846BDE836
:10A5B000104000F08CBA6FF0840010BDB8D40430A5
:10A5C00078D2043098D20430C4D4043008B503687B
:10A5D00000209B689847002818BF6FF0910008BDC5
:10A5E000F8B51D46036804465B680E461746984753
:10A5F0000B4BC0F3410013F8202063680699E06814
:10A600001D442368B1FBF2F200FB065039469B69FA
:10A6100098470028B4BF6FF091000020F8BD00BF3C
:10A62000DCCD070C0020704770B504460E460025AF
:10A63000E368AB4201D8002070BD606806FB0300F0
:10A6400023682844DB69984710B9A3681D44EFE7E5
:10A650006FF09100F0E700002DE9F74F0C9C0746E2
:10A660009246002C55D0C26840681E183B6802FB19
:10A6700001665B689847284BC0F3410013F82080BF
:10A68000B6FBF8F908FB09F94E4540D03B680DF1DF
:10A69000040B0122594648465B699847002804DAB2
:10A6A0006FF0910003B0BDE8F08FA6EB09016218CE
:10A6B00090458EBF2546A8EB06054D442A465046D8
:10A6C000594409F05FFE641B1FD044450FD3B4FB0F
:10A6D000F8F93B684A465B690AEB0501A8199847F7
:10A6E0000028DDDB08FB09F3E41A0ED01D443B68AB
:10A6F00001225B6901A9701998470028D0DB224626
:10A7000001A90AEB050009F03DFE0020CAE700257B
:10A71000DBE72046C6E700BFDCCD070C2DE9F04F94
:10A7200003688FB006AA04460E46D3F80C8000F0EA
:10A73000FEFB00285FD10BA800F0EBFE01460028CD
:10A740005CD1DDE9067A202206A8099D0BF05EFEA9
:10A750003146204606AA00F032FD00284BD1834640
:10A7600081462368DB8A5B4515D8002D35D1294603
:10A77000204602AA00F063FC00283CD1294620466E
:10A7800002AA00F07BFEB0BB204600F060FE78B36A
:10A790006FF083002FE0B3451CD05946204606AA2F
:10A7A00000F0C5FB38BB069BBB420DD10BA800F0E7
:10A7B000B0FE48B9079B534506D9984528BF98462F
:10A7C0005B1B0793099B99445946204606AA00F053
:10A7D000F6FC80B90BF1010BC3E743462A46394624
:10A7E0002046CDE900A900F0A3F920B9002FCBD174
:10A7F000204600F087FB0FB0BDE8F08F6FF08B00B4
:10A80000F9E7F8B50D461746064660B359B352B39B
:10A810000B8AE88A012BC96812D9032B10D0022BAE
:10A82000AA8A23D1431CA1EB4313934234BF6FF098
:10A8300086040024914201D26FF08604012302E0D5
:10A840006FF08604023B03EB40030133B1EB031FBF
:10A8500009D344B92022214630460BF0D7FDC6E982
:10A8600000572046F8BD6FF08604FAE7914234BFE6
:10A870006FF086040024E5E737B5054600F08BFD50
:10A88000044658B94FF08071284601AA00F0B9FB80
:10A8900038B928460199FFF741FF0446204603B026
:10A8A00030BD10F18C0F18BF0446F7E700F097BCDD
:10A8B00010B58AB0144602AB01AA00F073FB40B990
:10A8C000059B6360049B2360BDF81830A3600AB049
:10A8D00010BD6FF08B00FAE72DE9F04393B00DF156
:10A8E00028080446894615460021202240461F4676
:10A8F0001A9E0BF08BFD4FF6FF73CDE9043325B99B
:10A900006FF0860013B0BDE8F083AB68B3F1807FD1
:10A91000F6D2236849465A8A6B682046013B1344A5
:10A92000524213406B6004AA434600F03BFB0028F0
:10A9300040F08780D5F808C004991CF4003F06D089
:10A940000D9A6B689A426FD10C90CDF838C0059182
:10A950004FF6FF73059A9A427CD121686B68898A09
:10A960008B42CDD806A9CDE9028105A90191A9683C
:10A970002046009104998A1A18BF0122494600F026
:10A98000B9FB0028BED1002F6CD120460A9906AA37
:10A9900000F074FD002851D105994246204600F090
:10A9A0000EFC0146002849D1DDE904539D4228BF31
:10A9B0001D4620462A4600F0D8FC00283ED14FF61E
:10A9C000FF72049B93420FD0059A93420CD09A4297
:10A9D00038BF1A462046691C00F0C7FC70BBDDE991
:10A9E00004539D4238BF1D4623682046DA8A691CFD
:10A9F00000F0BBFC10BB0A9B002B62D1002F60D083
:10AA0000204600F07FFA00287FF47CAF4FF6FF73FA
:10AA1000049999423FF476AF059B99423FF472AF97
:10AA20002046FFF77BFE6DE70E9B424643F08073A6
:10AA300020460E9300F0C3FB002889D06FF08300FE
:10AA400060E710F18C0F7FF45DAFAB68DB037FF53F
:10AA500059AF7DE720460A9906AA00F0F0FA0028CF
:10AA600091D0EBE723685B8A5A1E3242E6D17D1E05
:10AA70001D445B421D400C9B9E42DFD82A46314656
:10AA80000D9800F03AFD0028D8D11B9B4246CDE935
:10AA900000532046334606A900F0C0F80028CDD167
:10AAA0000C9B3E440A999E422046069D88BF0C9608
:10AAB00000F023FA294606900A9A204600F07CFB13
:10AAC00063E7204600F0C3FC002899D0B6E713B531
:10AAD000002301AA044600F065FA28B9204601992E
:10AAE000FFF71CFE02B010BD6FF08B00FAE770B5E7
:10AAF0008CB015461C4603AA04AB064600F052FA79
:10AB000098B92A462146069800F0F7FC58B9109BE0
:10AB10002246009330462B4604A900F05EF8002838
:10AB200018BF6FF083000CB070BD6FF08B00FAE7B8
:10AB30002DE9F04786B01646DDE90E9702AA0546D4
:10AB400088469A4600F07BFA044698B9049B414631
:10AB500033442846049300F0D0F906467FB10146FD
:10AB60004A462846CDE900A7029B00F0D0FB28B159
:10AB70006FF08304204606B0BDE8F0870127039AF2
:10AB80004A450BD2A9EB0203CDE900233146284602
:10AB9000029B00F0BCFB0028EAD101274246284670
:10ABA000029900F009FB4146284602AA029600F0ED
:10ABB00065FC044628B142463146284600F0FCFABE
:10ABC000D8E7B8F1000FD5D0002FD3D06B6831464D
:10ABD000DB68286898470446CCE72DE9FF410D461D
:10ABE000164609686A4604461F46DDF8288000F0CC
:10ABF00026FA70B900994B1C0BD062686B680A97F3
:10AC000055684246AC462068334404B0BDE8F04184
:10AC100060476FF0830004B0BDE8F0812DE9F34791
:10AC20001546DDE90AA90F4698461168044600F06A
:10AC300064F96B687A689844A8EB0203CDE90023B5
:10AC4000064601463B68204600F061FB20BB636876
:10AC5000CDF800A0D3F808A04A4643463146206804
:10AC6000D047C8B9EB686A68B9681A4423682046B7
:10AC7000DB685B1A9B1ACDE9002331463B6800F084
:10AC800046FB48B92B683BB1314663682068DB68F6
:10AC900002B0BDE8F047184702B0BDE8F08713B531
:10ACA00010244B1C416800948C681B01C16900682A
:10ACB000A04702B010BD436810B5C16904461B69C6
:10ACC0000068984750B923681A8A022A06D9626830
:10ACD000A1681846BDE810401269104710BD008AEF
:10ACE000022814BF03380020704708B5FFF7F7FFAC
:10ACF000013100EB4100000108BD2DE9F04F0024B7
:10AD000005460F46904626464FF010098BB0D5F801
:10AD100000A05046FFF7E3FF013086420ED3002625
:10AD20004FF02009D5F800A0BAF816309E421BD388
:10AD3000002088F800400BB0BDE8F08F6B6801364A
:10AD4000CDF80090D3F804B039465046330102AA3A
:10AD5000D8470028EFD102AB13F8012B013010289F
:10AD600084EA0204F8D1D2E76B6831465046D3F842
:10AD700004B0FFF7BAFF02AA034639465046CDF8A1
:10AD80000090D8470028D6D102AB13F8012B013030
:10AD9000202884EA0204F8D10136C3E737B5837B63
:10ADA00001685A1CD2B28273097E04469142C1697D
:10ADB00004BF02338373012900F10D020ED8FFF79F
:10ADC0009CFF48B91022636800929D68E1690346C0
:10ADD00004F108022068A84703B030BD6FF0860078
:10ADE000FAE713B50C46114622790346012A09D128
:10ADF000036862791B7E9A420CBF6FF083000020CB
:10AE000002B010BD022A04D11B68A2791B7E9A42AF
:10AE100002D16FF08300F3E701290DD80DF107028D
:10AE2000FFF76BFF0028EBD162799DF807309A425B
:10AE300018BF6FF09100E3E76FF08600E0E71022A3
:10AE4000F0B543688BB000925C68002302AA054607
:10AE500019460068A0470246002834D000264FF06B
:10AE6000FF3410226B6800925F680121002328687C
:10AE700006AAB847002839D10122284606A9FFF7BB
:10AE8000B0FF002832D1002E35D02B689DF81E204F
:10AE90001B7E9DF80E10B3FA83F35B0993421BD11E
:10AEA000002A0CBF01230223994203D191422CBFF7
:10AEB000002601263446AC61B4FA84F4002064090B
:10AEC000EC610BB0F0BD284602A9FFF78AFF0446EB
:10AED0000028C3D10126C4E78B42E7D1002B0CBF69
:10AEE000012302239342E1D00646E3E7002EE2D19C
:10AEF0006FF08300E5E70124DDE709B9C069704719
:10AF00008068704710B50446FFF748FF70B9636862
:10AF1000E169DB682068984740B9D4E906232046F8
:10AF2000C4E90632BDE81040FFF7C5BE10BDF7B555
:10AF3000066805463046FFF7D8FE034620206968BC
:10AF400000904F683046A9691446B847064640B994
:10AF50002868FFF7C4FE23680130834204D36FF0F2
:10AF60009706304603B0F0BD04F1140000F0D1FAAA
:10AF70000028F6D12D68E268AB8A9A42EFD8A36820
:10AF80009A42ECD3D4E900372BB92846E98AFFF777
:10AF9000ACFEB842E3D83946E86800F0AEFA0028C3
:10AFA000DFD0DCE72DE9F0430746884691461C4692
:10AFB000002589B03B68DB8AAB4202D86FF08B0674
:10AFC00016E06A4629463846FFF7B1FFB0B90C22B1
:10AFD000414605A80BF0C8F9064668B9C9F8005003
:10AFE00034B16D460FCD0FC495E80F0084E80F0013
:10AFF000304609B0BDE8F0830135DBE76FF083062A
:10B00000F6E7F0B505460E461746002489B02B68D2
:10B01000DB8AA34202D86FF08B0009E06A46214622
:10B020002846FFF784FF38B9049B1E4202D03C60DB
:10B0300009B0F0BD0134EAE76FF08300F8E773B5BB
:10B040004B1C06464168102000904C683068B1697E
:10B050001B011546A047044630B9336829681A8A8F
:10B06000914204D36FF09704204602B070BDD868B7
:10B07000D5E9011200F041FA04460028F2D12B680C
:10B08000012B03D83068C18AFFF72FFE6B6883421B
:10B09000EAD0E7E773B54B1C0546416810200090E5
:10B0A0004E681B01A96928681446B047034630B9A9
:10B0B0002B6821681A8A914204D36FF097031846CF
:10B0C00002B070BDD868D4E9011200F016FA034648
:10B0D0000028F2D12268012A08D82A681046FFF712
:10B0E000FEFDD28A013200EB42000001626882421A
:10B0F000E5D0E2E72DE9F04F06468B4691469846AB
:10B10000002789B0DDE9145A3068FFF7E8FD013007
:10B11000874202D36FF08D0421E052463946304613
:10B12000FFF78DFF0446002835D1DAF80820904556
:10B130002FD833685946DB682F609B1A6B600C224E
:10B14000C5F80C8005F1140009F01CF9129BAC60E5
:10B150002B61DAF80830A3EB0803CAF808300025A1
:10B160003368DB8A9D4205D26A4629463046FFF79E
:10B17000DEFE98B14FF6FF75139B1D60CCB94FF6FC
:10B18000FF739D4208BF6FF08D04204609B0BDE8F3
:10B19000F08F0137B8E76FF08304E0E705A800F00F
:10B1A000B8F920B1B9F1000FE6D14FF0010901352E
:10B1B000D6E76FF08D04E8E702B18160704773B5A0
:10B1C000056804462846FFF790FD03462020616885
:10B1D00000908E682846E169B04702B070BD70B536
:10B1E0008CB00546FFF72BFE002861D1EE696B6835
:10B1F00031461B69286898470446002878D1B6FA7A
:10B2000086F16B6828681B6949099847044600283D
:10B210006ED12A680126137EB3FA83F35B09AB7300
:10B22000138AC5E90606022B14BF02230123AB6073
:10B2300002232B73D18A1046FFF757FDD3682146AE
:10B240001B1A01906A46284602930096FFF727FDD5
:10B25000044600284CD106462B680190DB68029317
:10B260002B681846FFF73BFDB04223D8002C4BD18A
:10B270002B681846FFF733FDA04228D82022002172
:10B2800004A80BF0C3F800242B68DB8AA34232D851
:10B290002846FFF783FD48BB6B68E969DB682868CF
:10B2A0009847044620BBD5E90623C5E906321FE0CE
:10B2B00000269CE7198A6A68022914BF032100212D
:10B2C000184631441269904701360443C8E71B8A87
:10B2D0006A46022B14BF0323002323440134214672
:10B2E00028460093FFF7DBFC0028C1D06FF08304F1
:10B2F00020460CB070BD2146284604AAFFF75FFF28
:10B300000028F3D10134BFE76FF09104F0E72DE995
:10B31000F04F0446884616469946C3B0DDE94CA571
:10B320001DB9284643B0BDE8F08FB5F5807F2F46A4
:10B3300028BF4FF4807763680097D3F804B049467C
:10B340005346206802AAD8470028EBD163680097CB
:10B35000D3F808B041463346206802AAD8470028EF
:10B36000E0D13E44BA44ED1BDAE773B50668044603
:10B370003046FFF7BAFC1546024629463046FFF72D
:10B38000B4FC801ACDE900202046D4E90631FFF74D
:10B39000BEFF02B070BD2DE9F041436805461B6851
:10B3A000006886B09847044628B92846FFF747FD4D
:10B3B00028B16FF08304204606B0BDE8F081102666
:10B3C0006B6805F108070096D3F804803A462346D7
:10B3D000A9692868C0470028EBD139462846AA69E0
:10B3E000FFF7FFFC0028E4D12846FFF764FC044681
:10B3F0000028DED12B7B012B24D1014602AA28464E
:10B40000FFF748FE04460028D5D1049B2A68C3F103
:10B41000FF23D26803F57F03F0331344CDE90063C3
:10B4200032462846AB69E969FFF771FF04460028F8
:10B43000C1D16B7B2846AB7302232B73FFF762FDF0
:10B440000446B8E7022B18BF6FF08304B3E710B5CA
:10B4500086B0002102AA0446FFF7F1FD60B920681A
:10B46000039A049BD118C36820465B1ACDE90023D8
:10B47000D4E90631FFF74BFF06B010BDF0B5054625
:10B480000C4687B009B9C369136021462846FFF707
:10B4900006FC0146C0B9D5E906767CB900212868CA
:10B4A000FFF723FCA21C1201801ACDE900203B46C5
:10B4B00031462846FFF72BFF07B0F0BD284602AA09
:10B4C000FFF7BDFD014610B16FF08300F4E7284699
:10B4D00002AA0296FFF7E3FB0028F5D1012CDDD08C
:10B4E00020222301103B019331463B46284600921F
:10B4F000FFF70DFF0028D1D0DEE7814206D8401AC1
:10B50000904234BF6FF08600002070476FF08600D5
:10B51000704700F10C0310F8012B22B99842FAD1C0
:10B520006FF08B007047002070472DE9F0410368F1
:10B530000446A3F2F233A6B0032B00F2FD80DFE84D
:10B5400003F00D029195042200F1200353F8040D3D
:10B550001146013A002852D00A4652E00023042145
:10B56000169300F1200353F8040D0A46013908B17F
:10B57000114601E00029F6D1042204F1300353F80A
:10B58000045D1046013A0DB1024601E0002AF6D1F1
:10B590002369042B03D0012026B0BDE8F081206A86
:10B5A0000428F8D80129F6D1012AF4D100216068D5
:10B5B00006AA08F051FF0428EDD1A368002B16DB82
:10B5C00000220699A06805F06BFC0028E3D1216AEF
:10B5D000069816AA05F01DFC05460028DBD1236A53
:10B5E00016AA0021606808F043FF2846D4E70698B1
:10B5F00006A905F06AFC0028E2D00220CCE7002A68
:10B60000A4D1042104F1300353F8045D0846013944
:10B610000DB1014601E00029F6D12369042BBAD10E
:10B62000012AB8D10029B6D1606816AA08F014FF23
:10B630000428B0D1A368002B0DDB00221699A06866
:10B6400005F02EFC0028A6D1169805F017FC00384E
:10B6500018BF0120A0E7169816A905F036FC0028AF
:10B66000EBD0CAE705F094FA002095E70025042600
:10B670000DF1180840222946404616AFCDE9025583
:10B68000CDE904550AF0C2FE4022294638460AF0A8
:10B69000BDFE019504F1200353F8041D3246013E1E
:10B6A00059B133461646042504F1300252F8040D10
:10B6B0002946013D30B10D4606E0002EECD14FF099
:10B6C000FF33F0E7002DF1D12B43012B02D96FF0AE
:10B6D000800061E70423002160680DEB030208F09D
:10B6E000BBFE0428F3D1022E1FD16669402E20D85C
:10B6F000334642460121606808F0AEFE8642E6D13C
:10B70000CDE9028602A995B1236A402BDFD8CDE9A5
:10B71000047304AE3246019805F03DFA0546002E4A
:10B720003FF463AFDDE904235BE70021EBE72E463E
:10B73000F0E76FF089002FE76FF085002CE708B580
:10B7400005F065FB002814BF6FF09200002008BDD3
:10B75000F0B5036991B0042B03D06FF0800011B0F5
:10B76000F0BD6A460021406808F076FE0428F4D156
:10B7700000252E462846214C6279EFB23AB3237950
:10B78000032B16D104232371009B3846236000F05D
:10B79000A9FB0028E3D1012600206B1C022B4FF0EF
:10B7A000010504F10804E7D1002E08BF6FF08800FE
:10B7B000D5E7052BF1D1384600F07AFC431E012B6A
:10B7C00014D806232371009B01262360E5E701219D
:10B7D000384601AB00F072FC0028C0D19DF804305F
:10B7E000052BDAD1012223716271E4E70028B6D17A
:10B7F00004232371009B2360CDE700BFD0D8043021
:10B800006FF47A722DE9F04303680546134491B052
:10B81000092B00F2ED81DFE813F00A004D009900DA
:10B820000B01B3002A01E60194019701500104695C
:10B83000012C46D14769002F40F0DA8123466A4641
:10B840003946406808F008FE9DF80030012B00F2F0
:10B8500075816E692EB133463A462146686808F014
:10B86000FBFD9DF80000B14D05EBC0035A7922B1F4
:10B870001C79DCB16FF0880418E0012101AB00F005
:10B880001DFC044690B99DF80430002BF2D101460E
:10B8900032469DF8000000F06BFA044630B99DF87E
:10B8A000003005EBC30540F20113AB80204611B018
:10B8B000BDE8F0838669B6F5806F44D80469012C31
:10B8C00002D06FF08004F1E74769042FF9D12346D5
:10B8D0006A460021406808F0BFFD9DF80030012B4A
:10B8E00000F22C813B4601AA2146686808F0B4FDAD
:10B8F0009DF800208D4B03EBC2035A79002AB9D082
:10B900001B79012BB6D10EB90024CFE7B6F5806FB5
:10B91000374628BF4FF4806702213B46844A686857
:10B9200008F09AFD8742CCD13B46814A01999DF8A7
:10B93000000000F04FFA04460028B7D1019BF61B27
:10B940003B440193DFE76FF08604AFE70369012B07
:10B95000B7D101AA0021406808F07EFD9DF80420BF
:10B96000012A00F2EB80714B03EBC2035A79002AE3
:10B9700080D01A79012A7FF47DAF02221A71C3E7C1
:10B980004FF00008694F45463E467A795FFA88F0E5
:10B99000AAB33B79032B3FF46DAF062B3FF46AAF9C
:10B9A000022B07D105F140026B1C0DEB020505F8D7
:10B9B000400CDDB208F10103022B4FF0010807F142
:10B9C0000807E2D1002D3FF455AF2946684600F044
:10B9D000B1FA10F19C0F04463FF468AF69460022AB
:10B9E0004FF0050C471E11F8010BC30033449CB9FE
:10B9F00083F804C00132D2B2AA42F4D156E7012141
:10BA000001AB00F05BFB044600287FF44FAF9DF8CC
:10BA10000430052BCED12DE7012F89BF4FF0040E46
:10BA2000032083F804E046F8304098BF1871E1E73E
:10BA30000369012B7FF445AF0021406801AA08F09B
:10BA40000BFD9DF80430012B78D8384800EBC30279
:10BA5000517900293FF40EAF1179013901293FF6E0
:10BA600009AF04210024117140F833401EE7036937
:10BA7000012B7FF426AF0021406801AA08F0ECFCFE
:10BA80009DF80400012859D8284D05EBC0035A79C8
:10BA9000002A3FF4EFAE1B79042B02D0072B7FF472
:10BAA000E9AE00F05DFB044600287FF4FFAE9DF890
:10BAB000043005EBC305A880F8E6002406698DF87C
:10BAC0000040012E7FF4FDAE036A3C2B7FF4F9AEFB
:10BAD00033466A462146406808F0BEFC9DF80000E7
:10BAE00001282BD8114901EBC0035A7912B31B79F5
:10BAF000022B8DF804301FD003F0FD03042B08BF88
:10BB000051F830304FF000010A4608BF029301ABF4
:10BB100000F0D4FA044600287FF4C8AE01463C2366
:10BB2000686801AA08F0A4FCC0E600BFD0D80430C1
:10BB3000D0D404303146EAE72146E8E76FF08B04C1
:10BB4000B4E60AF0ABFFDFE64FF000082A4E4546A8
:10BB5000374672795FFA88F962B33379052B07D1DA
:10BB600005F140026B1C0DEB020505F8409CDDB2AF
:10BB700008F10103022B4FF0010806F10806E8D195
:10BB8000002D3FF477AE2946684600F047F9044699
:10BB900000287FF48BAE07229DF80030454507EB67
:10BBA000C3031A713FF482AE9DF8013007EBC3075F
:10BBB0003A717BE60121484601AB00F07FFA04466A
:10BBC00000287FF473AE9DF80430052BD0D105F129
:10BBD00040016A1C0DEB0105012105F8409C7171C3
:10BBE0003371D5B2C4E711B0BDE8F043FFF7B0BD83
:10BBF0006FF085045AE600BFD0D8043008B500F0D5
:10BC0000A5F8002818BF6FF0830008BD42F21603A4
:10BC10002DE9F341154C074622880E469A4204D07E
:10BC20006FF0970002B0BDE8F081658825440434C8
:10BC3000AC42F5D2042221460DEB020008F0A2FB33
:10BC4000BDF80430BDF8062013F03F080BD1C3F354
:10BC50008513BB4207D1082AE2D13046211D08F0E6
:10BC600091FB4046DEE704321444E1E7E0D80430BB
:10BC70002DE9F04F4FF000080446CDB020220E46CB
:10BC800004A84146CDF804800AF0C0FB2C4B01AD5E
:10BC900053F8342002AFC7F80080002A4DD0E01CD2
:10BCA00003EBC4032946C0B2D3F8049000F0AAFC09
:10BCB00040B124480AF098FF6FF0910420464DB03F
:10BCC000BDE8F08F0DF10C0ACAF800001E4950467D
:10BCD000D5F800B00AF036FC0446E0B16FF09104EC
:10BCE000286800F0ABFCE9E7A9EB0408B8F5807F11
:10BCF00028BF4FF480782146434658460CAA00F0EE
:10BD00009FFC0028EAD1424650460CA90AF03EFCAE
:10BD10000028E3D14444A145E6D83B4620225046C2
:10BD200004A90AF055FC04460028D7D13A6804A9B2
:10BD300006F11C0008F026FBD2E76FF08604BDE791
:10BD4000FCD8043024CD070C0900000210B51C22D9
:10BD5000022006490AF058FB044618B900F03AFCE4
:10BD6000204610BD6FF09104FAE700BFE0D8043020
:10BD700013B5044622BB012822D8002801A914BF0C
:10BD80000420032000F03EFC014630B10E480AF0CA
:10BD90002BFF6FF0910002B010BD0198C26800F057
:10BDA000ABFD28B109480AF01FFF6FF08300F2E7EE
:10BDB000074B019A43F8342003EBC4035860EAE7C9
:10BDC0006FF08600E7E700BF24CD070C45CD070CD8
:10BDD000FCD8043070B505461E46A2B1012812D821
:10BDE0000C4C54F8300088B100F0B8FC28B10A4877
:10BDF0000AF0FAFE6FF0910070BD04EBC5046268B2
:10BE000032446260F8E76FF08600F5E76FF0880073
:10BE1000F2E700BFFCD8043066CD070C2DE9F047EF
:10BE20000E46054686B020B96FF0860006B0BDE824
:10BE3000F0870446DFF8A89000EB0108444504D1E0
:10BE40000024B44213D10020F0E714F8017B012F45
:10BE5000EAD8002F14BF0420032001A900F0D2FB70
:10BE600028BB019B002BDFD049F83730E6E72F5D78
:10BE7000384600F0F2FA631C78B34FF00008DFF8A0
:10BE80006090E4B25FFA88F3A34210D259F83760A9
:10BE90003046F56800F051FD00F10F0A40420AEA11
:10BEA000000A203DBAF1100F25F00F0502D96FF0FE
:10BEB0009100BBE7304600F046FD5246014602A81D
:10BEC0000AF0A4FA53462946304602AA00F046FC7E
:10BED00008F101080028D5D0E9E71C46B1E700BF0A
:10BEE000FCD8043030B5012885B01BD8104B53F86E
:10BEF0003050D5B12846EC6800F025FD103C0146D5
:10BF00001022684624F00F040AF080FA10236A46D3
:10BF10002146284600F022FC002818BF6FF091004F
:10BF200005B030BD6FF08600FAE76FF08B00F7E7E1
:10BF3000FCD8043000232DE9F04FA1B00E46044692
:10BF4000CDE9053378B107468046DFF85C91DFF82C
:10BF50005CA100EB010BD8450AD10025B54240F0A9
:10BF60008F80012001E06FF0860021B0BDE8F08FE6
:10BF700018F8013B012BF6D859F83350002DF2D0B8
:10BF800020230021284610AA00F05AFB10B16FF0C0
:10BF90009100EAE7109B534502D06FF09700E4E769
:10BFA0000123009340232A460DEB03010AA800F069
:10BFB00070FA0028EBD100230DF10E0204A90AA8A3
:10BFC00000F0B3FA0028E2DBC5D1BDF80E300C2B2F
:10BFD000C9D82846049907AA00F032FB0028D6D118
:10BFE0009DF81C000228D8D805A9FFF70FFE0028ED
:10BFF000CDD19DF814209DF820309A42DBD80CD387
:10C000009DF815209DF821309A42D4D805D3BDF86B
:10C010001620BDF822309A42CDD200239DF81C2074
:10C02000E15C914206D00133D9B28E42F8D86FF06C
:10C030009B009AE7DBB29E42F9D959F832000028FA
:10C04000F5D02023002118AA00F0FAFA00289ED18A
:10C05000189B5345EBD19DF874209DF820309A42EF
:10C06000A9D8E4D39DF875209DF821309A42A2D832
:10C07000DDD3BDF87620BDF822309A42D7D39AE7B7
:10C080000021605D00F0CCF96B1C50B12544AF423B
:10C090003FF47DAF17F8010BFFF724FF0028F6D01F
:10C0A00075E71D465AE700BFFCD804303DB8F3964B
:10C0B00001288CBF6FF0860001207047F0B517464D
:10C0C000032285B08DF80320002206460C461D464B
:10C0D0000192002B3ED001283CD8904214BF022090
:10C0E000012001A900F08EFA38B11C480AF07CFD4D
:10C0F0006FF09104204605B0F0BD0198C3682B6134
:10C100000378AB6101236B618CB10DF1030100F089
:10C11000D6F828B16FF09104019800F08FFAE9E7A2
:10C120009DF80330012B16BF052328702B70304675
:10C1300002A9FFF76BFD04460028EBD1029BAB6020
:10C14000039BEB60002FE7D029463046FFF790FDB8
:10C150000446E1E76FF08604CCE700BF24CD070C6E
:10C16000012838B504460BD80A4D55F8300050B1B7
:10C170000021C26800F0C0FB40B945F8340038BD6A
:10C180006FF08600FBE76FF08B00F8E76FF091002F
:10C19000F5E700BFFCD80430C068203820F00F005D
:10C1A0002038704738B515460C4661B15AB100F0D9
:10C1B000CAFB2146254411F8013B834203D1A94221
:10C1C000F9D1012038BD0020FCE738B50C46012329
:10C1D00011462246054600F033FA00280FDB012203
:10C1E00021462846FFF7DEFF18B103230020237005
:10C1F00038BD2378012B14BF02230123F6E7012069
:10C20000F6E7000030B5C16885B0103921F00F04A1
:10C21000054600F098FB1022014668460AF0F6F841
:10C2200010226846064908F0ADF810236A462146F8
:10C23000284600F093FA003818BF012005B030BD41
:10C24000E8CD070C2DE9FF471D4606460F469046F0
:10C2500000F073FB6C1E044440420440102C1AD8BA
:10C26000304600F070FB82462A464146684608F098
:10C2700089F85146621B0DEB05000AF0C7F823460A
:10C280006A463946304600F069FA003818BF012086
:10C2900004B0BDE8F0874FF0FF30F9E707B50123A0
:10C2A0008DF8042001AAFFF7CDFF03B05DF804FB71
:10C2B000C1680122203921F00F01FFF7EFBFC268EA
:10C2C000203A22F00F02FFF780BF000030B50D4684
:10C2D000C16887B0102302AA1039044600F0B0F9F3
:10C2E000002802DA012007B030BD1022204602A942
:10C2F000FFF758FF00283AD110221E4902A80AF081
:10C3000033F800280CBF012302232B702046FFF7CF
:10C3100043FF012301460DF10702204600F090F98A
:10C320000028DFDB9DF80730204603F00F021B09D1
:10C330006A702B7101220DF10701FFF733FF10B96D
:10C340006B78042B03D901236B7000232B71E268F7
:10C350002046203A22F00F02103AA91CFFF735FFC1
:10C360000028BFD12046E91CFFF7A9FFBBE7032344
:10C37000CBE700BFE8CD070C13B541EA0211044634
:10C380008DF80710FFF708FF012301460DF10702A2
:10C390002046FFF757FF02B010BD73B50E46694641
:10C3A00004461546FFF792FF10B1012002B070BDA0
:10C3B0009DF80030022B2FD0032B0BD0012B2DD159
:10C3C000002EF3D09DF80330032BEFD12046FFF76A
:10C3D0006FFFEBE7002EE9D12046FFF713FF00289F
:10C3E000E3D135B9237803F0FD02012A07D10022F9
:10C3F0000AE02046FFF75CFF0028D7D1F2E7022BC6
:10C4000008D0043B5A425A41A91C2046C9B2FFF742
:10C41000B3FFCBE70122F7E7F01CC7E70320C5E72E
:10C4200013B50C46A8B1012814BFFF20042001A9B0
:10C4300000F0E8F8014670B9221E18BF01220198E9
:10C44000FFF7ABFF0446019800F0F8F8204602B071
:10C4500010BD0320EBE70124F8E7002313B5019397
:10C4600098B1012814BFFF20022001A900F0CAF8EA
:10C4700068B9012201981146FFF78FFF0446019821
:10C4800000F0DCF8204602B010BD0120EDE70124E9
:10C49000F8E72DE9F7430E4617469946044628B9B2
:10C4A0004FF0FF38404603B0BDE8F0830029F7D0D5
:10C4B000002AF5D0CB680D8938461D44042329464F
:10C4C0000DEB030200F0BCF880460028E8D146F6E8
:10C4D0000812BDF804107389914223D1BDF80610EB
:10C4E0009942DDD1042338460DEB0302294400F0C4
:10C4F000A7F80028D4D146F60713BDF804209A42C5
:10C50000CED19DF82830C4E90067A4F80890A37242
:10C510007389BDF806202B44E3600435134463613E
:10C520002561BFE7002BE6D0BAE72DE9F7430F46B8
:10C5300090461E46044620B94FF0FF3003B0BDE8D8
:10C54000F0830368002BF7D04368002BF4D04FF63C
:10C55000FF79D4E90413994215D223685B8923B18A
:10C56000E3688B4204BF04312161042360680DEB52
:10C57000030200F065F80028DED1A37A256923B113
:10C58000E368AB4201D80120D8E72189BDF8062035
:10C59000494502F1040303D0BDF804C08C450BD11A
:10C5A00016B1BDF80410318004353D60A8F80020B4
:10C5B00022691A442261C1E72B442361C9E740B1D3
:10C5C000521805D2C068904234BF00200120704745
:10C5D0000020704770B50024084B094D1E68A64224
:10C5E00001DC002070BD55F8043B00209B68984793
:10C5F00008B90134F3E74FF0FF30F3E758CE070CEA
:10C60000643C04300B4B30B51A6800230A4C93424B
:10C6100003DB06D14FF0FF3008E01D01655D854268
:10C6200005D10020044A02EB03130B6030BD013337
:10C63000EDE700BF04CE070C08CE070C70470000E2
:10C640002DE9F743984683680546B3F5001F0C466D
:10C65000174604D33F4B1A780AB901221A70424692
:10C6600021462846FFF7ABFF002870D06B68CDF855
:10C6700000805B689847384BC0F3410013F8209066
:10C68000C9F1000303EA040634EA030329D0D5E91B
:10C69000013001225B6901A930449847002815DB6D
:10C6A000002204EB08039B1B4B4524BFA6EB0408A8
:10C6B000C844A31BD6B2B04502F1010209D8009BC1
:10C6C000A3EB08030093009B6BB9002003B0BDE807
:10C6D000F08306F108016944194411F8041CB955A6
:10C6E000E8E70026EFE7009B4B45B3FBF9F81CD2C7
:10C6F00009FB08F8AB6808EB040018446B680122DA
:10C700005B6901A9304498470028DFDB00224744D9
:10C710000099D3B2994202F10102D6D9F91808332F
:10C720006B4413F8043C8B55F2E7A8686B6820440F
:10C7300042465B69B919304498470028C6DB009B24
:10C7400009FB18330093009B002BD1D1BDE74FF0BC
:10C75000FF30BBE70CD90430F8CD070C2DE9F04FC2
:10C760008DB002921A4605460F461E4621F00F0A6A
:10C7700001F00F08FFF723FF28B94FF0FF331846E9
:10C780000DB0BDE8F08F6B680DF1200B5B6898472A
:10C79000584BC0F3410053F820305A46009351469D
:10C7A00043462846FFF74CFF0028E6D106F10F0369
:10C7B000434423F00F03AAEB0709A9EB06091A4625
:10C7C0005146284601939944FFF7F9FE0028D4D03A
:10C7D0004B46284604AAB919FFF732FF0346002842
:10C7E000CBD1B8F1000F63D14446B442C7D2A6EB17
:10C7F000040A3AF00F0A10D0A86869689DF8002072
:10C800003844D1F818B0BAFBF2F2029920440393ED
:10C81000D8470028B1DB039B5444B9F1000FAED0D8
:10C8200008A8224600238646964209D90299013378
:10C8300011F802C0102B00F801CB02F10102F3D174
:10C8400096429AD1002204A8102B01D04A454AD121
:10C8500008F11008102BA0448FD14A458DD1019AC0
:10C8600042458AD1A8689DF800206D683844B3FB22
:10C87000F2F27146AD692044A847C3177FE7029AD8
:10C88000125D01340BF8012001310F2913D8B44295
:10C89000F5D1002204A80DF1200C0F2920D84A451B
:10C8A0000BD010F801EB013201F80CE00131F4E794
:10C8B00041460446E9E7B442EBD0102903937FF4E4
:10C8C0005CAFD5E901309DF80020D3F818B0B1FB7A
:10C8D000F2F2504408A9D8470028039B85DA4CE7B8
:10C8E0004A45EAD049E710F8016B01320EF80360BF
:10C8F0000133A9E7F8CD070C2DE9F04105460E46B6
:10C900009046FFF75CFEA8B16B689B6A9847046885
:10C91000074664B10020BDE8F081D5E90130DB694C
:10C92000304498470028F6D1BB681C441E44444557
:10C93000F3D3EFE74FF0FF30EDE708B543689B6AAC
:10C940009847006908BD08B543689B6A9847007D11
:10C9500008BD0368D90444BF43F4806303609A04AC
:10C9600044BF43F400630360704700002DE9F04FBB
:10C97000904600220446ADF5217D06AD2846039180
:10C9800008AE11461F46FDF748F8A26C40F20311AD
:10C990003046FDF742F84FF40872002118A809F05C
:10C9A00035FD182200210BA809F030FD00211A22C4
:10C9B0000DF1460009F02AFD4FF6F87241F201032D
:10C9C000B2EBC70F4FF6FF72ADF828304FEAC7033E
:10C9D00038BF1346ADF82A30012305A80593FFF7A9
:10C9E000B8FF0368DFF8A4B00C934FF480430360F2
:10C9F000FFF7AFFF0368214613934FF49053226B68
:10CA0000ADF8443011A83346CDF850B00BF000FB20
:10CA10000DF10C0A04460DF1280938BB594618A837
:10CA20000DF04EFF044608BB96E80C0040F20111E1
:10CA300018A80DF0B5FF0446C0B90423524640F2D1
:10CA4000032118A80DF06EFF044678B92A4648461F
:10CA500018A90DF029FF044640B9AA9B424600934D
:10CA600095E803003B460BF025FA044618A80DF0A4
:10CA7000A9F896E803000BF0A8F995E803000BF07D
:10CA8000A4F920460DF5217DBDE8F08F09010008CD
:10CA90002DE9F04700249EB006A806940AF006F996
:10CAA0000646DFF8C4802F4FB44203D100201EB0E9
:10CAB000BDE8F087069B4FEA441903EB4412116965
:10CAC00041454DD10021956809A853F80920FCF78C
:10CAD000A4FF1C2200210BA809F098FC0DF11603FD
:10CAE0000293069808AB019305AB00934844D0F835
:10CAF00014A03022806907AB12A9D04700282FD19B
:10CB00004FF6F8714FF6FF72099B10930A9B119331
:10CB1000BDF814308B4288BF1346ADF82E30089B09
:10CB20001C220E93BDF816300BA9ADF82C30069BD5
:10CB30004B441B690C9313F0FF0308BF109354235D
:10CB40005D4305F1340038443D4407F01BFC2846A2
:10CB5000079A12A907F016FC079B2B6301232B658C
:10CB60000134A1E710D90430010100807FB51546DA
:10CB7000CDE9000112B300240646146003A8039413
:10CB80000AF094F8039BA04209D01A4652F8201BE1
:10CB90008E4208D1D3E90221931E0B4306D16FF0D8
:10CBA0008B0004B070BD13460134ECE75421054BF3
:10CBB000002001FB02331B6B2B60F2E76FF0860055
:10CBC000EFE700BF10D904302DE9F04F87B01F46C2
:10CBD000109B012806461446DDF84490009304D9C2
:10CBE0006FF0860007B0BDE8F08F542141433F4D00
:10CBF000019101EB050ADAF85030002B6FD0002AC2
:10CC0000EED0D2E905B8002302A802930AF048F852
:10CC10000023029A0199984250D094465CF80CEB9C
:10CC2000F3454DD1D2E901C3BCF1000F07D000227A
:10CC300053F8320080453ED103EBC2035B683431C8
:10CC40001C2229442046019307F09CFB5A4641468A
:10CC500004A8FCF7E2FE0499626861610599019BF2
:10CC6000A161D1B221B922F0FF0242F0010262605B
:10CC700003A80393FFF76DFE542303FB06531A6BBF
:10CC8000009B03999A42A1602CD8002FA8D0B9F13B
:10CC9000000FA5D04B0416D540F20313984512D0CF
:10CCA0003A4641465046009BCDF8409007B0BDE85B
:10CCB000F04FFFF75BBE01329445B9D10023BEE7C8
:10CCC00062460133A7E75146384607F05BFB542321
:10CCD00003FB06552B6B0020C9F8003082E76FF08C
:10CCE0008B007FE76FF089007CE700BF10D904302C
:10CCF0000A5B43727970746F5D20556E7375707046
:10CD00006F727465642072657175657374210A00B1
:10CD100054462D5053412D43727970746F20312E3B
:10CD2000312E30003C54464D204657553A206F7006
:10CD3000656E696E6720666C617368206661696CF8
:10CD400065642E0A003C54464D204657553A2065EE
:10CD5000726173696E6720666C61736820666169D1
:10CD60006C65642E0A003C54464D204657553A20C7
:10CD7000777269746520666C617368206661696C9E
:10CD800065642E0A0000000070FF76FF7CFF79FFCB
:10CD90005053415F494F545F50524F46494C455F95
:10CDA00031000000D99C070CB59C070C7D9C070C3A
:10CDB000599C070C3D9C070C119D070CE19B070C2F
:10CDC000A99B070C6D9B070CCDA5070C59A6070C5A
:10CDD000E1A5070C25A6070C29A6070C01000000F9
:10CDE000020000000400000010002DE15D29410B4D
:10CDF0008D77679C110F1F8A010000000200000060
:10CE0000040000000500000001640000A434080CC8
:10CE1000008007000080050003640000A434080CB3
:10CE2000000020000080050002640000A434080C0B
:10CE300000000D0000C0120004640000A434080CBF
:10CE40000080250000C0120005640000A434080C16
:10CE50000000000000C00000010000000000000011
:10CE60006037080CC0D9043037000000E036080CE9
:10CE7000003C043020000000E036080C00000430C4
:10CE800000000000A0DA043007160000803C0430E7
:10CE9000502700000000043000080000074AD2F8C4
:10CEA000883043F47003C2F8883002F50032D2F8BB
:10CEB000883043F47003C2F88830704700ED00E01A
:10CEC000704738B50446002839D0437A03F0FF0292
:10CED00013B90272FFF7F4FF02232268637213682A
:10CEE000616823F004031360136823F0804323F088
:10CEF00020030B4343F080431360136823F0804307
:10CF0000136007F00BF9054623681A68510009D42D
:10CF10001A6842F004021A605B685A0611D50423AD
:10CF200063720CE007F0FAF8401B0428ECD9236880
:10CF30001B685800E8D5012363720223E3600120D7
:10CF400038BD07F0EBF805462368586810F0040078
:10CF500003D101236372E060F2E707F0DFF8401BC2
:10CF60000428F1D923685B685B07EDD50423E3E768
:10CF70007047002307B5019303685A68510709D425
:10CF80005A6822F040025A60C36823F00803C36065
:10CF9000002018E01A6842F080421A601A6822F0F5
:10CFA00080421A6004220192019A013A0192019A88
:10CFB00062B901234372C368027243F00203C36083
:10CFC000FFF7D6FF012003B05DF804FB1A6852009A
:10CFD000EAD45A68510642BF5A6822F040025A60A9
:10CFE00004220192019A013A0192019A002AE0D0AA
:10CFF0005A685207F6D4C7E7F8B5037A0446012BFE
:10D000000E4643D00123427A03729A42D5B239D1F7
:10D010000223437203685B685F061BD407F07EF847
:10D02000074623685A68D0071CD59A685968226158
:10D03000490642BF0822E2605A684FF0000544BF2B
:10D0400022F001025A604FF0010358BF3260637250
:10D05000002315E00823C360FFF78BFF0128DDD113
:10D060002846F8BD07F05AF8C01B0428D9D9236810
:10D070005B6813F00103D4D1012262720222E260E4
:10D080002372EDE704221D46C260E1E70225E7E7CF
:10D0900038B51D46934B944C5B68C3F3080323607B
:10D0A000EFF3038363655306C4E90120E1603BD5D8
:10D0B00002F00C020C2A08BF08460146206120221B
:10D0C0008A4807F05FF925B120222946884807F0F1
:10D0D00059F9844B9A6AA265D96AE165986B206612
:10D0E00002F400406066586BA06602F08000E066C3
:10D0F0009A62D962D3F8E4207E482267D3F8E81018
:10D10000616702F04001A167C3F8E42000F05EF916
:10D110002168CB1E042B00F2D080DFE813F0110051
:10D120001600C800CA00CC00EFF39483980704D51A
:10D13000110702D5EFF38980BFE7EFF38880BCE7E2
:10D140006D4800F043F9002503E06C4800F03EF91B
:10D1500001256B4800F03AF961686A4800F036F939
:10D16000694800F033F963685A064CBF674868485D
:10D1700000F02CF963681B074CBF6648664800F056
:10D1800025F9616D654800F021F9A168644800F057
:10D190001DF9E168634800F019F9EFF388816248EE
:10D1A00000F014F9EFF38981604800F00FF9EFF314
:10D1B00011815F4800F00AF921695E4800F006F924
:10D1C00015B15D4800F002F961695C4800F0FEF8B5
:10D1D000A1695B4800F0FAF8E1695A4800F0F6F8F6
:10D1E000216A594800F0F2F8616A584800F0EEF8F8
:10D1F000A16A574800F0EAF8E16A564800F0E6F8FC
:10D20000216B554800F0E2F8544800F0DFF8616BFC
:10D21000534800F0DBF8A16B524800F0D7F8E16BFF
:10D22000514800F0D3F8216C504800F0CFF8616C01
:10D230004F4800F0CBF8A16C4E4800F0C7F8E16C05
:10D240004D4800F0C3F8216D4C4800F0BFF8A16DC7
:10D250004B4800F0BBF894F859104A4800F0B6F873
:10D26000636E002B31D0216E474800F0AFF894F880
:10D270005810464800F0AAF8E36E53B3A16E444834
:10D2800000F0A4F8B4F85A10424800F09FF8E16D9D
:10D29000414800F09BF8216F404800F097F8A36FD9
:10D2A000DBB1616F3E48BDE8384000F08FB83D48C3
:10D2B0004CE73D484AE73D4843E70F2992BF3C48C9
:10D2C0003C48103900F082F842E73B4800F07EF815
:10D2D000CDE73A4800F07AF8D4E73948BDE838405D
:10D2E00000F074B800ED00E0580405306C0405301F
:10D2F0008C040530582E080C672E080C732E080C71
:10D30000F42E080C1E2F080C3C2F080C552F080C6F
:10D31000642F080C772F080C872F080C982F080C07
:10D32000AE2F080CC42F080CDA2F080CF02F080CB5
:10D330000630080C1C30080C3F30080C9230080CEA
:10D34000A930080CC030080CD730080CEE30080C9F
:10D350000531080C1C31080C3331080C4A31080C1B
:10D360006D31080C8431080C9B31080CB231080C6B
:10D37000C931080CE031080CF731080C0E32080CEA
:10D380002532080C3932080C4C32080C7632080C65
:10D390008932080CB432080CC832080CDC32080C94
:10D3A000F032080C852E080C902E080C9D2E080CCF
:10D3B000AB2E080CC72E080C5F32080C9D32080CEF
:10D3C0000333080C0846114600F014B80FB41FB51B
:10D3D000012106AB53F8042B05480091002103936B
:10D3E00007F03CF905B05DF804EB04B0704700BFEE
:10D3F000C5D3070C0A4B37B51B786BB1094C636971
:10D40000984748B9E56AA847C307FCD4236A019343
:10D4100003B0BDE830401847002003B030BD00BF66
:10D42000D40405305034080C10B50B4C0020A36810
:10D43000984780B902202369984760B94FF4E131D9
:10D440000120A46AA04730B901211520A04710B9D6
:10D450000122024B1A7010BD5034080CD404053060
:10D46000044B82B0186883B26FF30F00184302B008
:10D47000704700BF8834080C0120704700207047B7
:10D48000002070476FF003007047002070470020B5
:10D490007047002070476FF003007047002070470E
:10D4A00010B50C46014630B12CB10448A2B200F0D0
:10D4B0003DFE204610BD6FF00400FBE7D8040530A8
:10D4C0000A4608B5014640B13AB14FF47A730448B0
:10D4D00092B200F0E2FC002008BD6FF00400FBE710
:10D4E000D804053010B52A4B88B0D3F88C20072417
:10D4F00042F00402C3F88C20D3F88C2003A902F078
:10D5000004020092009AD3F88C20224842F00402D0
:10D51000C3F88C20D3F88C2002F004020192019A07
:10D52000D3F89C2042F00072C3F89C20D3F89C30C2
:10D53000402203F000730293029B0223CDE90323F0
:10D54000069301230794059300F02CF8802303A988
:10D5500010480393079400F025F80F490F4B0C2255
:10D560000B6000234FF4E130C1E905234FF4004282
:10D57000C1E901030846C1E90333C1E907234B624E
:10D5800000F01AFD003818BF0120404208B010BD5D
:10D59000000C025400080252D80405300064005008
:10D5A000002070472DE9F04F00234FF00F094A4A41
:10D5B0004A4D02EA90280A6832FA03F401D1BDE824
:10D5C000F08F012404FA03FA1AEA020270D04C68C0
:10D5D00024F01007022F16D14FEAD30C00EB8C0C6D
:10D5E00003F0070EDCF820604FEA8E0E09FA0EFBFE
:10D5F00026EA0B0B0E6906F00F0606FA0EF646EA4F
:10D600000B06CCF820600326D0F800B04FEA430E9A
:10D6100006FA0EFC2BEA0C0B6FEA0C0604F0030C66
:10D620000CFA0EFC013F4CEA0B0C012FC0F800C0B5
:10D6300040D9032C3CD0C76837408E6806FA0EF6F6
:10D640003E43C660E60033D523F0030707F1A84741
:10D6500007F5083703F00306D7F860C0F60009FAAB
:10D6600006FE2CEA0E0C08FA06F646EA0C063E66A2
:10D67000D743D5F8806014F4803F0CBF3E4016437A
:10D68000C5F88060D5F8846014F4003F0CBF3E40BC
:10D690001643C5F884602E6814F4801F0CBF3E400A
:10D6A00016432E606E68A40254BF3E4016436E605F
:10D6B000013380E7876806EA070CCF6807FA0EF7A0
:10D6C00047EA0C078760476827EA0A0C27099F404A
:10D6D00047EA0C074760AEE77F7F2B00002002542B
:10D6E0007047704770477047D0F88C2008B5222AE1
:10D6F000036845D15B6AB0F86010826D0B4013700F
:10D70000836D01338365B0F85E30013B9BB2A0F8B6
:10D710005E30B0F85E309BB273BB026852E8003FE7
:10D7200023F4907342E8003103680029F5D103F136
:10D73000080252E8001F944621F001014CE8001253
:10D74000002AF4D12021C0F88C100267C16E426714
:10D75000012912D1C26653E8002F22F0100243E8DB
:10D7600000210029F7D1DA69B0F85C10D20644BF75
:10D7700010221A62FFF7B7FF08BDFFF7B2FFFBE701
:10D780009A6942F008029A61F6E7D0F88C2008B551
:10D79000222A036842D1596AB0F860201140826D94
:10D7A00022F8021B8265B0F85E20013A92B2A0F81E
:10D7B0005E20B0F85E2092B262BB53E8002F22F4E4
:10D7C000907243E800210029F7D103F1080252E8E2
:10D7D000001F944621F001014CE80012002AF4D108
:10D7E0002021C0F88C100267C16E4267012912D156
:10D7F000C26653E8002F22F0100243E800210029FE
:10D80000F7D1DA69B0F85C10D20644BF10221A6270
:10D81000FFF769FF08BDFFF764FFFBE79A6942F075
:10D8200008029A61F6E7000003682DE9F047DD6918
:10D83000D3F800909F68D0F88C200446222A40F04C
:10D84000A980B0F868303BB9B4F85E309BB2002BC9
:10D8500040F08380BDE8F0874FF0000AB0F86080A8
:10D860004F4E07F00107AB06EED52368A26D5B6A49
:10D8700003EA08031370A36D0133A365B4F85E30A7
:10D88000013B9BB2A4F85E302368DD6969072AD0AA
:10D89000EA070AD519F4807F07D001221A62D4F86A
:10D8A000902042F00102C4F89020A80708D53FB1AB
:10D8B00002221A62D4F8902042F00402C4F89020A8
:10D8C000690708D53FB104221A62D4F8903043F0BA
:10D8D0000203C4F89030D4F8903023B12046FFF70B
:10D8E00001FFC4F890A0B4F85E309BB2002BBAD10F
:10D8F000226852E8003F23F4807342E80031236835
:10D900000029F5D103F1080252E8001F104631400A
:10D9100040E80012002AF5D12021C4F88C102267BB
:10D92000E16E6267012914D1E26653E8002F22F00C
:10D93000100243E800210029F7D1DA692046D20617
:10D9400048BF1022B4F85C1048BF1A62FFF7CBFE44
:10D9500089E72046FFF7C5FE85E7B4F868209A42BC
:10D960007FF678AF226802F1080353E8003F23F006
:10D970008053083242E8003122680029F2D1094B75
:10D98000636752E8003F43F0200342E8003100297A
:10D99000F7D15FE79A6942F008029A615AE700BF3F
:10D9A000FEFFFFEFE9D6070C03682DE9F047DD69BC
:10D9B000D3F800909F68D0F88C200446222A40F0CB
:10D9C000A780B0F868303BB9B4F85E309BB2002B4A
:10D9D00040F08180BDE8F0874FF0000AB0F8608029
:10D9E0004E4E07F00107AB06EED52368A26D596ACB
:10D9F00008EA010122F8021BA265B4F85E20013A90
:10DA000092B2A4F85E20DD6969072AD0EA070AD538
:10DA100019F4807F07D001221A62D4F8902042F0D6
:10DA20000102C4F89020A80708D53FB102221A626B
:10DA3000D4F8902042F00402C4F89020690708D579
:10DA40003FB104221A62D4F8903043F00203C4F8C4
:10DA50009030D4F8903023B12046FFF743FEC4F84D
:10DA600090A0B4F85E309BB2002BBCD1226852E883
:10DA7000003F23F4807342E8003123680029F5D188
:10DA800003F1080252E8001F1046314040E800123E
:10DA9000002AF5D12021C4F88C102267E16E62675C
:10DAA000012914D1E26653E8002F22F0100243E866
:10DAB00000210029F7D1DA692046D20648BF10229A
:10DAC000B4F85C1048BF1A62FFF70DFE8BE72046E2
:10DAD000FFF707FE87E7B4F868209A427FF67AAF2F
:10DAE000226802F1080353E8003F23F08053083214
:10DAF00042E8003122680029F2D1094B636752E8FD
:10DB0000003F43F0200342E800310029F7D161E7EC
:10DB10009A6942F008029A615CE700BFFEFFFFEFDE
:10DB20008BD7070CF8B504460368C16982680069A1
:10DB30001D6802436069024375480A432840024356
:10DB40001A605A68E06822F4405202435A60714AEF
:10DB5000A069934205D002F1805293421CBF226A11
:10DB600010439A6822F06E4222F4306202439A60B7
:10DB7000DA6A606A22F00F020243DA62664A93426E
:10DB80006ED0A2F57442934200F08F8002F580625D
:10DB9000934200F08C8002F58062934200F089800D
:10DBA000B3F1502F00F0878002F5C052934200F08D
:10DBB000848002F5A052934200F0818002F58062D9
:10DBC00093427ED002F5806293427CD0A2F5C0528F
:10DBD00093427BD002F5806293427AD002F5C05224
:10DBE000934279D04D4A93421CD002F17042934245
:10DBF0004FF0000035D1002100F088FC70B3616A5D
:10DC0000474A656832F8112005EB4501B0FBF2F395
:10DC100099420AD901204FF00113A3660023C4E9F9
:10DC20001D33F8BD4FF48050E5E7B3EB053FF1D865
:10DC3000002319461BF04EF80023064619464FF400
:10DC4000807768082A46E6FB07011BF043F8354B4E
:10DC5000A0F540729A42DDD82368D8600020DAE748
:10DC60000120B1F5004F4FF0000138D100F04EFC1B
:10DC70000028F3D0616A2A4B626833F81130B0FB98
:10DC8000F3F0530803EB4003B3FBF2F34FF6EF72EC
:10DC9000A3F110019142BDD823F00F02216892B286
:10DCA000C3F342031343CB60D8E70220D9E7042033
:10DCB000D7E70820D5E71020D3E72020D1E7402080
:10DCC000CFE78020CDE74FF48070CAE74FF40070B3
:10DCD000C7E74FF48060C4E74FF40060C1E700F08D
:10DCE00015FC0028BAD0616A0D4B626833F8113018
:10DCF000B0FBF3F303EB5203B3FBF2F34FF6EF7217
:10DD0000A3F11001914285D82268D360A6E700BF35
:10DD1000F369FFCF00240044003801500024005470
:10DD20008C34080CFFFC0F00836A10B5DA0706D5A7
:10DD30000168C46A4A6822F4003222434A609C07A0
:10DD400006D50168046B4A6822F4803222434A6097
:10DD5000590706D50168446B4A6822F480222243A1
:10DD60004A601A0706D50168846B4A6822F40042AB
:10DD700022434A60DC0606D50168C46B8A6822F437
:10DD8000805222438A60990606D50168046C8A682D
:10DD900022F4005222438A605A0610D50168446C6E
:10DDA0004A68B4F5801F22F4801242EA04024A60F5
:10DDB00005D14A68846C22F4C00222434A601B06E3
:10DDC00006D50268C16C536823F400230B435360EB
:10DDD00010BD2DE9F84305460F4616469846DDF876
:10DDE00020902A68D36937EA03030CBF012300237C
:10DDF000B34201D0002029E0B9F1FF3FF2D006F094
:10DE00008DF9A0EB080048452C6802D8B9F1000F45
:10DE10001ED154E8003F23F4D07344E80032002AB6
:10DE2000F7D104F1080353E8003F23F0010304F1A4
:10DE3000080141E80032002AF3D12023C5F88830D8
:10DE4000C5F88C300023032085F88430BDE8F883C2
:10DE500023685A07C5D5E3691B05C2D54FF4006393
:10DE6000236254E8003F23F4D07344E80032002AD0
:10DE7000F7D104F1080353E8003F23F0010304F154
